:100000000C9446000C9465000C9465000C946500FB
:100010000C9465000C9465000C9465000C946500CC
:100020000C9465000C9465000C9465000C946500BC
:100030000C9465000C9465000C9465000C946500AC
:100040000C9465000C9465000C9465000C9465009C
:100050000C9465000C9465000C9465000C9465008C
:100060000C9465000C9465000C9465000C9465007C
:100070000C9465000C9465000C9465000C9465006C
:100080000C9465000C9465000C94650011241FBE4F
:10009000CFEFD0E1DEBFCDBF11E0A0E0B1E0E6E9F7
:1000A000F4E000E00BBF02C007900D92A030B10752
:1000B000D9F711E0A0E0B1E001C01D92A132B10773
:1000C000E1F70E94ED000C9449020C94000090E0CE
:1000D00049B3FC01EE0FFF1FE050FF4F208131813B
:1000E000220F331F306E50E002C0559547958A9518
:1000F000E2F741705070242B352B3183208380E050
:100100002050304F09F481E008951F939C010A9715
:100110008A35910510F442E001C041E0C9018456DE
:1001200090408458934008F443E0C901885E9340AE
:100130008852934208F444E0C90164E670E00E94EA
:100140003502CB016AE070E00E943502182FC90128
:100150006AE070E00E943502CB016AE070E00E9424
:100160003502F82FC9016AE070E00E943502E82FDD
:10017000443081F4C90168EE73E00E943502CB017E
:100180006AE070E00E9435028093200110931F0105
:100190008FEF0FC0433031F48FEF80932001109325
:1001A0001F0107C0423051F48FEF809320018093EC
:1001B0001F0180931E01F0931D010BC0413059F4C3
:1001C0008FEF8093200180931F0180931E01809305
:1001D0001D01E0931C011F910895AF92BF92CF9231
:1001E000DF92EF92FF920F931F93CF93DF9380EFF5
:1001F00087BB00E010E0C0E0D0E090E4C92E9FE1B2
:10020000D92EBB24BA948FE7A82EB0EAEB2EBFE01C
:10021000FB2EC6010197F1F71ABABBBAA8BAC701FB
:100220000197F1F729B38091000190910101880FA6
:10023000991F906E30E021703070822B932B909339
:100240000101809300018050904F11F4C058DF4F9E
:1002500089B32091020130910301220F331F306EC8
:1002600090E09595879581709070282B392B30936D
:100270000301209302012050304F11F4C05CDF4F86
:1002800089B32091040130910501220F331F306E94
:1002900090E0959587959595879581709070282B1E
:1002A000392B30930501209304012050304F09F47D
:1002B000A09689B32091060130910701220F331FC8
:1002C000306E90E043E0959587954A95E1F781700F
:1002D0009070282B392B3093070120930601205072
:1002E000304F09F4609689B32091080130910901DB
:1002F000220F331F306E90E0A4E095958795AA9564
:10030000E1F781709070282B392B309309012093ED
:1003100008012050304F09F4289689B320910A0132
:1003200030910B01220F331F306E90E0E5E0959580
:100330008795EA95E1F781709070282B392B3093DF
:100340000B0120930A012050304F09F4249689B301
:1003500020910C0130910D01220F331F306E90E07F
:1003600066E0959587956A95E1F781709070282BE6
:10037000392B30930D0120930C012050304F09F49C
:10038000229629B380910E0190910F01880F991F39
:10039000906E30E0220F232F221F330B3195822BDA
:1003A000932B90930F0180930E018050904F09F48E
:1003B00021960530110510F000E010E084E0C03017
:1003C000D80710F0C0E0D0E0CE010E948500BABA94
:1003D000F801E45EFE4F80810E94F6018BBB802F06
:1003E0008295807F88BB0F5F1F4F13CF882329F131
:1003F000813011F489EF0895823011F484EA089570
:10040000833011F480EB0895843011F489E9089564
:10041000853011F482E90895863011F482E8089558
:10042000873011F488EF0895883011F480E808953A
:10043000893011F480E90895089580EC08951F93A0
:10044000CF93DF93EC0115E08D810E94F6018BBB09
:10045000812F880F880F880F88BB11502197112397
:1004600099F7DF91CF911F910895AA1BBB1B51E112
:1004700007C0AA1FBB1FA617B70710F0A61BB70B14
:10048000881F991F5A95A9F780959095BC01CD01B9
:060490000895F894FFCF6F
:00000001FF
