:100000000C9467020C9486020C9486020C9486026F
:100010000C9486020C9486020C9486020C94860240
:100020000C9486020C947C030C9486020C94860239
:100030000C94BE170C9486020C9486020C948602D3
:100040000C94D5040C9486020C9486020C948602BF
:100050000C9486020C9486020C9486020C94860200
:100060000C9486020C9486020C9486020C948602F0
:100070000C9486020C9486020C9486020C948602E0
:100080000C9486020C9486020C948602D90EE00E23
:10009000E70ED20EB60EBD0ED90E160FCB0EB60E53
:1000A000BD0EC40EEE0EF50EFC0E030FC40EBD0EFB
:1000B000B60EE00E290F370FE00EE70ED20EB60E89
:1000C000BD0ED90E160FCB0EB60EBD0EC40EEE0E23
:1000D000F50EFC0E030FC40EBD0EB60ED20ECB0EE7
:1000E000B60E300F0A0F220F0A0F550F860F630F3F
:1000F0006A0F550F5C0F710F780FAE0FB50F4E0FD3
:10010000940F9B0FA70F4E0F8D0F7F0FDF0FCC0F9C
:10011000DF0FCC0FDF0FCC0F0010CC0F0010ED0F56
:10012000D80F0E10D80F2310F90FE60FCC0FE60FE3
:10013000CC0FE60FCC0F0710CC0F0710ED0F1510EA
:100140001C10CC0FD80F2A10F90F4C15401539157B
:100150002D1526151A1513150C150515FE14F21478
:10016000EB14E414D814D114C514BE14B214AB1497
:100170009F14981491148A148314771470146914BA
:1001800062145B144F1448143C1435142E142714B5
:100190001B14141408140114F513EE13E213DB13EB
:1001A000CF13C813BC13B513AE13A713A013941326
:1001B0008D1386137F1378136C1365135913521321
:1001C0004B134413381331132A1323131C13101326
:1001D0000913FD12F612EF12E812DC12D512CE123C
:1001E000C712BB12B412AD12A6129F1293128C1238
:1001F000801279126D1266125A125312471240126F
:10020000391232122B121F1218120C120512FE1183
:10021000F711EB11E411DD11D611CA11C311B71199
:10022000B011A4119D1191118A117E1177116B11DA
:100230006411581151114A1143113C113011291107
:10024000221116110F110311FC10F010E910DD102E
:10025000D610CF10C810BC10B510A910A21096105F
:100260008F1083107C1075106E1067105B10541087
:100270004D1041106A15921563158B15E415DD15A7
:10028000631592157D1571152F1663156A158B155B
:1002900063151A16631599156A15B5157D1571152F
:1002A000AE1544169915CF150C16F915CF15D615A0
:1002B00063156A158B156315501671159215631524
:1002C00099156A15B5157D1571151316BC15C81548
:1002D0008415A015A7158415F21521162816BC152E
:1002E000C8158415A015A7153D16EB15AE153616C5
:1002F0000016831691167C16A6166E1675166E16C7
:100300007516AD16831691167C16A6168A166716F4
:100310008A166716DA161017CE160917CE16561754
:10032000E8166716E1166716FD16981648176E163A
:100330003A17B4163317BB164117F6169F169816C0
:100340001E17C216831691167C16A6166E16751603
:100350006E167516AD16831617179F167C168A161D
:1003600067168A166716DA162517EF16AD162C17BC
:10037000E116B416BB1698169F164F17C2166E617B
:100380006E00696E66006364696E6F70737578588D
:100390005B65666745464700616E006E66696E691B
:1003A000747900CDCCCC3D0AD7233C17B7D1387730
:1003B000CC2B329595E6241FB14F0A000020410056
:1003C00000C84200401C4620BCBE4CCA1B0E5AAEA0
:1003D000C59D7400407A10F35A00A0724E180900AF
:1003E00010A5D4E80000E87648170000E40B54029A
:1003F0000000CA9A3B000000E1F5050000809698D5
:1004000000000040420F000000A086010000001024
:100410002700000000E80300000000640000000066
:10042000000A00000000000100000000002C76D847
:1004300088DC674F0823DFC1DFAE59E1B1B796E52D
:10044000E3E453C63AE651997696E8E6C28426EB91
:10045000898C9B62ED407C6FFCEFBC9C9F40F2BAA4
:10046000A56FA5F490055A2AF75C936B6CF9676D3C
:10047000C11BFCE0E40D47FEF520E6B500D0ED9091
:100480002E0300943577050080841E080000204E5E
:100490000A000000C80C333333330F986E128311F7
:1004A00041EF8D2114893BE65516CFFEE6DB18D1CE
:1004B000844B381BF77C1D901DA4BBE424203284A0
:1004C000725E228100C9F124ECA1E53D27001124D0
:1004D0001FBECFEFD0E1DEBFCDBF11E0A0E0B1E0A5
:1004E000EAE7F6E400E00BBF02C007900D92AA38DD
:1004F000B107D9F711E0AAE8B1E001C01D92A53D0E
:10050000B107E1F70E9486030C943B230C94000092
:1005100080B7886080BF87B7816087BF83B78160FD
:1005200083BF089585B5896685BD13BC08958DB1D7
:1005300080658DB9709A08953E9A86B1876A86B9AA
:10054000369A08959C0168EE73E00E94E520CB0185
:100550006AE070E00E94E520E82FC90164E670E0DF
:100560000E94E520CB016AE070E00E94E520482F60
:10057000C9016AE070E00E94E520CB016AE070E00A
:100580000E94E520F82FC9016AE070E00E94E52092
:10059000982F809192018130E1F08091860188232B
:1005A00061F4E093B4014093B3018FEF8093B20103
:1005B000F093B1019093B0010895E093B40140939A
:1005C000B30182E08093B201F093B1019093B00146
:1005D0000895EE2311F7442301F742E0E1E0DDCF77
:1005E00090E049B3FC01EE0FFF1FE056FE4F208163
:1005F0003181220F331F306E50E002C05595479570
:100600008A95E2F741705070242B352B318320837B
:1006100080E02050304F09F0089581E00895982F30
:1006200080918901882369F088B3806688BBC4986B
:100630009FB9779BFECF88B38F7888BB81E080938A
:1006400089010895EF92FF920F931F932CE330E0FE
:1006500040E050E00E942E2179018A01C9016CE33B
:1006600070E00E94E520CB0168E170E00E94E52087
:1006700024E630E0A901849F9001859F300D949F6E
:10068000300D1124C7016CE370E00E94E520280FB3
:10069000391FC9011F910F91FF90EF900895EF92BC
:1006A000FF920F931F932CE330E040E050E00E9454
:1006B0002E2179018A01C9016CE370E00E94E520D6
:1006C000CB016CE070E00E94E52024E630E0A90157
:1006D000849F9001859F300D949F300D1124C70198
:1006E0006CE370E00E94E520280F391FC9011F91BB
:1006F0000F91FF90EF9008951F920F920FB60F92F7
:1007000011240F900FBE0F901F9018950F931F93F9
:100710000E949D178FEF87BB81BB88E080936100AB
:1007200081E0809362008DB180658DB9709A80B749
:10073000886080BF87B7816087BF83B7816083BFD0
:1007400085B5896685BD13BC3E9A86B1876A86B930
:10075000369A0E94480A78941092CF011092CE01E6
:1007600010928F0110928E011092D4011092D30139
:1007700080918A0190918B0101E01FEF70C0809100
:100780006E0190916F01A0917001B0917101209163
:10079000720130917301409174015091750182177B
:1007A0009307A407B50709F4FBC0803861E59607F5
:1007B00061E0A60760E0B60764F080589145A1406B
:1007C000B04080936E0190936F01A0937001B0933D
:1007D0007101B7FDBCC0203881E5380781E04807CA
:1007E00080E0580784F0DA01C90180589145A140A2
:1007F000B0408093720190937301A0937401B09301
:1008000075019C01AD0157FD95C0E0918A01F09101
:100810008B01E055FE4F80810E9496091ABB1BBBDD
:1008200020918A012295207F98B3922B98BB98B390
:100830009077922398BB8BBB80919601882309F017
:100840006EC080919701882309F05EC080918A0173
:1008500090918B01019690938B0180938A0105976B
:1008600020F010928B0110928A01809190018823D0
:1008700021F480919101882399F480919201813033
:1008800009F472C060916E0170916F0180917001E6
:10089000909171010E9422030E94A2028091910115
:1008A000882389F080919201813009F46CC06091B5
:1008B00072017091730180917401909175010E9491
:1008C00022030E94A202809193018823B1F48091B7
:1008D0009401882309F053CF80916E0190916F01AC
:1008E000A0917001B091710120917201309173015A
:1008F000409174015091750158CF8091C901909138
:10090000CA010E94A202E3CF0E94C9090E94F9090C
:1009100086E791E00E94D00A1092970197CF0E943B
:10092000C9090E94E10985EB91E00E94D00A10926A
:10093000960187CF20583E4A4E4F5F4F2093720159
:100940003093730140937401509375015ECF8058CA
:100950009E4AAE4FBF4F80936E0190936F01A0935C
:100960007001B093710137CF60916E0170916F018A
:1009700080917001909171010E944F030E94A20228
:10098000809191018DCF609172017091730180917E
:100990007401909175010E944F030E94A20293CFAF
:1009A0000E9490170093950197CF1F920F920FB658
:1009B0000F920BB60F9211248F929F92AF92BF921B
:1009C000CF92DF92EF92FF920F931F932F933F935B
:1009D0004F935F936F937F938F939F93AF93BF9347
:1009E000EF93FF93DF93CF93CDB7DEB72897DEBFAA
:1009F000CDBF93E0998321E02A831B8282E08C8320
:100A00009D838E831F82288784B195B1A0E0B0E0DA
:100A10008093C9019093CA01A093CB01B093CC01FC
:100A200088329105A105B10508F037C288E290E04F
:100A3000A0E0B0E08093C9019093CA01A093CB01DC
:100A4000B093CC016091C9017091CA018091CB0132
:100A50009091CC0163517140804090406093C501FA
:100A60007093C6018093C7019093C80123E030E0E2
:100A700040E050E00E940C21205B23BD80918E015C
:100A800090918F01019690938F0180938E018091B8
:100A90008E0190918F0183709070892B49F4809121
:100AA000D3019091D40101969093D4018093D30106
:100AB00080918C0190918D018034910509F469C376
:100AC0008038910509F4FCC1019690938D018093C3
:100AD0008C0140919101442309F0DBC18091900188
:100AE000882309F0D6C11ABA8FEF8BBB88B3806513
:100AF00088BBC59885E38A95F1F729B38091A00159
:100B00009091A101880F991F906E30E02170307094
:100B1000822B932B9093A1018093A0018050904F42
:100B200009F4CEC289B32091A2013091A301220F12
:100B3000331F306E90E09595879581709070282BCB
:100B4000392B3093A3012093A2012050304F09F498
:100B50007FC289B32091A4013091A501220F331FD8
:100B6000306E90E0959587959595879581709070FA
:100B7000282B392B3093A5012093A4012050304F0E
:100B800009F468C389B32091A6013091A701220F0F
:100B9000331F306E90E0959587959595879595953F
:100BA000879581709070282B392B3093A701209363
:100BB000A6012050304F09F428C389B32091A80121
:100BC0003091A901220F331F306E90E095958795E3
:100BD0009595879595958795959587958170907052
:100BE000282B392B3093A9012093A8012050304F96
:100BF00009F4F1C289B32091AC013091AD01220F0B
:100C0000331F306E90E0082E892F000C881F990B3F
:100C1000000C881F991F81709070282B392B3093FE
:100C2000AD012093AC012050304F09F4B5C229B377
:100C30008091AE019091AF01880F991F906E30E0C6
:100C4000220F232F221F330B3195822B932B90934E
:100C5000AF018093AE018050904F09F4D2C188B3A8
:100C60008F7888BBC098C09A9FEF9FB98FB180934F
:100C70009B019FB9F3E0AF2EA822A0929F01ECE068
:100C8000BE2EB822B694B694B0929D0180909E017B
:100C9000A81409F43DC18981A81609F43CC340E0B9
:100CA0008E010F5F1F4F4F5FE42EFF2473E0C72EAE
:100CB000D12CCE20DF20F801EC0DFD1D8081A8167F
:100CC00091F7C701019764E070E00E94F920FC01F0
:100CD000E00FF11F8081881609F414C190908801FB
:100CE0008E010B5F1F4FC00ED11EF6018081A8162A
:100CF00059F04F5FE42EFF24F701E370F070E00F2E
:100D0000F11F8081A816A9F7C701019764E070E080
:100D10000E94F920080F191FD8018C91881609F438
:100D2000A8C2C0909C01BC1409F4FAC0242F30E082
:100D300063E0E62EF12CE222F3228E010F5F1F4FBB
:100D400008C04F5F242F30E053E0E52EF12CE22263
:100D5000F322F801EE0DFF1D8081B81691F7F9011D
:100D60003197CF0164E070E00E94F920080F191F4D
:100D7000D8018C91C81609F480C2D09087018E01E9
:100D80000B5F1F4FE00EF11ED7018C91B81669F072
:100D90004F5F242F30E0F901E370F070E00FF11F96
:100DA0008081B816A9F7F9013197CF0164E070E0AE
:100DB0000E94F920080F191FF8018081C81609F454
:100DC00062C2F7E09F1609F4B1C021E0921609F45F
:100DD000ADC187E0D81609F4DFC0A1E0DA1699F5B5
:100DE00084E080938701809190018823A1F0809115
:100DF0006E0190916F01A0917001B09171018051CD
:100E00009E40A040B04080936E0190936F01A093EC
:100E10007001B0937101809191018823A1F08091BC
:100E2000720190917301A0917401B091750180518C
:100E30009E40A040B0408093720190937301A093B4
:100E40007401B0937501A0929E01B0929C01289606
:100E5000DEBFCDBFCF91DF91FF91EF91BF91AF91F9
:100E60009F918F917F916F915F914F913F912F91C2
:100E70001F910F91FF90EF90DF90CF90BF90AF90B8
:100E80009F908F900F900BBE0F900FBE0F901F90F2
:100E9000189581E08093860126CE83559340A0402B
:100EA000B04008F4CFCD82E593E0A0E0B0E08093BD
:100EB000C9019093CA01A093CB01B093CC01C2CDDC
:100EC00011E01093860110928D0110928C01809197
:100ED0006E0190916F01A0917001B0917101019626
:100EE000A11DB11D80936E0190936F01A0937001BD
:100EF000B093710180919801882309F0C8C180E006
:100F000090E0E2CD909088019A9490928801E8CE8A
:100F100040E090908801C0909C01BC1409F006CF7D
:100F2000D0908701F7E09F1609F04FCF84E08093BF
:100F3000880180919001882399F080916E019091B1
:100F40006F01A0917001B0917101CC96A11DB11DEE
:100F500080936E0190936F01A0937001B093710123
:100F600080919101882309F434CF8091720190918E
:100F70007301A0917401B0917501CC96A11DB11DB2
:100F80008093720190937301A0937401B0937501E3
:100F900087E0D81609F021CF84E080938701809103
:100FA00090018823A1F080916E0190916F01A09132
:100FB0007001B0917101805F914FAF4FBF4F80932F
:100FC0006E0190936F01A0937001B09371018091B5
:100FD0009101882309F437CF8091720190917301B8
:100FE000A0917401B0917501805F914FAF4FBF4FD9
:100FF0008093720190937301A0937401B093750173
:1010000022CF809192018823D1F010929201909189
:1010100099019E7F9093990180918901882309F419
:101020001ECE88B3806688BBC4989FB9779BFECFDD
:1010300088B38F7888BB81E08093890110CE81E0EE
:101040008093920190919901916090939901E4CFDE
:1010500080919101882309F07CCD809193018823B0
:1010600009F077CD80919001882309F037C181E0A4
:101070008093900190919901906490939901A5EBD0
:10108000B1E0EFE1F1E080E101900D928150E1F7F4
:1010900081E08093960180918901882309F459CDDC
:1010A0001092890188B3806688BBC4989FB9779BEA
:1010B000FECF88B38F7888BB81E08093890149CDCA
:1010C00080919001882309F02DCD80919301882390
:1010D00009F028CD442309F0F0C081E0809391010C
:1010E00090919901906890939901A5EBB1E0E0E0AF
:1010F000F1E080E101900D928150E1F781E0809371
:10110000960180918901882309F40CCD1092890100
:1011100088B3806688BBC4989FB9779BFECF88B39D
:101120008F7888BB81E080938901FCCC84E0809338
:10113000880180919001882399F080916E019091AF
:101140006F01A0917001B0917101CC97A109B10913
:1011500080936E0190936F01A0937001B093710121
:1011600080919101882309F434CE8091720190918D
:101170007301A0917401B0917501CC97A109B109D7
:101180008093720190937301A0937401B0937501E1
:1011900020CE1092860198CC80919001882309F08E
:1011A00046CD80919101882309F041CD8091930132
:1011B000882309F0A4C081E080939301A5EBB1E0FE
:1011C000EAE5F1E080E101900D928150E1F781E0E4
:1011D000809396012CCD80919501882309F40ACD46
:1011E00080919401882309F405CD8AE080939801C9
:1011F000A6E7B1E0ECE4F1E080E101900D928150CE
:10120000E1F781E080939701F5CC809194018823E8
:1012100081F481E080939401A6E7B1E0E1E3F1E09D
:1012200080E101900D928150E1F781E08093970178
:10123000C4CC10929401A6E7B1E0EEE3F1E080E1C6
:1012400001900D928150E1F781E0809397010E9417
:101250008917B3CC80919A01882329F00E948917BD
:1012600010929A018FCC0E94901781E080939A018E
:1012700089CC93949092880154CDD0908701DA94D0
:10128000D09287017CCDD394D09287019ACD0E94D1
:10129000891780919801815080939801882341F4A7
:1012A00080919401882321F00E949017109395015A
:1012B00080918C0190918D0107CC109291019091B9
:1012C00099019F7790939901A5EBB1E0E2E1F1E0FC
:1012D00080E101900D928150E1F710CF10929001C2
:1012E000909199019F7B90939901A5EBB1E0E2E188
:1012F000F1E080E101900D928150E1F7C9CE1092AA
:101300009301A5EBB1E0E2E1F1E080E101900D9203
:101310008150E1F75CCF40E0EFEFFFEFEE24FF24D8
:10132000CC24DD248E010F5F1F4FD2CC8823A1F087
:101330008130A1F08230B1F08330B1F0843081F09F
:101340008530B1F08630B1F08730B1F0883071F07F
:101350008930A1F08FEF089580EC089589EF08950A
:1013600089E9089584EA089580EB089580E8089556
:1013700082E9089582E8089588EF089580E9089544
:10138000E2E6F0E08081886080838081877F8083CF
:101390000895779BFECF1FB8779BFECF81E08FB972
:1013A000779BFECF8091620088608093620080917D
:1013B0006200877F8093620080E49FE10197F1F7EC
:1013C0000895779BFECF1FB8779BFECF82E08FB941
:1013D000779BFECF8091620088608093620080914D
:1013E0006200877F8093620080E49FE10197F1F7BC
:1013F0000895779BFECF1FB8779BFECF80EC8FB907
:10140000779BFECF8091620088608093620080911C
:101410006200877F8093620080E49FE10197F1F78B
:101420000895779BFECF20E061E030E240E951E093
:101430006FB9779BFECF3FB9779BFECF809162005B
:1014400088608093620080916200877F8093620051
:10145000CA010197F1F72F5F203151F70895982FB6
:10146000779BFECF81E08FB9779BFECF9FB9779BAB
:10147000FECF80916200886080936200809162005C
:10148000877F8093620080E991E00197F1F70895EA
:1014900080E69AEE0197F1F720E030E340E65DE662
:1014A0001FB8779BFECF3FB9779BFECF809162003C
:1014B00088608093620080916200877F80936200E1
:1014C000CA010197F1F72F5F233051F71FB8779BBF
:1014D000FECF88E38FB9779BFECF80916200886052
:1014E0008093620080916200877F8093620080E237
:1014F0009EE40197F1F71FB8779BFECF88E08FB984
:10150000779BFECF8091620088608093620080911B
:101510006200877F8093620080E29EE40197F1F78A
:101520001FB8779BFECF81E08FB9779BFECF80916C
:10153000620088608093620080916200877F809360
:10154000620080E29EE40197F1F71FB8779BFECF1F
:1015500086E08FB9779BFECF809162008860809390
:10156000620080916200877F8093620080E29EE447
:101570000197F1F71FB8779BFECF8CE08FB9779B6F
:10158000FECF80916200886080936200809162004B
:10159000877F8093620080E29EE40197F1F70895CF
:1015A000AC01779BFECFDA010D900020E9F7A41B78
:1015B000B50B129720E0E0E0F0E091E060E971E027
:1015C0009FB9779BFECFE40FF51F80818FB9779B82
:1015D000FECF8091620088608093620080916200FB
:1015E000877F80936200FB013197F1F72F5FE22F35
:1015F000F0E0AE17BF0720F70895929A1092D40139
:101600001092D30190E09093D2018093D10108957C
:1016100092981092D4011092D30130E03093D2010D
:101620002093D101443009F4D0C0453078F04630E1
:1016300009F487C0463008F43FC0473009F46AC057
:10164000483009F450C01BBC1ABC0895413009F45D
:10165000A6C04130B0F4843409F428C2853408F4BB
:101660001FC1863409F470C1863408F465C187341B
:1016700061F7662309F48EC28DE195E19BBD8ABDB9
:101680000895423009F474C04330E9F6843409F413
:10169000EDC1853408F426C1863409F45AC1863474
:1016A00008F442C1873489F6662309F409C382EA43
:1016B00092E09BBD8ABD0895843409F471C18534DC
:1016C00008F421C1863409F435C2863408F4FEC119
:1016D000873409F0BACF662309F461C287EA90E043
:1016E0009BBD8ABD0895843409F445C1853408F44E
:1016F000E8C0863409F43AC1863408F42FC187342F
:1017000009F0A3CF662309F417C380E190E09BBDE5
:101710008ABD0895843409F46AC1853408F4AFC0E1
:10172000863409F426C2863408F4C8C1873409F027
:101730008CCF662309F483C289E290E09BBD8ABD09
:101740000895843409F4A2C1853408F487C086342E
:1017500009F4F5C1863408F4E0C1873409F075CF87
:10176000662309F47BC283E590E09BBD8ABD0895A2
:10177000843409F483C1853408F45FC0863409F4E5
:1017800031C1863408F426C1873409F05ECF662360
:1017900009F428C286E495E09BBD8ABD089584348F
:1017A00009F45CC18534C0F1863409F4A4C18634DF
:1017B00008F499C1873409F048CF662309F4FEC1C3
:1017C0008DE89AE09BBD8ABD0895843409F466C112
:1017D000853488F0863409F434C1863408F429C18C
:1017E000873409F032CF662309F424C280E591E002
:1017F0009BBD8ABD0895823409F4ABC1833408F0DF
:10180000A3C1813409F021CF662309F431C28BE2F0
:1018100091E09BBD8ABD0895823409F4A2C183344E
:1018200008F05CC1813409F010CF662309F42AC2A4
:1018300087E699E09BBD8ABD0895823409F49EC174
:10184000833408F072C1813409F0FFCE662309F4B5
:10185000E7C182EB94E09BBD8ABD0895823409F410
:10186000DBC0833408F0B1C0813409F0EECE6623CA
:1018700009F4BDC18AE490E09BBD8ABD089582341D
:1018800009F4C2C0833408F0BAC0813409F0DDCE57
:10189000662309F41FC284E290E09BBD8ABD0895CF
:1018A000823409F4D3C0833408F0BEC0813409F017
:1018B000CCCE662309F409C28EEC92E19BBD8ABDB1
:1018C0000895823409F464C0833408F05CC0813424
:1018D00009F0BBCE662309F411C28BE090E09BBDFA
:1018E0008ABD0895823409F410C1833408F008C118
:1018F000813409F0AACE662309F46AC188E592E032
:101900009BBD8ABD0895823409F457C0833408F022
:101910004FC0813409F099CE662309F4F9C185E9F5
:1019200090E09BBD8ABD0895662309F4FBC182E265
:1019300093E09BBD8ABD0895662309F4F8C189E14F
:1019400099E19BBD8ABD08958DE596E19BBD8ABD59
:1019500008958AEC92E09BBD8ABD0895662309F440
:10196000F0C188E190E09BBD8ABD089582E190E0DE
:101970009BBD8ABD0895662309F4C5C18BE190E043
:101980009BBD8ABD08958CE190E09BBD8ABD089502
:10199000662309F4C2C187E090E09BBD8ABD08952B
:1019A000662309F4A1C180EE90E09BBD8ABD089535
:1019B0008DEE90E09BBD8ABD0895662309F41CC19D
:1019C00085E890E09BBD8ABD089586E790E09BBDC9
:1019D0008ABD0895662309F48CC186E496E09BBD18
:1019E0008ABD089586E995E09BBD8ABD089566236A
:1019F00009F475C187E390E09BBD8ABD08958AE331
:101A000090E09BBD8ABD0895662309F4FAC080E288
:101A100090E09BBD8ABD0895662309F44CC182E421
:101A200090E09BBD8ABD08958CED9DE19BBD8ABD74
:101A30000895662309F43AC180E991E09BBD8ABD0F
:101A4000089584E691E09BBD8ABD0895662309F45C
:101A50001EC180EC90E19BBD8ABD0895662309F408
:101A6000B2C086E19EE09BBD8ABD0895662309F45D
:101A7000DCC084E893E09BBD8ABD0895662309F429
:101A8000F2C08AE097E09BBD8ABD0895662309F401
:101A9000F4C08FE690E09BBD8ABD0895662309F4EB
:101AA0009CC081EC91E09BBD8ABD0895662309F43A
:101AB000CBC080E39CE19BBD8ABD0895662309F4F9
:101AC00073C081E390E09BBD8ABD0895662309F44D
:101AD000E3C087EC90E09BBD8ABD08958DEE9EE04B
:101AE0009BBD8ABD0895662309F44FC08DE89CE034
:101AF0009BBD8ABD08958EE29BE09BBD8ABD089583
:101B00008AEB93E09BBD8ABD0895662309F47EC0ED
:101B100087E192E09BBD8ABD0895662309F47BC0EE
:101B200083E690E09BBD8ABD089586E797E09BBD64
:101B30008ABD089581EB90E09BBD8ABD089588E53C
:101B400090E09BBD8ABD08958CED91E09BBD8ABD60
:101B50000895662309F4A5C08BE091E09BBD8ABD82
:101B60000895662309F475C080E698E09BBD8ABDA0
:101B700008958BE290E09BBD8ABD08956623C9F06D
:101B80008FE294E09BBD8ABD089588ED9BE09BBDEC
:101B90008ABD08958DEE93E19BBD8ABD08958EE9BF
:101BA00090E09BBD8ABD08958EE290E09BBD8ABD0A
:101BB000089583EF93E09BBD8ABD089586EF99E079
:101BC0009BBD8ABD08958CE49DE09BBD8ABD0895B0
:101BD00087E392E09BBD8ABD089588EA91E09BBDB2
:101BE0008ABD08958AEF94E09BBD8ABD089586E47E
:101BF00090E09BBD8ABD08958DE790E09BBD8ABDB6
:101C000008958EE190E09BBD8ABD089589EF91E033
:101C10009BBD8ABD08958DE590E09BBD8ABD08956A
:101C20008FE694E09BBD8ABD089582E593E09BBD5D
:101C30008ABD08958DE391E09BBD8ABD089586E23B
:101C400090E09BBD8ABD08958AE99AE19BBD8ABD5B
:101C5000089587EE97E09BBD8ABD08958EE490E0DD
:101C60009BBD8ABD089585EA96E09BBD8ABD089517
:101C70008BE191E09BBD8ABD089589E690E09BBD14
:101C80008ABD08958FED98E09BBD8ABD089580EDD3
:101C90009FE09BBD8ABD08958CEB90E09BBD8ABD03
:101CA00008958CEF90E09BBD8ABD08958AE791E08E
:101CB0009BBD8ABD08958EE390E09BBD8ABD0895CB
:101CC0008CE792E09BBD8ABD089580EC91E19BBDBD
:101CD0008ABD089582E290E09BBD8ABD089584E3A9
:101CE00090E09BBD8ABD089583ED90E09BBD8ABDC9
:101CF00008958BEE95E09BBD8ABD089589E090E044
:101D00009BBD8ABD089589E190E09BBD8ABD089581
:101D10008DE890E09BBD8ABD089585E090E09BBD75
:101D20008ABD089585EF92E09BBD8ABD089582EB40
:101D300097E19BBD8ABD08958DE090E09BBD8ABD73
:101D4000089585E190E09BBD8ABD0895FC018F3226
:101D5000910520F08FEF8093CD010895EA5BFF4F4E
:101D6000EE0FFF1F0590F491E02D099483E460E0ED
:101D700043E028E00E94080B089581E460E042E01F
:101D800028E00E94080B089586E460E042E028E025
:101D90000E94080B089584E460E043E028E00E947C
:101DA000080B089585E460E043E028E00E94080BFA
:101DB000089584E460E043E020E10E94080B089568
:101DC00085E460E043E020E10E94080B089586E48A
:101DD00060E043E028E00E94080B089587E460E09B
:101DE00042E028E00E94080B089581E460E042E0B0
:101DF00020E10E94080B089587E460E042E020E1C2
:101E00000E94080B089585E460E042E028E00E940B
:101E1000080B0895929A1092D4011092D30182E097
:101E200090E09093D2018093D1010895929A1092FC
:101E3000D4011092D30188E090E09093D201809376
:101E4000D101089584E460E043E02EE10E94080B94
:101E5000089586E460E043E020E10E94080B0895C5
:101E600084E460E043E026E00E94080B089583E4E8
:101E700060E043E020E30E94080B0895FC018131FB
:101E8000910520F08FEF8093CD010895EB58FF4F1F
:101E9000EE0FFF1F0590F491E02D099481E460E0BE
:101EA00044E024E00E94080B089582E460E043E0EF
:101EB00028E00E94080B089587E461E044E028E0F0
:101EC0000E94080B089587E461E044E02CE00E9442
:101ED000080B089587E460E044E020E10E94080BCD
:101EE000089584E460E044E020E30E94080B089534
:101EF00081E460E043E02CE00E94080B089585E453
:101F000060E044E020E50E94080B089585E460E06D
:101F100044E02CE00E94080B089581E461E044E075
:101F200024E00E94080B089582E460E044E02AE087
:101F30000E94080B0895929A1092D4011092D30136
:101F400082E090E09093D2018093D101089582E4E1
:101F500060E044E02CE00E94080B089582E460E019
:101F600043E024E00E94080B089585E460E044E02B
:101F700024E00E94080B0895FC018F31910520F0A8
:101F80008FEF8093CD010895EA57FF4FEE0FFF1FAB
:101F90000590F491E02D0994929A1092D401109238
:101FA000D30181E090E09093D2018093D101089514
:101FB00085E460E045E024E00E94080B089585E494
:101FC00060E044E027E00E94080B089585E461E0AA
:101FD00044E027E00E94080B0895929A1092D401E1
:101FE0001092D30185E090E09093D2018093D101CB
:101FF000089585E460E045E028E00E94080B08951C
:1020000085E460E044E023E00E94080B089585E445
:1020100061E044E023E00E94080B089587E461E05A
:1020200045E024E00E94080B089585E461E045E066
:1020300024E00E94080B089585E460E045E023E079
:102040000E94080B089587E460E045E028E00E94C4
:10205000080B089587E461E045E028E00E94080B42
:102060000895FC018539910520F08FEF8093CD0113
:102070000895EB55FF4FEE0FFF1F0590F491E02DF3
:102080000994929A1092D4011092D30188E090E0C2
:102090009093D2018093D101089587E460E043E0FA
:1020A00024E00E94080B089581E460E043E022E010
:1020B0000E94080B0895929A1092D4011092D301B5
:1020C00082E090E09093D2018093D101089583E45F
:1020D00060E044E022E00E94080B089585E460E09F
:1020E00044E022E00E94080B089584E460E044E0AC
:1020F00024E00E94080B089583E460E044E022E0BD
:102100000E94080B0895929A1092D4011092D30164
:1021100082E090E09093D2018093D101089583E40E
:1021200060E044E022E00E94080B0895929A109229
:10213000D4011092D30182E090E09093D201809379
:10214000D101089583E460E044E022E00E94080B9E
:102150000895929A1092D4011092D30181E090E0F8
:102160009093D2018093D101089583E460E044E02C
:1021700022E00E94080B0895929A1092D4011092C6
:10218000D30180E190E09093D2018093D101089532
:1021900085E460E044E022E00E94080B089584E4B6
:1021A00060E044E022E00E94080B089583E460E0D0
:1021B00044E022E00E94080B0895929A1092D40104
:1021C0001092D30182E090E09093D2018093D101EC
:1021D000089583E460E044E022E00E94080B089543
:1021E000929A1092D4011092D30182E090E09093E1
:1021F000D2018093D101089583E460E044E022E0BD
:102200000E94080B0895929A1092D4011092D30163
:1022100081E090E09093D2018093D101089583E40E
:1022200060E044E022E00E94080B0895929A109228
:10223000D4011092D30184E090E09093D201809376
:10224000D101089587E460E043E024E00E94080B98
:10225000089581E460E043E022E00E94080B0895C5
:10226000929A1092D4011092D30182E090E0909360
:10227000D2018093D101089583E460E044E022E03C
:102280000E94080B089585E460E044E022E00E948B
:10229000080B089584E460E044E024E00E94080B09
:1022A000089583E460E044E022E00E94080B089572
:1022B000929A1092D4011092D30182E090E0909310
:1022C000D2018093D101089583E460E044E022E0EC
:1022D0000E94080B0895929A1092D4011092D30193
:1022E00082E090E09093D2018093D101089583E43D
:1022F00060E044E022E00E94080B0895929A109258
:10230000D4011092D30181E090E09093D2018093A8
:10231000D101089583E460E044E022E00E94080BCC
:102320000895929A1092D4011092D3018AE090E01D
:102330009093D2018093D101089583E460E044E05A
:1023400024E00E94080B0895929A1092D4011092F2
:10235000D30184E090E09093D2018093D10108955D
:1023600084E460E044E022E00E94080B0895929A21
:102370001092D4011092D30182E090E09093D201A8
:102380008093D101089585E461E044E024E00E9457
:10239000080B0895929A1092D4011092D30184E010
:1023A00090E09093D2018093D101089584E460E09D
:1023B00044E022E00E94080B089583E460E044E0DA
:1023C00022E00E94080B089581E460E043E022E0EF
:1023D0000E94080B0895929A1092D4011092D30192
:1023E00082E090E09093D2018093D101089583E43C
:1023F00060E044E022E00E94080B089581E460E080
:1024000043E022E00E94080B089581E461E043E08C
:1024100022E00E94080B0895929A1092D401109223
:10242000D30182E090E09093D2018093D10108958E
:1024300085E460E044E022E00E94080B0895929A4F
:102440001092D4011092D30182E090E09093D201D7
:102450008093D101089585E461E044E022E00E9488
:10246000080B089586E460E044E022E00E94080B37
:10247000089587E461E044E022E00E94080B08959B
:1024800087E460E044E022E00E94080B0895929AFD
:102490001092D4011092D30188E090E09093D20181
:1024A0008093D101089587E460E044E024E00E9435
:1024B000080B0895929A1092D4011092D30181E0F2
:1024C00090E09093D2018093D101089587E460E079
:1024D00044E021E00E94080B0895929A1092D401E2
:1024E0001092D30182E090E09093D2018093D101C9
:1024F000089587E460E044E022E00E94080B08951C
:10250000929A1092D4011092D30182E090E09093BD
:10251000D2018093D101089585E460E043E022E098
:102520000E94080B0895929A1092D4011092D30140
:1025300082E090E09093D2018093D101089585E4E8
:1025400061E043E022E00E94080B089586E460E029
:1025500043E022E00E94080B089587E461E043E035
:1025600022E00E94080B089587E460E043E022E047
:102570000E94080B0895929A1092D4011092D301F0
:1025800084E090E09093D2018093D101089584E497
:1025900060E044E022E00E94080B089583E460E0DC
:1025A00044E022E00E94080B089581E460E043E0EB
:1025B00022E00E94080B0895929A1092D401109282
:1025C000D30182E090E09093D2018093D1010895ED
:1025D00083E460E044E022E00E94080B089581E477
:1025E00060E043E022E00E94080B089581E461E08E
:1025F00043E022E00E94080B0895929A1092D401C1
:102600001092D30182E090E09093D2018093D101A7
:10261000089585E460E044E022E00E94080B0895FC
:10262000929A1092D4011092D30182E090E090939C
:10263000D2018093D101089585E461E044E022E075
:102640000E94080B089586E460E044E022E00E94C6
:10265000080B089587E461E044E022E00E94080B43
:10266000089587E460E044E022E00E94080B0895AA
:10267000929A1092D4011092D30188E090E0909346
:10268000D2018093D101089582E460E043E022E02A
:102690000E94080B089584E460E044E022E00E9478
:1026A000080B089583E460E044E022E00E94080BF8
:1026B0000895929A1092D4011092D30182E090E092
:1026C0009093D2018093D101089585E460E044E0C5
:1026D00022E00E94080B0895929A1092D401109261
:1026E000D30182E090E09093D2018093D1010895CC
:1026F00087E460E044E022E00E94080B089586E44D
:1027000060E044E022E00E94080B089581E460E06C
:1027100044E024E00E94080B089587E460E044E070
:1027200022E00E94080B0895929A1092D401109210
:10273000D30181E090E09093D2018093D10108957C
:1027400085E460E044E022E00E94080B089587E4FD
:1027500060E043E023E00E94080B089581E460E01C
:1027600043E024E00E94080B089582E461E043E026
:1027700022E00E94080B0895929A1092D4011092C0
:10278000D30182E090E09093D2018093D10108952B
:1027900082E460E043E022E00E94080B0895929AF0
:1027A0001092D4011092D30182E090E09093D20174
:1027B0008093D101089581E460E043E022E00E942B
:1027C000080B0895929A1092D4011092D30182E0DE
:1027D00090E09093D2018093D101089585E460E068
:1027E00043E024E00E94080B0895929A1092D401CD
:1027F0001092D30183E090E09093D2018093D101B5
:10280000089587E460E043E022E00E94080B089509
:10281000929A1092D4011092D30182E090E09093AA
:10282000D2018093D101089583E460E044E025E083
:102830000E94080B0895929A1092D4011092D3012D
:1028400084E090E09093D2018093D101089582E4D6
:1028500060E043E022E00E94080B089584E460E019
:1028600044E022E00E94080B089583E460E044E025
:1028700022E00E94080B0895929A1092D4011092BF
:10288000D30182E090E09093D2018093D10108952A
:1028900085E460E044E022E00E94080B0895929AEB
:1028A0001092D4011092D30182E090E09093D20173
:1028B0008093D101089587E460E044E022E00E9423
:1028C000080B089586E460E044E022E00E94080BD3
:1028D000089581E460E044E024E00E94080B08953C
:1028E00087E460E044E022E00E94080B0895929A99
:1028F0001092D4011092D30181E090E09093D20124
:102900008093D101089585E460E044E022E00E94D4
:10291000080B089587E460E043E023E00E94080B81
:10292000089581E460E043E024E00E94080B0895EC
:1029300082E461E043E022E00E94080B0895929A4D
:102940001092D4011092D30182E090E09093D201D2
:102950008093D101089582E460E043E022E00E9488
:10296000080B0895929A1092D4011092D30182E03C
:1029700090E09093D2018093D101089581E460E0CA
:1029800043E022E00E94080B0895929A1092D4012D
:102990001092D30182E090E09093D2018093D10114
:1029A000089585E460E043E024E00E94080B089568
:1029B000929A1092D4011092D30184E090E0909307
:1029C000D2018093D101089587E460E043E022E0E2
:1029D0000E94080B089583E460E044E025E00E9433
:1029E000080B0895929A1092D4011092D30188E0B6
:1029F00090E09093D2018093D101089587E460E044
:102A000042E028E00E94080B089587E460E044E07B
:102A100028E00E94080B089585E460E044E024E08B
:102A20000E94080B089583E460E044E022E00E94E5
:102A3000080B0895929A1092D4011092D30182E06B
:102A400090E09093D2018093D101089585E460E0F5
:102A500044E022E00E94080B0895929A1092D4015B
:102A60001092D30181E090E09093D2018093D10144
:102A7000089585E460E044E023E00E94080B089597
:102A8000929A1092D4011092D30181E090E0909339
:102A9000D2018093D101089585E460E044E021E013
:102AA0000E94080B0895FC018F33910520F08FEFF1
:102AB0008093CD010895E65CFE4FEE0FFF1F059059
:102AC000F491E02D099483E460E044E024E00E9466
:102AD000080B089585E460E044E028E00E94080BBC
:102AE0000895929A1092D4011092D30181E090E05F
:102AF0009093D2018093D101089581E460E043E096
:102B000027E00E94080B089583E460E043E020E1A1
:102B10000E94080B089584E460E044E024E00E94F1
:102B2000080B089582E460E043E024E00E94080B73
:102B3000089584E460E044E028E00E94080B0895D2
:102B400084E460E043E020E10E94080B089582E401
:102B500060E042E020E10E94080B089581E460E01B
:102B600043E020E10E94080B089583E460E044E024
:102B700028E00E94080B0895929A1092D4011092B6
:102B8000D30188E090E09093D2018093D101089521
:102B900085E460E043E020E10E94080B089586E4AC
:102BA00060E044E024E00E94080B089585E460E0C2
:102BB00044E02CE00E94080B089584E460E044E0C7
:102BC00022E00E94080B089585E460E044E022E0E2
:102BD0000E94080B089585E460E043E028E00E942D
:102BE000080B089581E460E042E020E10E94080BB8
:102BF000089587E460E044E024E00E94080B089513
:102C0000929A1092D4011092D30180E190E09093B7
:102C1000D2018093D101089581E460E044E028E08E
:102C20000E94080B089581E460E043E028E00E94E0
:102C3000080B089582E460E043E02CE00E94080B5A
:102C4000089581E461E042E020E10E94080B0895CC
:102C500082E460E042E028E00E94080B089581E4ED
:102C600060E043E024E00E94080B089581E461E005
:102C700043E020E10E94080B089583E460E043E014
:102C800028E00E94080B0895929A1092D4011092A5
:102C9000D30184E090E09093D2018093D101089514
:102CA00082E460E043E027E00E94080B0895FC0105
:102CB0008634910520F08FEF8093CD010895E75879
:102CC000FE4FEE0FFF1F0590F491E02D099481E473
:102CD00060E044E022E00E94080B089581E460E097
:102CE00044E026E00E94080B089581E461E044E09E
:102CF00022E00E94080B089584E460E044E028E0AC
:102D00000E94080B089586E460E044E028E00E94F9
:102D1000080B089582E461E044E026E00E94080B7D
:102D2000089585E460E044E028E00E94080B0895DF
:102D300081E460E044E028E00E94080B089587E405
:102D400060E044E028E00E94080B089583E460E01E
:102D500044E028E00E94080B089581E460E044E02C
:102D600020E10E94080B089583E460E045E024E040
:102D70000E94080B089584E460E045E024E00E948E
:102D8000080B0895929A1092D4011092D30188E012
:102D900090E09093D2018093D1010895929A10927D
:102DA000D4011092D30181E090E09093D2018093FE
:102DB000D101089582E461E044E020E10E94080B23
:102DC000089582E461E044E028E00E94080B089541
:102DD00087E460E044E026E00E94080B089584E464
:102DE00060E045E020E10E94080B089581E460E086
:102DF00044E024E00E94080B0895929A1092D401B6
:102E00001092D30182E090E09093D2018093D1019F
:102E1000089587E460E044E027E00E94080B0895ED
:102E200087E460E044E023E00E94080B089587E413
:102E300061E044E028E00E94080B089587E460E028
:102E400044E028E10E94080B089584E460E044E037
:102E500020E10E94080B089583E460E045E020E152
:102E60000E94080B089584E461E045E024E00E949C
:102E7000080B089582E461E044E022E00E94080B20
:102E8000089582E460E044E028E00E94080B089581
:102E900081E461E044E024E00E94080B089586E4A8
:102EA00060E044E028E10E94080B089587E461E0B7
:102EB00044E024E00E94080B0895823029F1833019
:102EC00048F08430E1F0843070F4862F90E00E9466
:102ED000BC0F0895882349F0813039F4862F90E0A3
:102EE0000E9453150895853029F0862F90E00E94A6
:102EF00057160895862F90E00E94A60E0895862FFB
:102F000090E00E943E0F0895862F90E00E943110BD
:102F100008951092CD018EB58C7F8EBD929A089542
:102F20001092CD018EB583608EBD92988091D001B4
:102F30006091CD010E945D17089587B7806187BFBA
:102F40001FBC8EB588608EBD10927A0081E390E040
:102F50009BBD8ABD1092CD018EB58C7F8EBD929A9D
:102F60001092D4011092D3011092D2011092D1018B
:102F70001092CD0185E08093D00108951F920F92A9
:102F80000FB60F920BB60F9211242F933F934F93CE
:102F90005F936F937F938F939F93AF93BF93EF93C1
:102FA000FF9382B3805882BB2091D3013091D4012A
:102FB0008091D1019091D2012817390758F0809162
:102FC000CD018F5F8093CD018091D0016091CD01C3
:102FD0000E945D17FF91EF91BF91AF919F918F91EB
:102FE0007F916F915F914F913F912F910F900BBE09
:102FF0000F900FBE0F901F9018952F923F924F92F7
:103000005F926F927F928F929F92AF92BF92CF9278
:10301000DF92EF92FF920F931F93DF93CF93CDB781
:10302000DEB761970FB6F894DEBF0FBECDBF3C018F
:103030007F876E876A01FC0117821682838181FD7A
:1030400003C06FEF7FEF71C39E012F5F3F4F398B3E
:10305000288BF3012381EE85FF8523FD859123FFD6
:103060008191FF87EE87882309F45CC3853251F490
:10307000EE85FF8523FD859123FF8191FF87EE87F4
:10308000853229F490E0B3010E949422E2CF982F78
:1030900010E0882499241032B0F49B3269F09C32FD
:1030A00028F4903251F0933271F40BC09D3239F014
:1030B000903349F4116028C01260146025C0186074
:1030C00023C0106121C017FD2AC0892F80538A3088
:1030D00078F416FF06C0FAE09F9E902C1124980EFB
:1030E00013C03AE0839E802C1124880E10620CC01D
:1030F0009E3221F416FD16C3106406C09C3611F4EE
:10310000106802C0983659F4EE85FF8523FD95912D
:1031100023FF9191FF87EE87992309F0BCCF892F78
:103120008554833020F4812F8061905E07C0892F01
:103130008556833008F0A1C1812F8F7E86FD02C0A5
:1031400076E0972E6FE3F62EF822953619F4F0E428
:10315000FF2A07C0963619F420E8F22A02C091101F
:103160009A94F7FE0BC03BE3391520F427E05CE3AB
:10317000B52E0EC0B92CB39427E00AC047E049151C
:1031800028F427E0BB2447E0942E02C0292DBB245D
:10319000C60104969D878C87F601608171818281CA
:1031A0009381AE014F5F5F4F0B2D0E9449216C014F
:1031B0000981202E332400FF04C003FD02C01DE25C
:1031C00009C0F1FE02C01BE205C0F2FC02C010E023
:1031D00001C010E2C1018C709070892BB9F11123EC
:1031E00011F483E001C084E0881510F088240AC03F
:1031F000881AF3FC07C080E290E0B3010E94942299
:103200008A94C9F7112329F0812F90E0B3010E941D
:10321000942223FE03C00EE713E00EC002E813E081
:103220000BC0E114F10409F0805290E0B3010E9458
:1032300094220F5F1F4F05C0EF2CFF24F0E1EF2217
:10324000FF24F8018491882361F714C1F7FE12C0AE
:10325000BC0C24FE04C08A81813309F4BA941B1487
:103260001CF0BB24B3942DC0F8E0FB1550F538E0FA
:10327000B32E27C0F6FC25C0892D90E08C159D0546
:103280004CF02CEFC2162FEFD20624F030E8F32AD0
:1032900001C09A94992049F0E2E0F0E0EC0FFD1FA4
:1032A000E90DF11D80818033A1F3F7FE0AC0B92C2E
:1032B000B394892D90E0C816D90614F0992401C062
:1032C0009C18F7FC03C025E030E009C01C141D0465
:1032D0001CF021E030E003C096012F5F3F4F112327
:1032E00011F02F5F3F4F992029F0892D90E0019632
:1032F000280F391F882D90E02817390714F08824EB
:1033000001C0821A4F2C5524C20189709070892BFC
:1033100039F008C080E290E0B3010E9494228A94C0
:103320008820C1F7112329F0812F90E0B3010E947A
:10333000942243FE07C008C080E390E0B3010E94DE
:1033400094228A948820C1F7F7FE46C08601D7FEF2
:1033500002C000E010E076010894E11CF11CE01AC4
:10336000F10A41E050E04C0F5D1FE40EF51E26010E
:103370004B185108892D90E0AA24BB24A81AB90A39
:103380005FEF0F3F150729F48EE290E0B3010E9432
:103390009422C016D10634F0401651061CF4F701F1
:1033A000808101C080E3015010400894E11CF11CB1
:1033B0000A151B052CF090E0B3010E949422E0CF87
:1033C0000C151D0539F49A81963318F4953311F4D0
:1033D00024FE81E390E04BC08A81813309F00F7EA7
:1033E00090E0B3010E9494229920A1F08EE290E037
:1033F000B3010E94942212E0E1E0F0E0EC0FFD1F27
:10340000E10FF11D1F5F808190E0B3010E949422C3
:103410009A9491F744FC03C085E690E002C085E4ED
:1034200090E0B3010E949422D7FC05C0C114D104DE
:1034300041F404FF06C0D094C194D108D3948DE226
:1034400001C08BE290E0B3010E94942280E305C0AA
:103450008F5F26EF3FEFC20ED31E3AE0C316D104B2
:10346000BCF790E0B3010E949422C601C096B3015C
:103470000E949422CC84DD8452C1933631F093377C
:1034800099F0933509F059C023C0F60180818983F2
:103490005E010894A11CB11C22E030E0C20ED31ED4
:1034A00021E0E22EF12C12C0F601A080B18016FDC1
:1034B00003C06FEF7FEF02C0692D70E022E030E0C3
:1034C000C20ED31EC5010E9447227C011F7713C084
:1034D000F601A080B18016FD03C06FEF7FEF02C040
:1034E000692D70E022E030E0C20ED31EC5010E94BB
:1034F0003C227C01106813FF07C01BC080E290E0F3
:10350000B3010E9494228A94882D90E0E816F9066F
:10351000A8F30FC0F50117FD859117FF81915F0199
:1035200090E0B3010E94942281108A940894E108EB
:10353000F108E114F10471F7F2C0943611F09936F4
:1035400089F517FF08C0F60120813181428153813E
:1035500084E090E00AC0F601808191819C014427BB
:1035600037FD4095542F82E090E0C80ED91E9FE6AB
:10357000F92EF12257FF09C05095409530952195BD
:103580003F4F4F4F5F4F90E8F92ACA01B901AE0192
:103590004F5F5F4F2AE030E00E94DA22E82EE88990
:1035A000EE1A41C0953721F41F7E2AE030E01CC09E
:1035B000197F9F3661F0903720F4983509F0B2C03A
:1035C0000FC0903739F0983709F0ACC004C028E03C
:1035D00030E00AC0106114FD146020E130E004C046
:1035E00014FD166020E132E017FF08C0F60160818B
:1035F00071818281938144E050E008C0F6018081AE
:103600009181BC0180E090E042E050E0C40ED51E04
:10361000AE014F5F5F4F0E94DA22E82E5889E51A0B
:103620008FE7F82EF122F6FE0BC08EEFF822E91498
:1036300038F4F4FE07C0F2FC05C09FEEF92202C088
:103640001E2D01C0192DF4FE0DC0FE01EE0DF11D61
:103650008081803319F4E9EEFE2208C01F5FF2FE7C
:1036600005C003C08F2D867809F01F5F0F2DF3FC76
:1036700014C0F0FE0FC0181510F09E2C0BC09E2C2D
:10368000980C911A182D06C080E290E0B3010E94B8
:1036900094221F5F1815C0F304C0181510F4811A86
:1036A00001C0882404FF0FC080E390E0B3010E94B2
:1036B000942202FF1DC001FD03C088E790E00EC008
:1036C00088E590E00BC0802F867891F001FF02C062
:1036D0008BE201C080E2F7FC8DE290E0B3010E9432
:1036E000942206C080E390E0B3010E9494229A9451
:1036F000E914C0F3EA94E1E0F0E0EC0FFD1FEE0DF9
:10370000F11D808190E0B3010E949422EE2091F798
:1037100006C080E290E0B3010E9494228A9488203F
:10372000C1F797CCF30166817781CB0161960FB623
:10373000F894DEBF0FBECDBFCF91DF911F910F91E7
:10374000FF90EF90DF90CF90BF90AF909F908F90C1
:103750007F906F905F904F903F902F900895FC0165
:1037600020FD08C023FD05C022FF02C073836283D1
:10377000518340830895EF92FF920F931F9344FF6C
:1037800002C033E011C046FF02C034E00DC0DB01CF
:10379000FC01AA0FBB1FEE1FFF1F1094D1F76A0F89
:1037A0007B1F8E1F9F1F31E0660F771F881F991F99
:1037B0003150D1F77B018C01E20EF11C011D111D6E
:1037C000A8019701B701CA011F910F91FF90EF90D7
:1037D00008950F931F93CF93DF938C01C8010E942C
:1037E0005222EC0197FD08C00E942122892BB1F7DB
:1037F000CE01B8010E94C022CE01DF91CF911F916E
:103800000F9108958F929F92AF92BF92DF92EF92A5
:10381000FF920F931F93CF93DF935C01EB014A015B
:10382000122F0E945222AC018B3219F08D3251F4CA
:103830001068219709F46DC0C5010E945222AC01A5
:1038400097FD67C06DEFD62ED1228D2D807301F5C7
:103850004033F1F4219709F447C0C5010E94522278
:10386000AC0197FD41C082E0D82A483711F04835B5
:1038700059F480E4D82A2197B9F1C5010E94522257
:10388000AC0199232CF430C0D6FC02C080E1D82AC8
:10389000EE24FF248701242F2053283088F0D4FC05
:1038A00009C02A3068F0D6FE05C02F7D822F8151D5
:1038B000863028F0CA01B5010E94C02212C02750EC
:1038C000C801B7014D2D0E94BB1B7B018C0182E01A
:1038D000D82A219761F0C5010E945222AC0197FFBE
:1038E000DACFD1FC04C015C0EE24FF248701D7FE37
:1038F00008C010950095F094E094E11CF11C011DA6
:10390000111DC401B801A7012D2D0E94AF1B81E03C
:1039100001C080E0DF91CF911F910F91FF90EF9058
:10392000DF90BF90AF909F908F9008956F927F929D
:103930008F929F92AF92BF92CF92DF92EF92FF92BF
:103940000F931F93DF93CF93CDB7DEB7A0970FB63A
:10395000F894DEBF0FBECDBF5C016B018A01790117
:10396000FE01319680E2DF011D928A95E9F770E051
:1039700030E060E040E050E03F01A1E0B0E0F50160
:103980008381F70183FD259183FF21917F0122230C
:1039900009F481C02E3519F44115510569F1872FBD
:1039A00090E08417950744F42D3551F12D3221F420
:1039B000332329F431E021C0332309F4622F322F5D
:1039C000832F869586958695F301E80FF11D832F49
:1039D00087704D0102C0880C991C8A95E2F72081FE
:1039E00028292083361711F430E007C0361710F469
:1039F0003F5FE6CF3150E4CF71E04F5F5F4FBFCF05
:103A0000332319F08E8180628E83772359F0FE0173
:103A100031969E012F5D3F4F808180958193E21703
:103A2000F307D1F7992493943E010894611C711C0B
:103A3000C5010E945222AC0197FD25C0869586954E
:103A40008695F301E80FF11D808190E09A012770BF
:103A5000307002C0959587952A95E2F780FD05C0E4
:103A6000CA01B5010E94C0220EC00115110519F04E
:103A7000D8014D938D010894C108D1089924C1142F
:103A8000D104B1F602C0992031F40115110529F0D5
:103A9000F801108202C0EE24FF24C701A0960FB6E1
:103AA000F894DEBF0FBECDBFCF91DF911F910F9174
:103AB000FF90EF90DF90CF90BF90AF909F908F904E
:103AC0007F906F9008952F923F925F926F927F92B6
:103AD0008F929F92AF92BF92CF92DF92EF92FF921E
:103AE0000F931F93CF93DF933C017B011A010E9438
:103AF0005222EC018B3239F08D3211F0552411C075
:103B0000B0E85B2E01C055240894E108F108E114E7
:103B1000F10409F418C1C3010E945222EC0197FD7F
:103B200012C1CE010E9429228936910521F08E36DC
:103B3000910599F51DC00BE913E01CC00894E1083C
:103B4000F108E114F10471F0C3010E945222EC016A
:103B500097FD08C00E942922D81661F0CE01B3015A
:103B60000E94C02223E00E39120709F0ECC008C001
:103B700008E913E0F8010F5F1F4FD490DD20F1F644
:103B80000B59134029F080E090E0A0E8BFE7CFC0D8
:103B900080E090E0A0ECBFE7CAC0CC24DD248824FC
:103BA00099245401AE014053242F4A3038F552E095
:103BB000552A852D90E0AC014870507052FE06C029
:103BC000452B11F50894C11CD11C1EC0452B19F0C2
:103BD0000894C108D108C501B40140E20E94BB1B92
:103BE0004B015C0188E9881689E9980689E9A806ED
:103BF00089E1B80648F094E0592A06C04E3F81F4A6
:103C000053FC0EC0E8E05E2A0894E108F108E114D4
:103C1000F10431F0C3010E945222EC0197FFC2CFA0
:103C200051FE91C0C53619F0C53409F046C008945C
:103C3000E108F108E114F10409F485C0C3010E9410
:103C40005222EC0197FD7FC08B3221F08D3269F456
:103C5000F0E15F2A0894E108F108E114F10409F4A5
:103C600072C0C3010E945222EC01CE01C0970A9794
:103C700008F069C000E010E0B801882777FD809562
:103C8000982FAE014053242F40E20E94BB1B8B01B2
:103C90000894E108F108E114F10439F0C3010E942D
:103CA0005222EC01C0970A9738F3B80154FE03C0C2
:103CB000709561957F4FC60ED71EEF2831F0D7FD66
:103CC00004C0CE01B3010E94C022C501B4010E940C
:103CD000F41FD7FE0DC0A7EBEA2EA3E0FA2ED09476
:103CE000C194D108D394C0E2D0E000E010E00EC04F
:103CF000FFECEF2EF3E0FF2EF6CFF7012591359183
:103D0000459154910E943120CC1ADD0ACC16DD0673
:103D1000A0F7D695C7950F5F1F4F0630110529F004
:103D2000ECEFFFEFEE0EFF1EF1CFDC01CB0157FCF5
:103D3000B0582114310429F0F10180839183A283CA
:103D4000B38381E001C080E0DF91CF911F910F919B
:103D5000FF90EF90DF90CF90BF90AF909F908F90AB
:103D60007F906F905F903F902F9008955F926F9239
:103D70007F928F929F92AF92BF92CF92DF92EF92FB
:103D8000FF920F931F93CF93DF934C015B013A0196
:103D9000FC0117821682552403C1812F90E00E94F6
:103DA0002122892B21F0C4010E94E91BF9C01532A0
:103DB00049F4F501F3FC6591F3FE61915F01653211
:103DC00069F415E2C4010E94522297FDF5C018174C
:103DD00009F4E6C0B4010E94C022F3C06A3219F0AF
:103DE000162F00E006C0F3FC1591F3FE11915F0160
:103DF00001E0CC24DD240EC00260B60180E090E03A
:103E000040E20E94BB1B6B01F501F3FC1591F3FE30
:103E100011915F01212F20532A3070F301FD04C05E
:103E2000CC24CA94DC2C04C0C114D10409F4C9C048
:103E3000183621F01C3691F4F5010AC0F501F3FCA7
:103E40006591F3FE6191683611F0162F06C0086087
:103E50000460F3FC1591F3FE11915F01112309F445
:103E6000B0C086E893E0612F70E00E943122892B78
:103E700009F4A7C0802F00FF03C0EE24FF2407C071
:103E8000F301E080F18022E030E0620E731E1E3606
:103E900051F4F4014681578160E070E0C701202FA2
:103EA0000E94AF1B7DC01336B9F481FD03C011E041
:103EB000C12ED12CC4010E94522297FD7DC0E11475
:103EC000F10419F0F70181937F010894C108D1082A
:103ED000C114D10479F762C01B3559F4C401B6018D
:103EE000A70195010E94961C5C01009709F056C03D
:103EF00050C0C4010E94E91B97FD5EC01F36D1F17E
:103F0000103738F41436A1F11936A9F11835D1F566
:103F10002DC0133751F0143718F4103799F526C017
:103F2000153731F1183771F521C0C4010E945222B2
:103F3000EC0197FD15C00E942122892B29F0CE01AA
:103F4000B4010E94C0220CC0E114F10419F0F70181
:103F5000C1937F010894C108D108C114D10429F785
:103F6000E114F104D9F0F701108218C0006403C015
:103F7000006201C00061C401B601A701202F0E94A8
:103F8000021C05C0C401B601A7010E94631D88235D
:103F900029F4F4018381807379F413C000FF5394F2
:103FA000F401F380F501F3FC1591F3FE11915F012B
:103FB000112309F0F2CE05C0552019F42FEF3FEF81
:103FC00002C0252D30E0C901DF91CF911F910F91E3
:103FD000FF90EF90DF90CF90BF90AF909F908F9029
:103FE0007F906F905F900895E89409C097FB3EF42E
:103FF00090958095709561957F4F8F4F9F4F992336
:10400000A9F0F92F96E9BB279395F69587957795B3
:104010006795B795F111F8CFFAF4BB0F11F460FF73
:104020001BC06F5F7F4F8F4F9F4F16C0882311F0CB
:1040300096E911C0772321F09EE8872F762F05C0DF
:10404000662371F096E8862F70E060E02AF09A957A
:10405000660F771F881FDAF7880F9695879597F96F
:1040600008950BD078C069D028F06ED018F0952351
:1040700009F05AC05FC01124A2C07ED0A0F3959F62
:10408000D1F3950F50E0551F629FF001729FBB273F
:10409000F00DB11D639FAA27F00DB11DAA1F649FEB
:1040A0006627B00DA11D661F829F2227B00DA11D9E
:1040B000621F739FB00DA11D621F839FA00D611D24
:1040C000221F749F3327A00D611D231F849F600D45
:1040D000211D822F762F6A2F11249F5750408AF07E
:1040E000E1F088234AF0EE0FFF1FBB1F661F771F0A
:1040F000881F91505040A9F79E3F510570F014C0A1
:104100005EC05F3FECF3983EDCF38695779567954C
:10411000B795F795E7959F5FC1F7FE2B880F911D27
:104120009695879597F9089597F99F6780E870E0CD
:1041300060E008959FEF80EC089500240A9416161D
:10414000170618060906089500240A941216130685
:10415000140605060895092E0394000C11F4882313
:1041600052F0BB0F40F4BF2B11F460FF04C06F5F2F
:104170007F4F8F4F9F4F089557FD9058440F551F05
:1041800059F05F3F71F04795880F97FB991F61F0D9
:104190009F3F79F087950895121613061406551F50
:1041A000F2CF4695F1DF08C0161617061806991FBC
:1041B000F1CF86957105610508940895E894BB27B1
:1041C00066277727CB0197F90895AA1BBB1B51E1FE
:1041D00007C0AA1FBB1FA617B70710F0A61BB70B77
:1041E000881F991F5A95A9F780959095BC01CD011C
:1041F000089597FB092E07260AD077FD04D0E5DF46
:1042000006D000201AF4709561957F4F0895F6F757
:10421000909581959F4F0895A1E21A2EAA1BBB1B72
:10422000FD010DC0AA1FBB1FEE1FFF1FA217B30782
:10423000E407F50720F0A21BB30BE40BF50B661F98
:10424000771F881F991F1A9469F76095709580955C
:1042500090959B01AC01BD01CF01089597FB092EFC
:1042600005260ED057FD04D0D7DF0AD0001C38F445
:1042700050954095309521953F4F4F4F5F4F089592
:10428000F6F790958095709561957F4F8F4F9F4F72
:104290000895283008F027E03327DA01990F311DFF
:1042A00087FD916000966105710539F432602E5FDB
:1042B0003D9330E32A95E1F708959F3F30F0803831
:1042C0007105610509F03C5F3C5F3D93913008F05A
:1042D0008068911DDF93CF931F930F93FF92EF920E
:1042E000192F987F9695E92F96959695E90FFF27B8
:1042F000E35DFB4F99273327EE24FF24A701E70155
:1043000005900894079428F4360FE71EF81E491FFD
:10431000511D660F771F881F991F0694A1F70590FE
:10432000079428F4E70EF81E491F561FC11D770F8A
:10433000881F991F661F0694A1F70590079428F41B
:10434000F80E491F561FC71FD11D880F991F661FE2
:10435000771F0694A1F70590079420F4490F561F84
:10436000C71FD81F990F661F771F881F0694A9F7CC
:1043700084911095177041F0D695C795579547953C
:10438000F794E7941A95C1F7E3EDF3E0689415907C
:10439000159135916591959105907FE27395E1189E
:1043A000F10A430B560BC90BD009C0F7E10CF11E03
:1043B000431F561FC91FD01D7EF4703311F48A9518
:1043C000E6CFE894015030F0080F0AF400270217F6
:1043D00008F4202F2395022F7A3328F079E37D9378
:1043E0002A95E9F710C07D932A9589F6069497954A
:1043F0006795379517951794E118F10A430B560BFB
:10440000C90BD00998F023957E9173957A3308F003
:1044100070E37C932013B8F77E9170617D9330F048
:10442000839571E37D9370E32A95E1F71124EF9072
:10443000FF900F911F91CF91DF91992787FD909564
:104440000895911115C1803219F089508550D0F727
:1044500008959111089581548A5108F4805E855A17
:104460000895FC010590061621F00020D9F7C0013F
:1044700008953197CF010895FC0105906150704077
:104480000110D8F7809590958E0F9F1F0895FC011D
:104490006150704001900110D8F7809590958E0F73
:1044A0009F1F0895CF93DF93EC014B8140FF1AC00B
:1044B00046FF0AC04F7B4B838E819F8101969F836D
:1044C0008E838A81282F2BC042FF13C0E881F98197
:1044D0008081282F332727FD30952115310529F4B8
:1044E00040624B832FEF3FEF1BC03196F983E88387
:1044F00011C0EA85FB85CE0109959C0197FF0AC092
:104500009B812F5F3F4F11F080E201C080E1892B3A
:104510008B83E8CF8E819F8101969F838E8330E0CD
:10452000C901DF91CF9108950F931F93CF93DF932C
:104530008C01EB018B8181FF1BC082FF0DC02E819E
:104540003F818C819D812817390764F4E881F981C6
:104550000193F983E88306C0E885F985802F0995E2
:10456000892B31F48E819F8101969F838E8302C0B7
:104570000FEF1FEFC801DF91CF911F910F910895A9
:104580009C01FB01838180FF11C086FD0FC09FEF5E
:104590002F3F390759F0228380648F7D8383868182
:1045A000978101979783868330E002C02FEF3FEF1A
:1045B000C9010895FA01AA27283051F1203181F16B
:1045C000E8946F936E7F6E5F7F4F8F4F9F4FAF4F1B
:1045D000B1E03ED0B4E03CD0670F781F891F9A1F2E
:1045E000A11D680F791F8A1F911DA11D6A0F711DE2
:1045F000811D911DA11D20D009F468943F912AE0EE
:10460000269F11243019305D3193DEF6CF010895D5
:10461000462F4770405D4193B3E00FD0C9F7F6CF06
:10462000462F4F70405D4A3318F0495D31FD4052CE
:10463000419302D0A9F7EACFB4E0A6959795879564
:1046400077956795BA95C9F7009761057105089543
:104650009B01AC010A2E06945795479537952795EF
:10466000BA95C9F7620F731F841F951FA01D089587
:0A467000992788270895F894FFCFDA
:10467A0053657420616C61726D2074696D652E2EAC
:10468A002E004E6F726D616C206D6F64652E005343
:10469A00657420636C6F636B2074696D652E2E2EB2
:1046AA0000416C61726D206973204F4E2E00416C7F
:1046BA0061726D206973204F46462E00536E6F6FEC
:1046CA007A65206973206F6E2E0053686F77696E62
:1046DA006720616463206F75747075740001060E3B
:1046EA000000100E000054686973206973206C6919
:0A46FA006E65203200000104040187
:00000001FF
