S00C00006C6162342E73726563B5
S11300000C9446000C9465000C9465000C946500F7
S11300100C9465000C9465000C9465000C946500C8
S11300200C9465000C9465000C9465000C946500B8
S11300300C943C2A0C9465000C9465000C946500A7
S11300400C9451010C9465000C9465000C946500AB
S11300500C9465000C9465000C9465000C94650088
S11300600C9465000C9465000C9465000C94650078
S11300700C9465000C9465000C9465000C94650068
S11300800C9465000C9465000C94650011241FBE4B
S1130090CFEFD0E1DEBFCDBF11E0A0E0B1E0EAE6F2
S11300A0F2E600E00BBF02C007900D92A231B10747
S11300B0D9F711E0A2E1B1E001C01D92A834B10763
S11300C0E1F70E9403050C9433310C94000080B7CF
S11300D0886080BF87B7816087BF83B7816083BF33
S11300E0089587B7806487BF85B5896785BD8FEF1D
S11300F083BD089587B3876087BB8DB180658DB953
S1130100709A08959C0168EE73E00E948F30CB01D1
S11301106AE070E00E948F30F82FC90164E670E055
S11301200E948F30CB016AE070E00E948F30E82F8C
S1130130C9016AE070E00E948F30CB016AE070E090
S11301400E948F30482FC9016AE070E00E948F300E
S1130150982F80910501882361F4F0933F01E09387
S11301603E018FEF80933D0140933C0190933B010E
S11301700895F0933F01E0933E0182E080933D01B6
S113018040933C0190933B01089590E049B3FC01F6
S1130190EE0FFF1FE55DFE4F20813181220F331FDB
S11301A0306E50E002C0559547958A95E2F741704C
S11301B05070242B352B3183208380E02050304F26
S11301C009F0089581E00895982F8091080188230B
S11301D069F088B3806688BBC4989FB9779BFECFCB
S11301E088B38F7888BB81E0809308010895EF92EB
S11301F0FF920F931F932CE330E040E050E00E9405
S1130200B63079018A01C9016CE370E00E948F3035
S1130210CB0168E170E00E948F3024E630E0A90150
S1130220849F9001859F300D949F300D1124C70148
S11302306CE370E00E948F30280F391FC9011F91B1
S11302400F91FF90EF900895EF92FF920F931F93F9
S11302502CE330E040E050E00E94B63079018A019E
S1130260C9016CE370E00E948F30CB016CE070E058
S11302700E948F3024E630E0A901849F9001859F7D
S1130280300D949F300D1124C7016CE370E00E947F
S11302908F30280F391FC9011F910F91FF90EF90E4
S11302A008951F920F920FB60F920BB60F9211245E
S11302B08F929F92AF92BF92CF92DF92EF92FF9272
S11302C00F931F932F933F934F935F936F937F935A
S11302D08F939F93AF93BF93EF93FF93DF93CF934A
S11302E0CDB7DEB72897DEBFCDBF93E0998321E079
S11302F02A831B8282E08C839D838E831F822887BE
S1130300809118019091190101969093190180939D
S11303101801809118019091190183709070892BB4
S113032049F48091460190914701019690934701C9
S113033080934601809116019091170180349105B4
S113034009F4F9C28038910509F4D8C10196909353
S113035017018093160180912101882341F0809137
S113036022018F5F809322018A3009F43CC34091BB
S11303701B01442309F0BEC180911A01882309F0AE
S1130380B9C11ABA8FEF8BBB88B3806588BBC59897
S113039085E38A95F1F729B380912B0190912C0183
S11303A0880F991F906E30E021703070822B932B50
S11303B090932C0180932B018050904F09F4C4C179
S11303C089B320912D0130912E01220F331F306EFD
S11303D090E09595879581709070282B392B3093F8
S11303E02E0120932D012050304F09F47EC289B391
S11303F020912F0130913001220F331F306E90E095
S1130400959587959595879581709070282B392BB4
S11304103093300120932F012050304F09F462C2F1
S113042089B32091310130913201220F331F306E94
S113043090E0959587959595879595958795817085
S11304409070282B392B30933201209331012050A6
S1130450304F09F444C289B32091370130913801F7
S1130460220F331F306E90E0082E892F000C881F56
S1130470990B000C881F991F81709070282B392BC1
S113048030933801209337012050304F09F423C2B0
S113049029B38091390190913A01880F991F906E88
S11304A030E0220F232F221F330B3195822B932B05
S11304B090933A01809339018050904F09F4E4C13C
S11304C088B38F7888BBC098C09A9FEF9FB98FB1CB
S11304D0809326019FB9F3E0AF2EA822A0922A01AF
S11304E0ECE0BE2EB822B694B694B0922801809067
S11304F02901A81409F44FC18981A81609F478C206
S113050040E08E010F5F1F4F4F5FE42EFF2473E026
S1130510C72ED12CCE20DF20F801EC0DFD1D8081EB
S1130520A81691F7C701019764E070E00E94A33018
S1130530FC01E00FF11F8081881609F4FFC0909040
S113054007018E010B5F1F4FC00ED11ED6018C9187
S1130550A81659F04F5FE42EFF24F701E370F07002
S1130560E00FF11F8081A816A9F7C701019764E085
S113057070E00E94A330080F191FF80180818816CB
S113058009F419C2C0902701BC1409F40CC1242F2A
S113059030E063E0E62EF12CE222F3228E010F5FBD
S11305A01F4F08C04F5F242F30E053E0E52EF12C9D
S11305B0E222F322F801EE0DFF1D8081B81691F7B7
S11305C0F9013197CF0164E070E00E94A330080F75
S11305D0191FD8018C91C81609F4E3C1D090060103
S11305E08E010B5F1F4FE00EF11ED7018C91B816E0
S11305F069F04F5F242F30E0F901E370F070E00FF1
S1130600F11F8081B816A9F7F9013197CF0164E091
S113061070E00E94A330080F191FF8018081C816EA
S113062009F4C5C1F7E09F1609F4C3C021E092168E
S113063009F484C187E0D81609F4F1C0A1E0DA1600
S113064099F584E08093060180911A018823A1F032
S11306508091010190910201A0910301B0910401E4
S113066080519E40A040B0408093010190930201CC
S1130670A0930301B093040180911B018823A1F08E
S113068080911D0190911E01A0911F01B091200144
S113069080519E40A040B04080931D0190931E0164
S11306A0A0931F01B0932001A0922901B0922701C9
S11306B02896DEBFCDBFCF91DF91FF91EF91BF911F
S11306C0AF919F918F917F916F915F914F913F91E6
S11306D02F911F910F91FF90EF90DF90CF90BF90DB
S11306E0AF909F908F900F900BBE0F900FBE0F9006
S11306F01F90189581E08093050143CE81E080939B
S11307000501109217011092160180910101909138
S11307100201A0910301B09104010196A11DB11D34
S11307208093010190930201A0930301B09304010B
S1130730909A80FF909880E090E008CE9090070116
S11307409A9490920701FDCE80911A01882309F0B2
S113075037CE442309F43CC110921B01909124012B
S11307609F779093240181E0809325018091080173
S1130770882309F425CE1092080188B3806688BBCB
S1130780C4989FB9779BFECF88B38F7888BB81E0EC
S11307908093080115CE40E090900701C090270196
S11307A0BC1409F0F4CED0900601F7E09F1609F0CE
S11307B03DCF84E08093070180911A01882399F04A
S11307C08091010190910201A0910301B091040173
S11307D0CC96A11DB11D8093010190930201A093B9
S11307E00301B093040180911B01882309F422CFF3
S11307F080911D0190911E01A0911F01B0912001D3
S1130800CC96A11DB11D80931D0190931E01A09350
S11308101F01B093200187E0D81609F00FCF84E0C0
S11308208093060180911A018823A1F0809101012F
S113083090910201A0910301B0910401805F914F56
S1130840AF4FBF4F8093010190930201A093030126
S1130850B093040180911B01882309F425CF809172
S11308601D0190911E01A0911F01B0912001805F94
S1130870914FAF4FBF4F80931D0190931E01A093E2
S11308801F01B093200110CF80911C018823D1F067
S113089010921C01909124019E7F909324018091D9
S11308A00801882309F40CCE88B3806688BBC498F9
S11308B09FB9779BFECF88B38F7888BB81E0809304
S11308C00801FECD81E080931C0190912401916088
S11308D090932401E4CF81E080932301D9CD0E9439
S11308E0D729B9CD0E94EE299BCD80911B01882385
S11308F009F07DCD80911A01882309F460C010921B
S11309001A01909124019F7B909324018091080106
S1130910882309F46CCD1092080188B3806688BBE3
S1130920C4989FB9779BFECF88B38F7888BB81E04A
S1130930809308015CCD1092050108CD84E080937A
S1130940070180911A01882399F080910101909107
S11309500201A0910301B0910401CC97A109B1094E
S11309608093010190930201A0930301B0930401C9
S113097080911B01882309F45DCE80911D01909123
S11309801E01A0911F01B0912001CC97A109B109CA
S113099080931D0190931E01A0931F01B093200129
S11309A049CED0900601DA94D092060119CED394A0
S11309B0D092060137CE939490920701E3CD81E063
S11309C080931A01909124019064909324019ECF06
S11309D081E080931B0190912401906890932401FD
S11309E080932501C3CE0E94D72910922101BFCC48
S11309F040E0EFEFFFEFEE24FF24CC24DD248E0152
S1130A000F5F1F4F96CD8F929F92AF92BF92CF925E
S1130A10DF92EF92FF920F931F930E940C2A8FEFA5
S1130A2087BB81BB8093610087B3876087BB8DB12F
S1130A3080658DB9709A80B7886080BF87B7816000
S1130A4087BF83B7816083BF78941092420110926C
S1130A50410110921901109218011092470110924D
S1130A6046014091120150911301882483949924E2
S1130A709A9466C0E0900101F09002010091030194
S1130A8010910401A0901D01B0901E01C0901F019F
S1130A90D090200180E8E81681E5F80681E0080797
S1130AA080E0180784F0D801C70180589145A1401F
S1130AB0B0408093010190930201A0930301B0938D
S1130AC004017C018D0117FDB3C090E8A91691E5DE
S1130AD0B90691E0C90690E0D90684F0D601C501B3
S1130AE080589145A140B04080931D0190931E0110
S1130AF0A0931F01B09320015C016D01D7FCA9C034
S1130B00E0911201F0911301E55CFE4F80810E9497
S1130B10840F9ABA9BBA4091120150911301242F69
S1130B202295207F98B3922B98BB98B39077922309
S1130B3098BB8BBB4F5F5F4F5093130140931201DF
S1130B404530510520F0109213011092120180914A
S1130B501A01882321F480911B01882399F4809140
S1130B601C01813009F486C0609101017091020179
S1130B7080910301909104010E94F7000E94820079
S1130B8080911B01882389F080911C01813009F434
S1130B9087C060911D0170911E0180911F01909189
S1130BA020010E94F7000E948200E0900101F09071
S1130BB002010091030110910401A0901D01B09065
S1130BC01E01C0901F01D0902001EA14FB040C0503
S1130BD01D0509F45EC080912301882309F44ACFDE
S1130BE00E94D729A0901D01B0901E01C0901F0142
S1130BF0D0902001E0900101F090020100910301E6
S1130C0010910401C601B5016E197F09800B910B87
S1130C102AE030E040E050E00E94B63061157105F2
S1130C208105910511F4809221011092230132CFA4
S1130C3080E891E5A1E0B0E0E80EF91E0A1F1B1F51
S1130C40E0920101F0920201009303011093040168
S1130C503CCF80E891E5A1E0B0E0A80EB91ECA1E21
S1130C60DB1EA0921D01B0921E01C0921F01D09202
S1130C70200146CF6091010170910201809103012E
S1130C80909104010E9424010E94820080911B0122
S1130C9079CF0E94EE2980922101109222019BCFEC
S1130CA060911D0170911E0180911F01909120019E
S1130CB00E9424010E94820078CFDF93CF93CDB7A6
S1130CC0DEB7A2E6B0E0E2E6F0E0808188608C93D3
S1130CD0A2E6B0E0E2E6F0E08081877F8C93CF91DA
S1130CE0DF910895DF93CF93CDB7DEB72E970FB67C
S1130CF0F894DEBF0FBECDBFEEE2F0E08081882322
S1130D00DCF7EFE2F0E01082EEE2F0E0808188238D
S1130D10DCF7EFE2F0E081E08083EEE2F0E0808156
S1130D208823DCF70E945D0680E090E0A0E0B0E458
S1130D308B879C87AD87BE876B857C858D859E85DB
S1130D4020E030E04AE755E40E945F2CDC01CB014F
S1130D508F839887A987BA876F81788589859A85D3
S1130D6020E030E040E85FE30E94652E88232CF405
S1130D7081E090E09E838D833FC06F817885898573
S1130D809A8520E03FEF4FE757E40E94052E18169E
S1130D904CF56B857C858D859E8520E030E040E2B6
S1130DA051E40E945F2CDC01CB01BC01CD010E9407
S1130DB0892ADC01CB019E838D830FC080E991E0F9
S1130DC09C838B838B819C810197F1F79C838B831C
S1130DD08D819E8101979E838D838D819E81009755
S1130DE069F714C06F81788589859A850E94892A5C
S1130DF0DC01CB019E838D838D819E819A838983BF
S1130E0089819A810197F1F79A8389832E960FB687
S1130E10F894DEBF0FBECDBFCF91DF910895DF936D
S1130E20CF93CDB7DEB72E970FB6F894DEBF0FBEC3
S1130E30CDBFEEE2F0E080818823DCF7EFE2F0E062
S1130E401082EEE2F0E080818823DCF7EFE2F0E04C
S1130E5082E08083EEE2F0E080818823DCF70E9468
S1130E605D0680E090E0A0E0B0E48B879C87AD87CE
S1130E70BE876B857C858D859E8520E030E04AE7C2
S1130E8055E40E945F2CDC01CB018F839887A987EE
S1130E90BA876F81788589859A8520E030E040E8BB
S1130EA05FE30E94652E88232CF481E090E09E830A
S1130EB08D833FC06F81788589859A8520E03FEFD7
S1130EC04FE757E40E94052E18164CF56B857C8578
S1130ED08D859E8520E030E040E251E40E945F2C45
S1130EE0DC01CB01BC01CD010E94892ADC01CB01CC
S1130EF09E838D830FC080E991E09C838B838B81DB
S1130F009C810197F1F79C838B838D819E8101974E
S1130F109E838D838D819E81009769F714C06F81B4
S1130F20788589859A850E94892ADC01CB019E8374
S1130F308D838D819E819A83898389819A8101978A
S1130F40F1F79A8389832E960FB6F894DEBF0FBE0D
S1130F50CDBFCF91DF910895DF93CF93CDB7DEB7A7
S1130F602E970FB6F894DEBF0FBECDBFEEE2F0E0D1
S1130F7080818823DCF7EFE2F0E01082EEE2F0E01B
S1130F8080818823DCF7EFE2F0E080EC8083EEE2FE
S1130F90F0E080818823DCF70E945D0680E090E029
S1130FA0A0E0B0E48B879C87AD87BE876B857C858A
S1130FB08D859E8520E030E04AE755E40E945F2C51
S1130FC0DC01CB018F839887A987BA876F817885E5
S1130FD089859A8520E030E040E85FE30E94652E31
S1130FE088232CF481E090E09E838D833FC06F8141
S1130FF0788589859A8520E03FEF4FE757E40E9482
S1131000052E18164CF56B857C858D859E8520E014
S113101030E040E251E40E945F2CDC01CB01BC01D2
S1131020CD010E94892ADC01CB019E838D830FC0F0
S113103080E991E09C838B838B819C810197F1F7FC
S11310409C838B838D819E8101979E838D838D816B
S11310509E81009769F714C06F81788589859A8588
S11310600E94892ADC01CB019E838D838D819E8120
S11310709A83898389819A810197F1F79A83898375
S11310802E960FB6F894DEBF0FBECDBFCF91DF9181
S11310900895DF93CF93CDB7DEB769970FB6F89471
S11310A0DEBF0FBECDBFEEE2F0E080818823DCF727
S11310B0198ED5C0EFE2F0E081E08083EEE2F0E04B
S11310C080818823DCF7EFE2F0E080E28083EEE2C7
S11310D0F0E080818823DCF70E945D0680E090E0E8
S11310E0A8ECB2E48D8B9E8BAF8BB88F6D897E8913
S11310F08F89988D2BEA3AEA4AEA50E40E945F2CE1
S1131100DC01CB01898B9A8BAB8BBC8B69897A8987
S11311108B899C8920E030E040E85FE30E94652EE3
S113112088231CF481E0888B91C069897A898B8932
S11311309C8920E030E04FE753E40E94052E181606
S11311400CF07BC06D897E898F89988D20E030E01A
S11311504AE754E40E94592DDC01CB018C879D871A
S1131160AE87BF876C857D858E859F8520E030E0C6
S11311704AE755E40E945F2CDC01CB0188879987FC
S1131180AA87BB87688579858A859B8520E030E0BE
S113119040E85FE30E94652E88232CF481E090E010
S11311A09F838E833FC0688579858A859B8520E0EF
S11311B03FEF4FE757E40E94052E18164CF56C8557
S11311C07D858E859F8520E030E040E251E40E94D9
S11311D05F2CDC01CB01BC01CD010E94892ADC011A
S11311E0CB019F838E830FC080E991E09D838C8324
S11311F08C819D810197F1F79D838C838E819F81E2
S113120001979F838E838E819F81009769F724C005
S1131210688579858A859B850E94892ADC01CB01B2
S11312209F838E838E819F819B838A838A819B8106
S11312300197F1F79B838A830FC069897A898B8927
S11312409C890E94892ADC01CB01888B8889898347
S113125089818A95F1F78983898D8F5F898F898D3B
S1131260803108F427CF69960FB6F894DEBF0FBE1D
S1131270CDBFCF91DF910895DF93CF93CDB7DEB784
S113128069970FB6F894DEBF0FBECDBF898FEEE22B
S1131290F0E080818823DCF7EFE2F0E081E08083F6
S11312A0EEE2F0E080818823DCF7EFE2F0E0898D64
S11312B08083EEE2F0E080818823DCF70E945D0603
S11312C080E090E0A8ECB2E48D8B9E8BAF8BB88F5E
S11312D06D897E898F89988D2BEA3AEA4AEA50E42F
S11312E00E945F2CDC01CB01898B9A8BAB8BBC8B6E
S11312F069897A898B899C8920E030E040E85FE342
S11313000E94652E88231CF481E0888B91C0698932
S11313107A898B899C8920E030E04FE753E40E946E
S1131320052E18160CF07BC06D897E898F89988DE7
S113133020E030E04AE754E40E94592DDC01CB015F
S11313408C879D87AE87BF876C857D858E859F85BD
S113135020E030E04AE755E40E945F2CDC01CB0139
S113136088879987AA87BB87688579858A859B85BD
S113137020E030E040E85FE30E94652E88232CF4EF
S113138081E090E09F838E833FC0688579858A855C
S11313909B8520E03FEF4FE757E40E94052E181687
S11313A04CF56C857D858E859F8520E030E040E29C
S11313B051E40E945F2CDC01CB01BC01CD010E94F1
S11313C0892ADC01CB019F838E830FC080E991E0E1
S11313D09D838C838C819D810197F1F79D838C8300
S11313E08E819F8101979F838E838E819F81009739
S11313F069F724C0688579858A859B850E94892A36
S1131400DC01CB019F838E838E819F819B838A83A2
S11314108A819B810197F1F79B838A830FC0698935
S11314207A898B899C890E94892ADC01CB01888B6B
S11314308889898389818A95F1F7898369960FB6AA
S1131440F894DEBF0FBECDBFCF91DF9108950F9307
S11314501F93DF93CF93CDB7DEB76B970FB6F89496
S1131460DEBF0FBECDBF9B8F8A8FEEE2F0E080819E
S11314708823DCF7198EDDC0EFE2F0E081E08083A1
S1131480EEE2F0E080818823DCF7AFE2B0E0898D02
S1131490282F30E08A8D9B8DFC01E20FF31F8081A1
S11314A08C93EEE2F0E080818823DCF70E945D06F5
S11314B080E090E0A8ECB2E48D8B9E8BAF8BB88F6C
S11314C06D897E898F89988D2BEA3AEA4AEA50E43D
S11314D00E945F2CDC01CB01898B9A8BAB8BBC8B7C
S11314E069897A898B899C8920E030E040E85FE350
S11314F00E94652E88231CF481E0888B91C0698941
S11315007A898B899C8920E030E04FE753E40E947C
S1131510052E18160CF07BC06D897E898F89988DF5
S113152020E030E04AE754E40E94592DDC01CB016D
S11315308C879D87AE87BF876C857D858E859F85CB
S113154020E030E04AE755E40E945F2CDC01CB0147
S113155088879987AA87BB87688579858A859B85CB
S113156020E030E040E85FE30E94652E88232CF4FD
S113157081E090E09F838E833FC0688579858A856A
S11315809B8520E03FEF4FE757E40E94052E181695
S11315904CF56C857D858E859F8520E030E040E2AA
S11315A051E40E945F2CDC01CB01BC01CD010E94FF
S11315B0892ADC01CB019F838E830FC080E991E0EF
S11315C09D838C838C819D810197F1F79D838C830E
S11315D08E819F8101979F838E838E819F81009747
S11315E069F724C0688579858A859B850E94892A44
S11315F0DC01CB019F838E838E819F819B838A83B1
S11316008A819B810197F1F79B838A830FC0698943
S11316107A898B899C890E94892ADC01CB01888B79
S11316208889898389818A95F1F78983898D8F5F78
S1131630898F898D082F10E08A8D9B8D0E942A3115
S113164001978017910708F017CF6B960FB6F8949F
S1131650DEBF0FBECDBFCF91DF911F910F910895D3
S11316600F931F93DF93CF93CDB7DEB7C356D0400C
S11316700FB6F894DEBF0FBECDBFFE01E15AFF4F97
S113168080E090E0A0E7B1E480839183A283B383F8
S11316908E01055A1F4FFE01E15AFF4F608171818F
S11316A08281938120E030E04AE755E40E945F2C78
S11316B0DC01CB01F80180839183A283B383FE0113
S11316C0E55AFF4F608171818281938120E030E08F
S11316D040E85FE30E94652E882344F4FE01E75A44
S11316E0FF4F81E090E09183808364C0FE01E55A5E
S11316F0FF4F608171818281938120E03FEF4FE74A
S113170057E40E94052E18160CF043C0FE01E15A5E
S1131710FF4F608171818281938120E030E040E25B
S113172051E40E945F2CDC01CB018E01075A1F4F4C
S1131730BC01CD010E94892ADC01CB01F80191830F
S113174080831FC0FE01E95AFF4F80E991E0918335
S11317508083FE01E95AFF4F808191810197F1F75F
S1131760FE01E95AFF4F91838083DE01A75ABF4FE0
S1131770FE01E75AFF4F80819181019711969C9356
S11317808E93FE01E75AFF4F808191810097D1F635
S113179028C08E01075A1F4FFE01E55AFF4F608192
S11317A07181828193810E94892ADC01CB01F80135
S11317B091838083DE01AB5ABF4FFE01E75AFF4F8E
S11317C08081918111969C938E93FE01EB5AFF4F79
S11317D0808191810197F1F7FE01EB5AFF4F9183CC
S11317E08083FE01ED59FF4F1082CFC0EFE2F0E09D
S11317F01082EEE2F0E080818823DCF7EFE2F0E093
S113180080E38083EEE2F0E080818823DCF70E94AD
S11318105D06FE01EF5AFF4F80E090E0A0EEB0E4D9
S113182080839183A283B3838E01035B1F4FFE01E8
S1131830EF5AFF4F608171818281938120E030E013
S11318404AE755E40E945F2CDC01CB01F801808358
S11318509183A283B383FE01E35BFF4F60817181B7
S11318608281938120E030E040E85FE30E94652EAE
S1131870882344F4FE01E55BFF4F81E090E091830F
S1131880808364C0FE01E35BFF4F608171818281CC
S1131890938120E03FEF4FE757E40E94052E18168E
S11318A00CF043C0FE01EF5AFF4F608171818281C9
S11318B0938120E030E040E251E40E945F2CDC019F
S11318C0CB018E01055B1F4FBC01CD010E94892A0B
S11318D0DC01CB01F801918380831FC0FE01E75B2B
S11318E0FF4F80E991E091838083FE01E75BFF4F26
S11318F0808191810197F1F7FE01E75BFF4F9183AE
S11319008083DE01A55BBF4FFE01E55BFF4F808155
S11319109181019711969C938E93FE01E55BFF4F95
S1131920808191810097D1F627C08E01055B1F4FFE
S1131930FE01E35BFF4F60817181828193810E948C
S1131940892ADC01CB01F80191838083DE01A95B44
S1131950BF4FFE01E55BFF4F808191818D939C9386
S1131960FE01E95BFF4F808191810197F1F7FE0150
S1131970E95BFF4F91838083DE01AD59BF4FFE01C8
S1131980ED59FF4F80818F5F8C93FE01ED59FF4F1E
S11319908081833008F42ACFEFE2F0E01082EEE297
S11319A0F0E080818823DCF7EFE2F0E088E38083D5
S11319B0EEE2F0E080818823DCF70E945D06FE0100
S11319C0ED5BFF4F80E090E0A0EAB0E48083918378
S11319D0A283B3838E01015C1F4FFE01ED5BFF4FB9
S11319E0608171818281938120E030E04AE755E48F
S11319F00E945F2CDC01CB01F80180839183A283D8
S1131A00B383FE01FF96608171818281938120E01E
S1131A1030E040E85FE30E94652E88232CF481E0E7
S1131A2090E09EAF8DAF46C0FE01FF96608171814C
S1131A308281938120E03FEF4FE757E40E94052E17
S1131A40181664F5FE01ED5BFF4F608171818281A0
S1131A50938120E030E040E251E40E945F2CDC01FD
S1131A60CB01BC01CD010E94892ADC01CB019EAFD0
S1131A708DAF0FC080E991E09CAF8BAF8BAD9CAD77
S1131A800197F1F79CAF8BAF8DAD9EAD01979EAFE3
S1131A908DAF8DAD9EAD009769F716C0FE01FF9620
S1131AA060817181828193810E94892ADC01CB014A
S1131AB09EAF8DAF8DAD9EAD9AAF89AF89AD9AAD16
S1131AC00197F1F79AAF89AFEFE2F0E01082EEE20E
S1131AD0F0E080818823DCF7EFE2F0E088E08083A7
S1131AE0EEE2F0E080818823DCF70E945D0680E06E
S1131AF090E0A0EAB0E48DAB9EABAFABB8AF6DA9FC
S1131B007EA98FA998AD20E030E04AE755E40E9411
S1131B105F2CDC01CB0189AB9AABABABBCAB69A945
S1131B207AA98BA99CA920E030E040E85FE30E94F9
S1131B30652E88232CF481E090E098AB8FA73FC0FA
S1131B4069A97AA98BA99CA920E03FEF4FE757E444
S1131B500E94052E18164CF56DA97EA98FA998AD83
S1131B6020E030E040E251E40E945F2CDC01CB0134
S1131B70BC01CD010E94892ADC01CB0198AB8FA75F
S1131B800FC080E991E09EA78DA78DA59EA5019722
S1131B90F1F79EA78DA78FA598A9019798AB8FA75A
S1131BA08FA598A9009769F714C069A97AA98BA988
S1131BB09CA90E94892ADC01CB0198AB8FA78FA531
S1131BC098A99CA78BA78BA59CA50197F1F79CA727
S1131BD08BA7EFE2F0E01082EEE2F0E08081882350
S1131BE0DCF7EFE2F0E081E08083EEE2F0E0808178
S1131BF08823DCF70E945D0680E090E0A0EAB0E470
S1131C008FA398A7A9A7BAA76FA178A589A59AA514
S1131C1020E030E04AE755E40E945F2CDC01CB0170
S1131C208BA39CA3ADA3BEA36BA17CA18DA19EA1FC
S1131C3020E030E040E85FE30E94652E88232CF426
S1131C4081E090E09AA389A33FC06BA17CA18DA100
S1131C509EA120E03FEF4FE757E40E94052E18169F
S1131C604CF56FA178A589A59AA520E030E040E263
S1131C7051E40E945F2CDC01CB01BC01CD010E9428
S1131C80892ADC01CB019AA389A30FC080E991E0E2
S1131C9098A38F8F8F8D98A10197F1F798A38F8FB9
S1131CA089A19AA101979AA389A389A19AA10097CE
S1131CB069F714C06BA17CA18DA19EA10E94892A01
S1131CC0DC01CB019AA389A389A19AA19E8F8D8F50
S1131CD08D8D9E8D0197F1F79E8F8D8FEFE2F0E051
S1131CE01082EEE2F0E080818823DCF7EFE2F0E09E
S1131CF086E08083EEE2F0E080818823DCF70E94B6
S1131D005D0680E090E0A0EAB0E4898F9A8FAB8F03
S1131D10BC8F698D7A8D8B8D9C8D20E030E04AE7F5
S1131D2055E40E945F2CDC01CB018D8B9E8BAF8B25
S1131D30B88F6D897E898F89988D20E030E040E8E6
S1131D405FE30E94652E88232CF481E090E09C8B55
S1131D508B8B3FC06D897E898F89988D20E03FEF02
S1131D604FE757E40E94052E18164CF5698D7A8DBD
S1131D708B8D9C8D20E030E040E251E40E945F2C8A
S1131D80DC01CB01BC01CD010E94892ADC01CB011D
S1131D909C8B8B8B0FC080E991E09A8B898B89890E
S1131DA09A890197F1F79A8B898B8B899C89019782
S1131DB09C8B8B8B8B899C89009769F714C06D89E8
S1131DC07E898F89988D0E94892ADC01CB019C8BA6
S1131DD08B8B8B899C89988B8F878F8598890197AA
S1131DE0F1F7988B8F87EFE2F0E01082EEE2F0E0FB
S1131DF080818823DCF7EFE2F0E08CE08083EEE280
S1131E00F0E080818823DCF70E945D0680E090E0AA
S1131E10A0EAB0E48B879C87AD87BE876B857C8501
S1131E208D859E8520E030E04AE755E40E945F2CD2
S1131E30DC01CB018F839887A987BA876F81788566
S1131E4089859A8520E030E040E85FE30E94652EB2
S1131E5088232CF481E090E09E838D833FC06F81C2
S1131E60788589859A8520E03FEF4FE757E40E9403
S1131E70052E18164CF56B857C858D859E8520E096
S1131E8030E040E251E40E945F2CDC01CB01BC0154
S1131E90CD010E94892ADC01CB019E838D830FC072
S1131EA080E991E09C838B838B819C810197F1F77E
S1131EB09C838B838D819E8101979E838D838D81ED
S1131EC09E81009769F714C06F81788589859A850A
S1131ED00E94892ADC01CB019E838D838D819E81A2
S1131EE09A83898389819A810197F1F79A838983F7
S1131EF0CD59DF4F0FB6F894DEBF0FBECDBFCF91E3
S1131F00DF911F910F910895DF93CF9300D0CDB748
S1131F10DEB789838981882319F480EC8A8338C0E9
S1131F208981813019F489EF8A8332C089818230B2
S1131F3019F484EA8A832CC08981833019F480EBF4
S1131F408A8326C08981843019F489E98A8320C070
S1131F508981853019F482E98A831AC0898186309F
S1131F6019F482E88A8314C08981873019F488EFD0
S1131F708A830EC08981883019F480E88A8308C076
S1131F808981893019F480E98A8302C08FEF8A83BA
S1131F908A810F900F90CF91DF910895DF93CF93B3
S1131FA000D000D0CDB7DEB79A83898389819A8126
S1131FB09C838B838B819C818232910509F4ABC213
S1131FC08B819C818332910508F0DAC08B819C81DE
S1131FD08031910509F42AC28B819C81813191055C
S1131FE008F061C08B819C818730910509F4DFC1C1
S1131FF08B819C818830910528F58B819C8183306D
S1132000910509F4B8C18B819C818430910568F4F1
S11320108B819C818130910509F49FC18B819C81C6
S11320208230910508F0A0C191C18B819C818530DB
S1132030910509F4AEC18B819C818630910508F02D
S1132040AFC1A0C18B819C818B30910509F4CBC1B8
S11320508B819C818C30910568F48B819C818930C3
S1132060910509F4B2C18B819C818A30910508F0F5
S1132070B3C1A4C18B819C818D30910509F4C1C188
S11320808B819C818D30910508F4B4C18B819C8136
S11320908E30910509F4BCC18B819C818F309105F0
S11320A009F4BDC12EC38B819C818931910509F44A
S11320B0F6C18B819C818A31910588F58B819C8145
S11320C08431910509F4CBC18B819C8185319105C3
S11320D068F48B819C818231910509F4B5C18B81AF
S11320E09C818331910508F0B6C1A7C18B819C8185
S11320F08631910509F4BEC18B819C81863191059D
S113210008F4B4C18B819C818731910509F4B9C16C
S11321108B819C818831910509F4BAC1F2C28B810B
S11321209C818D31910509F4D3C18B819C818E31C1
S1132130910568F48B819C818B31910509F4BDC1B3
S11321408B819C818C31910508F0BBC1AFC18B811F
S11321509C818F31910509F4C9C18B819C818F3198
S1132160910508F4BCC18B819C818032910509F4EE
S1132170C4C18B819C818132910509F4C5C1C1C25E
S11321808B819C818433910509F440C28B819C81AD
S11321908533910508F06DC08B819C818B3291054C
S11321A009F4F5C18B819C818C32910588F58B8172
S11321B09C818632910509F4CAC18B819C81873246
S11321C0910568F48B819C818432910509F4B1C135
S11321D08B819C818532910508F0B2C1A3C18B81AA
S11321E09C818832910509F4C0C18B819C8188321D
S11321F0910508F4B3C18B819C818932910509F45E
S1132200B8C18B819C818A32910509F4B9C179C224
S11322108B819C818F32910509F4D5C18B819C817E
S11322208033910568F48B819C818D32910509F48A
S1132230BCC18B819C818E32910508F0BDC1AEC1B9
S11322408B819C818133910509F4CBC18B819C8165
S11322508133910508F4BEC18B819C818233910541
S113226009F4C6C18B819C818333910509F4C7C1EC
S113227048C28B819C818D33910509F406C28B8100
S11322809C818E33910588F58B819C8188339105DF
S113229009F4D8C18B819C818933910568F48B81C1
S11322A09C818633910509F4BFC18B819C8187335E
S11322B0910508F0C0C1B1C18B819C818A3391051D
S11322C009F4CEC18B819C818A33910508F4C1C184
S11322D08B819C818B33910509F4C9C18B819C81CD
S11322E08C33910509F4CAC10CC28B819C81813461
S11322F0910509F4E6C18B819C818234910568F4CF
S11323008B819C818F33910509F4CDC18B819C8194
S11323108034910508F0CEC1BFC18B819C81833488
S1132320910509F4DCC18B819C818334910508F407
S1132330CFC18B819C818434910509F4D7C18B81F1
S11323409C818534910509F4D8C1DBC186E460E041
S113235044E028E00E941E24D7C185E460E044E004
S113236028E00E941E24D0C184E460E044E028E018
S11323700E941E24C9C183E460E044E028E00E9476
S11323801E24C2C181E460E044E026E00E941E24D1
S1132390BBC181E461E044E022E00E941E24B4C198
S11323A081E460E044E026E00E941E24ADC181E4A3
S11323B061E044E022E00E941E24A6C181E460E0C2
S11323C044E020E10E941E249FC186E460E044E0D2
S11323D028E00E941E2498C185E460E044E028E0DF
S11323E00E941E2491C184E460E044E028E00E943D
S11323F01E248AC183E460E044E028E00E941E2495
S113240083C182E461E044E026E00E941E247CC192
S113241081E460E044E022E00E941E2475C182E46D
S113242061E044E026E00E941E246EC181E460E085
S113243044E022E00E941E2467C182E461E044E09B
S113244020E10E941E2460C187E460E044E023E0B0
S11324500E941E2459C181E00E94022455C187E4D0
S113246060E044E027E00E941E244EC181E00E9407
S113247002244AC187E461E044E024E00E941E246F
S113248043C187E460E044E026E00E941E243CC18E
S113249081E460E044E022E00E941E2435C182E42D
S11324A061E044E028E00E941E242EC181E460E043
S11324B044E022E00E941E2427C182E00E940224FC
S11324C023C181E460E044E028E00E941E241CC192
S11324D081E461E044E024E00E941E2415C181E40B
S11324E060E044E026E00E941E240EC182E461E024
S11324F044E022E00E941E2407C183E460E045E03A
S113250024E00E941E2400C184E461E045E024E04C
S11325100E941E24F9C084E460E045E024E00E94A7
S11325201E24F2C082E460E044E028E00E941E24FD
S1132530EBC081E460E044E024E00E941E24E4C097
S113254087E460E044E028E00E941E24DDC081E4CA
S113255060E044E028E00E941E24D6C087E460E0E6
S113256044E028E10E941E24CFC088E00E94022497
S1132570CBC086E460E044E028E00E941E24C4C08E
S113258085E460E044E028E00E941E24BDC084E4A9
S113259060E044E028E00E941E24B6C083E460E0CA
S11325A044E028E00E941E24AFC081E460E044E0DF
S11325B026E00E941E24A8C081E461E044E022E0F9
S11325C00E941E24A1C081E460E044E026E00E9451
S11325D01E249AC081E461E044E022E00E941E24AB
S11325E093C081E460E044E020E10E941E248CC09A
S11325F086E460E044E028E00E941E2485C087E46D
S113260061E044E028E00E941E247EC087E460E08C
S113261044E028E00E941E2477C084E460E044E0A3
S113262028E00E941E2470C082E461E044E026E0B9
S11326300E941E2469C081E460E044E022E00E941C
S11326401E2462C082E461E044E026E00E941E246D
S11326505BC081E460E044E022E00E941E2454C098
S113266082E461E044E020E10E941E244DC084E441
S113267060E044E020E10E941E2446C084E460E05F
S113268045E020E10E941E243FC081E460E044E074
S113269020E10E941E2438C083E460E045E020E18C
S11326A00E941E2431C082E461E044E028E00E94DC
S11326B01E242AC083E460E045E024E00E941E2436
S11326C023C084E460E045E024E00E941E241CC092
S11326D081E460E044E028E00E941E2415C087E401
S11326E060E044E028E00E941E240EC086E460E01E
S11326F044E028E10E941E2407C088E00E940224CE
S113270003C08FEF809340010F900F900F900F90B4
S1132710CF91DF910895DF93CF9300D000D0CDB750
S1132720DEB79A83898389819A819C838B838B8189
S11327309C818F31910509F448C28B819C81803240
S1132740910508F0B6C08B819C818F30910509F406
S1132750D2C18B819C818031910508F055C08B8159
S11327609C818730910509F491C18B819C818830CB
S1132770910528F58B819C818330910509F46AC108
S11327808B819C818430910568F48B819C8181309C
S1132790910509F451C18B819C818230910508F027
S11327A052C143C18B819C818530910509F460C17C
S11327B08B819C818630910508F061C152C18B8167
S11327C09C818B30910509F47AC18B819C818C307A
S11327D0910568F48B819C818930910509F464C169
S11327E08B819C818A30910508F062C156C18B812E
S11327F09C818D30910509F470C18B819C818E3050
S1132800910508F071C162C18B819C81873191056A
S113281009F4A6C18B819C818831910528F58B81AF
S11328209C818331910509F482C18B819C8184311F
S1132830910568F48B819C818131910509F469C10A
S11328408B819C818231910508F06AC15BC18B81C7
S11328509C818531910509F478C18B819C818631F5
S1132860910508F076C16AC18B819C818B319105F9
S113287009F48FC18B819C818C31910568F48B8123
S11328809C818931910509F476C18B819C818A31BF
S1132890910508F077C168C18B819C818D319105C8
S11328A009F485C18B819C818E31910508F086C124
S11328B077C18B819C818F32910509F4EDC18B81A5
S11328C09C818033910508F055C08B819C818732AF
S11328D0910509F4AFC18B819C818832910528F55B
S11328E08B819C818332910509F48BC18B819C81FE
S11328F08432910568F48B819C818132910509F4BD
S113290072C18B819C818232910508F073C164C1CC
S11329108B819C818532910509F47EC18B819C81D8
S11329208632910508F07FC170C18B819C818B3206
S1132930910509F498C18B819C818C32910568F4CE
S11329408B819C818932910509F482C18B819C81A0
S11329508A32910508F083C174C18B819C818D32C8
S1132960910509F48BC18B819C818E32910508F00D
S11329708CC180C18B819C818733910509F4C1C1CD
S11329808B819C818833910528F58B819C818333CD
S1132990910509F49DC18B819C818433910568F470
S11329A08B819C818133910509F484C18B819C8145
S11329B08233910508F085C176C18B819C81853372
S11329C0910509F493C18B819C818633910508F0AC
S11329D091C185C18B819C818B33910509F4ADC173
S11329E08B819C818C33910568F48B819C81893324
S11329F0910509F494C18B819C818A33910508F077
S1132A0095C186C18B819C818D33910509F4A3C145
S1132A108B819C818D33910508F496C18B819C81B7
S1132A208E33910509F49EC1A1C185E460E044E0C0
S1132A3028E00E941E249DC182E460E043E024E07B
S1132A400E941E2496C183E460E044E024E00E94D6
S1132A501E248FC184E460E044E024E00E941E242C
S1132A6088C185E460E044E022E00E941E2481C124
S1132A7084E460E044E022E00E941E247AC183E4FE
S1132A8060E044E024E00E941E2473C182E460E01C
S1132A9043E024E00E941E246CC181E460E043E032
S1132AA027E00E941E2465C181E00E94022461C1C6
S1132AB081E460E043E024E00E941E245AC183E4E0
S1132AC060E044E024E00E941E2453C185E460E0F9
S1132AD044E028E00E941E244CC184E460E044E009
S1132AE024E00E941E2445C183E460E044E024E025
S1132AF00E941E243EC182E460E043E02CE00E9478
S1132B001E2437C183E460E044E024E00E941E24D4
S1132B1030C184E460E044E028E00E941E2429C11E
S1132B2085E460E044E028E00E941E2422C183E49E
S1132B3060E044E028E00E941E241BC181E460E0C0
S1132B4043E027E00E941E2414C181E00E94022475
S1132B5010C181E460E043E020E10E941E2409C129
S1132B6084E00E94022405C184E460E044E028E09B
S1132B700E941E24FEC086E460E044E024E00E943B
S1132B801E24F7C081E460E044E028E00E941E2493
S1132B90F0C087E460E044E024E00E941E24E9C021
S1132BA086E460E044E024E00E941E24E2C085E460
S1132BB060E044E02CE00E941E24DBC083E460E07B
S1132BC044E024E00E941E24D4C085E460E044E094
S1132BD028E00E941E24CDC084E460E044E024E0A8
S1132BE00E941E24C6C083E460E044E024E00E9406
S1132BF01E24BFC082E460E043E027E00E941E245C
S1132C00B8C081E00E940224B4C082E460E043E0E2
S1132C1024E00E941E24ADC083E460E044E024E08C
S1132C200E941E24A6C084E460E044E028E00E94E0
S1132C301E249FC085E460E044E028E00E941E2436
S1132C4098C083E460E044E028E00E941E2491C020
S1132C5081E460E043E027E00E941E248AC081E012
S1132C600E94022486C081E460E043E028E00E94E0
S1132C701E247FC088E00E9402247BC085E460E0BB
S1132C8043E020E10E941E2474C083E460E043E03A
S1132C9020E10E941E246DC084E460E043E020E152
S1132CA00E941E2466C082E460E042E020E10E94AB
S1132CB01E245FC083E460E043E020E10E941E2400
S1132CC058C081E460E042E020E10E941E2451C02B
S1132CD081E461E042E020E10E941E244AC082E4D3
S1132CE060E042E028E00E941E2443C088E00E9485
S1132CF002243FC085E460E043E020E10E941E24FA
S1132D0038C083E460E043E020E10E941E2431C027
S1132D1084E460E043E020E10E941E242AC082E4AF
S1132D2060E042E020E10E941E2423C083E460E0CE
S1132D3043E028E00E941E241CC085E460E043E0D8
S1132D4028E00E941E2415C081E460E043E020E1F5
S1132D500E941E240EC081E461E043E020E10E9451
S1132D601E2407C080E10E94022403C08FEF8093D9
S1132D7040010F900F900F900F90CF91DF91089525
S1132D80DF93CF9300D000D0CDB7DEB79A83898389
S1132D9089819A819C838B838B819C818A34910560
S1132DA009F4BEC58B819C818B34910508F0FEC16A
S1132DB08B819C818432910509F4CCC48B819C81E4
S1132DC08532910508F0F4C08B819C818131910595
S1132DD009F44DC48B819C818231910508F06FC048
S1132DE08B819C818830910509F40BC48B819C8173
S1132DF08930910590F58B819C818330910509F48C
S1132E00E3C38B819C818430910568F48B819C8120
S1132E108130910509F4CDC38B819C818230910569
S1132E2008F0CBC3BFC38B819C818530910509F425
S1132E30D6C38B819C818530910508F4C9C38B81ED
S1132E409C818630910509F4CEC38B819C818730A7
S1132E50910509F4CFC30C944C1E8B819C818C305A
S1132E60910509F4E7C38B819C818D30910568F449
S1132E708B819C818A30910509F4D1C38B819C811B
S1132E808B30910508F0CFC3C3C38B819C818E30F6
S1132E90910509F4DAC38B819C818E30910508F485
S1132EA0D0C38B819C818F30910509F4D5C38B816C
S1132EB09C818031910509F4D3C30C944C1E8B8101
S1132EC09C818A31910509F408C48B819C818B31E2
S1132ED0910588F58B819C818531910509F4DDC3C9
S1132EE08B819C818631910568F48B819C8183312F
S1132EF0910509F4C7C38B819C818431910508F045
S1132F00C5C3B9C38B819C818731910509F4D3C3AF
S1132F108B819C818731910508F4C6C38B819C8188
S1132F208831910509F4CEC38B819C818931910547
S1132F3009F4CCC3B1C68B819C818F31910509F40E
S1132F40ECC38B819C8180329105C8F48B819C8178
S1132F508C31910509F4CFC38B819C818C3191050F
S1132F6008F4C2C38B819C818D31910509F4CAC3D5
S1132F708B819C818E31910509F4C8C38DC68B81E8
S1132F809C818132910509F4D3C38B819C81813268
S1132F90910508F4C6C38B819C818232910509F4A2
S1132FA0CEC38B819C818332910509F4CFC374C64F
S1132FB08B819C818733910509F43FC48B819C816B
S1132FC08833910508F079C08B819C818D329105FD
S1132FD009F4F3C38B819C818E32910588F58B8132
S1132FE09C818832910509F4CBC38B819C81893201
S1132FF0910568F48B819C818632910509F4B5C3EF
S11330008B819C818732910508F0B6C3AAC38B815A
S11330109C818A32910509F4BEC38B819C818A32DA
S1133020910508F4B4C38B819C818B32910509F41A
S1133030B9C38B819C818C32910509F4B7C32CC62A
S11330408B819C818233910509F4D7C38B819C8148
S113305083339105C8F48B819C818F32910509F4E7
S1133060B7C38B819C818F32910508F4AAC38B81ED
S11330709C818033910509F4B2C38B819C81813397
S1133080910509F4B3C308C68B819C8184339105EF
S113309009F4BEC38B819C818433910508F4B1C3C8
S11330A08B819C818533910509F4B9C38B819C8103
S11330B08633910509F4BAC3EFC58B819C818034B2
S11330C0910509F4F0C38B819C818134910588F5C5
S11330D08B819C818B33910509F4C5C38B819C81C1
S11330E08C33910568F48B819C818933910509F4B3
S11330F0AFC38B819C818A33910508F0ADC3A1C312
S11331008B819C818D33910509F4BBC38B819C8198
S11331108D33910508F4AEC38B819C818E33910568
S113312009F4B3C38B819C818F33910509F4B4C333
S1133130B3C58B819C818534910509F4D1C38B81FE
S11331409C8186349105C8F48B819C8182349105DD
S113315009F4B7C38B819C818234910508F4AAC316
S11331608B819C818334910509F4AFC38B819C814D
S11331708434910509F4B0C38FC58B819C81873455
S1133180910509F4BBC38B819C818734910508F4B4
S1133190AEC38B819C818834910509F4B6C38B81BD
S11331A09C818934910509F4B4C376C58B819C81D3
S11331B08F36910509F490C48B819C8180379105E9
S11331C008F0F2C08B819C818C35910509F414C4FC
S11331D08B819C818D35910508F06DC08B819C811C
S11331E08335910509F4D5C38B819C818435910580
S11331F088F58B819C818E34910509F4AAC38B8157
S11332009C818F34910568F48B819C818C34910569
S113321009F494C38B819C818D34910508F092C389
S113322086C38B819C818035910509F4A0C38B8171
S11332309C818035910508F493C38B819C818135F1
S1133240910509F49BC38B819C818235910509F416
S113325099C322C58B819C818735910509F4AFC33D
S11332608B819C818835910568F48B819C8185359F
S1133270910509F499C38B819C818635910508F0E9
S113328097C38BC38B819C818935910509F4A2C3B3
S11332908B819C818935910508F495C38B819C8130
S11332A08A35910509F49AC38B819C818B359105EC
S11332B009F49BC3F1C48B819C818536910509F483
S11332C0D1C38B819C818636910588F58B819C8145
S11332D08036910509F4A9C38B819C8181369105BF
S11332E068F48B819C818E35910509F493C38B819D
S11332F09C818F35910508F091C385C38B819C8196
S11333008236910509F49CC38B819C818236910598
S113331008F48FC38B819C818336910509F497C38C
S11333208B819C818436910509F498C3B5C48B8143
S11333309C818A36910509F4B5C38B819C818B36B7
S11333409105C8F48B819C818736910509F498C353
S11333508B819C818736910508F48BC38B819C817A
S11333608836910509F493C38B819C818936910534
S113337009F491C391C48B819C818C36910509F425
S11333809CC38B819C818C36910508F48FC38B81FF
S11333909C818D36910509F494C38B819C818E3672
S11333A0910509F495C378C48B819C818238910579
S11333B009F402C48B819C818338910508F079C09B
S11333C08B819C818837910509F4BCC38B819C81D6
S11333D08937910588F58B819C818337910509F4A0
S11333E091C38B819C818437910568F48B819C8186
S11333F08137910509F47BC38B819C8182379105C8
S113340008F07CC370C38B819C818537910509F4D6
S113341084C38B819C818537910508F47AC38B81A1
S11334209C818637910509F47FC38B819C81873702
S1133430910509F480C330C48B819C818D3791053B
S113344009F49DC38B819C818E379105C8F48B81CF
S11334509C818A37910509F480C38B819C818A37CA
S1133460910508F476C38B819C818B37910509F40F
S11334707BC38B819C818C37910509F47CC30CC47C
S11334808B819C818F37910509F484C38B819C8146
S11334908F37910508F47AC38B819C81803891051C
S11334A009F47FC38B819C818138910509F47DC324
S11334B0F3C38B819C818B38910509F4B0C38B8154
S11334C09C818C38910588F58B819C818638910587
S11334D009F48BC38B819C818738910568F48B81B7
S11334E09C818438910509F472C38B819C81853851
S11334F0910508F073C364C38B819C81883891055E
S113350009F47EC38B819C818838910508F471C3CA
S11335108B819C818938910509F476C38B819C81C8
S11335208A38910509F477C3B7C38B819C818039AC
S1133530910509F494C38B819C8181399105C8F468
S11335408B819C818D38910509F474C38B819C8196
S11335508D38910508F46AC38B819C818E3891055E
S113356009F46FC38B819C818F38910509F470C372
S113357093C38B819C818239910509F47BC38B8130
S11335809C818239910508F471C38B819C818339B4
S1133590910509F476C38B819C818439910509F4E2
S11335A077C37AC385E460E044E021E00E941E24EE
S11335B076C381E00E94022472C385E460E044E0A3
S11335C023E00E941E246BC381E00E94022467C38F
S11335D085E460E044E022E00E941E2460C382E0AF
S11335E00E9402245CC383E460E044E022E00E9481
S11335F01E2455C385E460E044E024E00E941E24B8
S11336004EC387E460E044E028E00E941E2447C3E0
S113361087E460E042E028E00E941E2440C388E082
S11336200E9402243CC383E460E044E025E00E945D
S11336301E2435C387E460E043E022E00E941E2498
S11336402EC384E00E9402242AC385E460E043E0A0
S113365024E00E941E2423C382E00E9402241FC38C
S113366081E460E043E022E00E941E2418C382E06B
S11336700E94022414C382E460E043E022E00E943A
S11336801E240DC382E00E94022409C382E461E087
S113369043E022E00E941E2402C381E460E043E090
S11336A024E00E941E24FBC287E460E043E023E0A0
S11336B00E941E24F4C285E460E044E022E00E94FB
S11336C01E24EDC281E00E940224E9C287E460E086
S11336D044E022E00E941E24E2C281E460E044E06F
S11336E024E00E941E24DBC286E460E044E022E081
S11336F00E941E24D4C287E460E044E022E00E94D9
S11337001E24CDC282E00E940224C9C285E460E086
S113371044E022E00E941E24C2C282E00E940224ED
S1133720BEC283E460E044E022E00E941E24B7C2EB
S113373084E460E044E022E00E941E24B0C282E4FB
S113374060E043E022E00E941E24A9C284E00E94BB
S11337500224A5C283E460E044E025E00E941E2424
S11337609EC282E00E9402249AC287E460E043E0A1
S113377022E00E941E2493C283E00E9402248FC28E
S113378085E460E043E024E00E941E2488C282E0D5
S11337900E94022484C281E460E043E022E00E94AB
S11337A01E247DC282E00E94022479C282E460E089
S11337B043E022E00E941E2472C282E00E9402249E
S11337C06EC282E461E043E022E00E941E2467C2EC
S11337D081E460E043E024E00E941E2460C287E4A8
S11337E060E043E023E00E941E2459C285E460E0C7
S11337F044E022E00E941E2452C281E00E9402247E
S11338004EC287E460E044E022E00E941E2447C2E6
S113381081E460E044E024E00E941E2440C286E487
S113382060E044E022E00E941E2439C287E460E0A4
S113383044E022E00E941E2432C282E00E9402245C
S11338402EC285E460E044E022E00E941E2427C2E8
S113385082E00E94022423C283E460E044E022E088
S11338600E941E241CC284E460E044E022E00E9422
S11338701E2415C282E460E043E022E00E941E247C
S11338800EC288E00E9402240AC287E460E044E099
S113389022E00E941E2403C287E461E044E022E0A7
S11338A00E941E24FCC186E460E044E022E00E9401
S11338B01E24F5C185E461E044E022E00E941E2458
S11338C0EEC182E00E940224EAC185E460E044E0A3
S11338D022E00E941E24E3C182E00E940224DFC190
S11338E081E461E043E022E00E941E24D8C181E427
S11338F060E043E022E00E941E24D1C183E460E042
S113390044E022E00E941E24CAC182E00E940224F4
S1133910C6C181E460E043E022E00E941E24BFC1EE
S113392083E460E044E022E00E941E24B8C184E401
S113393060E044E022E00E941E24B1C184E00E94C1
S11339400224ADC187E460E043E022E00E941E242B
S1133950A6C187E461E043E022E00E941E249FC1E7
S113396086E460E043E022E00E941E2498C185E4DE
S113397061E043E022E00E941E2491C182E00E94A3
S113398002248DC185E460E043E022E00E941E240D
S113399086C182E00E94022482C187E460E044E0A0
S11339A022E00E941E247BC182E00E94022477C18F
S11339B087E460E044E021E00E941E2470C181E0BD
S11339C00E9402246CC187E460E044E024E00E9489
S11339D01E2465C188E00E94022461C187E460E07E
S11339E044E022E00E941E245AC187E461E044E0DE
S11339F022E00E941E2453C186E460E044E022E0F9
S1133A000E941E244CC185E461E044E022E00E944F
S1133A101E2445C182E00E94022441C185E460E085
S1133A2044E022E00E941E243AC182E00E94022463
S1133A3036C181E461E043E022E00E941E242FC1EC
S1133A4081E460E043E022E00E941E2428C183E474
S1133A5060E044E022E00E941E2421C182E00E9432
S1133A6002241DC181E460E043E022E00E941E24A0
S1133A7016C183E460E044E022E00E941E240FC1EA
S1133A8084E460E044E022E00E941E2408C184E053
S1133A900E94022404C185E461E044E024E00E9421
S1133AA01E24FDC082E00E940224F9C084E460E088
S1133AB044E022E00E941E24F2C084E00E9402241A
S1133AC0EEC083E460E044E024E00E941E24E7C0EA
S1133AD08AE00E940224E3C083E460E044E022E040
S1133AE00E941E24DCC081E00E940224D8C083E42A
S1133AF060E044E022E00E941E24D1C082E00E94E3
S1133B000224CDC083E460E044E022E00E941E244D
S1133B10C6C082E00E940224C2C083E460E044E0A4
S1133B2022E00E941E24BBC084E460E044E024E060
S1133B300E941E24B4C085E460E044E022E00E94B8
S1133B401E24ADC083E460E044E022E00E941E2411
S1133B50A6C082E00E940224A2C081E460E043E0A7
S1133B6022E00E941E249BC087E460E043E024E03E
S1133B700E941E2494C084E00E94022490C083E426
S1133B8060E044E022E00E941E2489C081E00E949B
S1133B90022485C083E460E044E022E00E941E2405
S1133BA07EC082E00E9402247AC083E460E044E0A4
S1133BB022E00E941E2473C082E00E9402246FC08F
S1133BC083E460E044E022E00E941E2468C084E4B0
S1133BD060E044E022E00E941E2461C085E460E0CD
S1133BE044E022E00E941E245AC080E10E94022484
S1133BF056C083E460E044E022E00E941E244FC0EB
S1133C0081E00E9402244BC083E460E044E022E0AF
S1133C100E941E2444C082E00E94022440C083E427
S1133C2060E044E022E00E941E2439C082E00E9449
S1133C30022435C083E460E044E022E00E941E24B4
S1133C402EC084E460E044E024E00E941E2427C0E7
S1133C5085E460E044E022E00E941E2420C083E466
S1133C6060E044E022E00E941E2419C082E00E9429
S1133C70022415C081E460E043E022E00E941E2497
S1133C800EC087E460E043E024E00E941E2407C0E5
S1133C9088E00E94022403C08FEF809340010F90BC
S1133CA00F900F900F90CF91DF910895DF93CF93F2
S1133CB000D000D0CDB7DEB79A83898389819A81F9
S1133CC09C838B838B819C818F30910509F410C177
S1133CD08B819C818031910508F055C08B819C813A
S1133CE08730910509F4D2C08B819C81883091057D
S1133CF028F58B819C818330910509F4B1C08B81B7
S1133D009C818430910568F48B819C81813091057C
S1133D1009F49BC08B819C818230910508F099C085
S1133D208DC08B819C818530910509F4A4C08B8161
S1133D309C818630910508F0A2C096C08B819C813D
S1133D408B30910509F4B8C08B819C818C3091052E
S1133D5068F48B819C818930910509F4A2C08B8120
S1133D609C818A30910508F0A0C094C08B819C810D
S1133D708D30910509F4AEC08B819C818E30910504
S1133D8008F0AFC0A0C08B819C818731910509F4F4
S1133D90DBC08B819C818831910528F58B819C81C6
S1133DA08331910509F4BAC08B819C8184319105DA
S1133DB068F48B819C818131910509F4A4C08B81C5
S1133DC09C818231910508F0A5C099C08B819C81AA
S1133DD08531910509F4ADC08B819C8186319105B3
S1133DE008F0AEC0A2C08B819C818B31910509F48F
S1133DF0C4C08B819C818C31910568F48B819C813A
S1133E008931910509F4ABC08B819C818A3191057C
S1133E1008F0ACC0A0C08B819C818D31910509F460
S1133E20B7C08B819C818D31910508F4AAC08B8128
S1133E309C818E31910509F4B2C0B8C085E460E07C
S1133E4044E027E00E941E24B4C081E00E940224C2
S1133E50B0C085E460E044E027E00E941E24A9C0CD
S1133E6081E00E940224A5C085E460E044E027E0EC
S1133E700E941E249EC081E00E9402249AC085E410
S1133E8060E044E023E00E941E2493C081E00E948D
S1133E9002248FC085E460E044E023E00E941E24F5
S1133EA088C085E00E94022484C085E460E045E087
S1133EB024E00E941E247DC087E461E045E024E004
S1133EC00E941E2476C085E460E045E024E00E9460
S1133ED01E246FC087E460E045E028E00E941E24B1
S1133EE068C085E460E045E028E00E941E2461C0CB
S1133EF085E461E044E027E00E941E245AC081E08A
S1133F000E94022456C085E461E044E027E00E9458
S1133F101E244FC081E00E9402244BC085E461E06E
S1133F2044E027E00E941E2444C081E00E94022451
S1133F3040C085E461E044E023E00E941E2439C0CF
S1133F4081E00E94022435C085E461E044E023E07E
S1133F500E941E242EC085E00E9402242AC085E40B
S1133F6061E045E024E00E941E2423C085E460E073
S1133F7045E023E00E941E241CC081E00E9402242C
S1133F8018C085E460E045E024E00E941E2411C0CE
S1133F9087E461E045E028E00E941E240AC085E42D
S1133FA060E045E028E00E941E2403C08FEF809368
S1133FB040010F900F900F900F90CF91DF910895D3
S1133FC0DF93CF9300D000D0CDB7DEB79A83898337
S1133FD089819A819C838B838B819C818830910514
S1133FE009F49FC08B819C818930910588F58B8170
S1133FF09C818330910509F471C08B819C8184304C
S1134000910568F48B819C818130910509F458C035
S11340108B819C818230910508F059C04AC08B8104
S11340209C818530910509F467C08B819C81853022
S1134030910508F45AC08B819C818630910509F45E
S113404062C08B819C818730910509F463C0A5C04F
S11340508B819C818C30910509F47FC08B819C817C
S11340608D30910568F48B819C818A30910509F427
S113407066C08B819C818B30910508F067C058C065
S11340808B819C818E30910509F472C08B819C8157
S11340908E30910508F465C08B819C818F30910529
S11340A009F46DC08B819C818031910509F46EC047
S11340B074C082E460E043E028E00E941E2470C0E3
S11340C085E460E044E02CE00E941E2469C087E49B
S11340D061E044E02CE00E941E2462C087E460E0BA
S11340E044E020E10E941E245BC082E460E043E0DF
S11340F028E00E941E2454C087E461E044E028E0E4
S11341000E941E244DC084E460E044E020E30E9449
S11341101E2446C081E460E043E02CE00E941E249B
S11341203FC082E460E043E024E00E941E2438C0E3
S113413085E460E044E024E00E941E2431C081E470
S113414060E044E024E00E941E242AC082E460E08F
S113415044E02AE00E941E2423C082E00E9402243C
S11341601FC082E460E044E02CE00E941E2418C0DA
S113417081E460E044E024E00E941E2411C081E454
S113418061E044E024E00E941E240AC085E460E06B
S113419044E020E50E941E2403C08FEF8093400179
S11341A00F900F900F900F90CF91DF910895DF93B0
S11341B0CF9300D000D0CDB7DEB79A8389838981AD
S11341C09A819C838B838B819C818731910509F42F
S11341D00FC28B819C818831910508F0B5C08B8119
S11341E09C818B30910509F4AFC18B819C818C300B
S11341F0910508F054C08B819C818530910509F4A8
S11342007CC18B819C818630910520F58B819C81BA
S11342108230910509F45CC18B819C8183309105C6
S113422060F48B819C81009709F444C18B819C814B
S11342308130910509F445C17AC28B819C81833018
S1134240910509F44CC18B819C818430910509F45A
S11342504DC16DC28B819C818830910509F45FC189
S11342608B819C818930910568F48B819C81863097
S1134270910509F449C18B819C818730910509F42A
S11342804AC155C28B819C818930910509F44EC184
S11342908B819C818A30910509F44FC148C28B817E
S11342A09C818131910509F479C18B819C81823192
S11342B0910528F58B819C818E30910509F459C1B3
S11342C08B819C818F30910568F48B819C818C302B
S11342D0910509F440C18B819C818D30910509F4CD
S11342E041C125C28B819C818F30910509F448C15D
S11342F08B819C818031910509F449C118C28B815D
S11343009C818431910509F45EC18B819C81853146
S1134310910568F48B819C818231910509F445C132
S11343208B819C818331910509F446C100C28B8144
S11343309C818531910509F44DC18B819C81863125
S1134340910509F44EC1F3C18B819C81833291059F
S113435009F49FC18B819C818432910508F055C07A
S11343608B819C818D31910509F469C18B819C817C
S11343708E31910528F58B819C818A31910509F450
S11343804CC18B819C818B31910568F48B819C811C
S11343908831910509F433C18B819C818931910560
S11343A009F434C1C4C18B819C818B31910509F41A
S11343B03BC18B819C818C31910509F43CC1B7C10F
S11343C08B819C818032910509F44EC18B819C8143
S11343D08132910568F48B819C818E31910509F4B9
S11343E035C18B819C818F31910509F436C19FC100
S11343F08B819C818132910509F43DC18B819C8123
S11344008232910509F43EC192C18B819C8189322B
S1134410910509F468C18B819C818A32910528F544
S11344208B819C818632910509F448C18B819C81E2
S11344308732910568F48B819C818432910509F45B
S11344402FC18B819C818532910509F430C16FC1E4
S11344508B819C818732910509F437C18B819C81C2
S11344608832910509F438C162C18B819C818C32F8
S1134470910509F44DC18B819C818D32910568F4BD
S11344808B819C818A32910509F434C18B819C8192
S11344908B32910509F435C14AC18B819C818D32DF
S11344A0910509F439C18B819C818E32910509F4FF
S11344B03AC13DC184E460E043E020E10E941E244F
S11344C039C185E460E043E020E10E941E2432C14A
S11344D086E460E043E028E00E941E242BC185E4CA
S11344E060E043E028E00E941E2424C183E460E0ED
S11344F043E028E00E941E241DC181E460E042E004
S113450028E00E941E2416C184E460E043E020E118
S11345100E941E240FC188E00E9402240BC184E47F
S113452060E043E028E00E941E2404C183E460E0CC
S113453043E028E00E941E24FDC081E460E042E0E4
S113454028E00E941E24F6C086E460E042E028E0F1
S11345500E941E24EFC087E460E042E028E00E944D
S11345601E24E8C081E460E042E020E10E941E24B1
S1134570E1C087E460E042E020E10E941E24DAC04A
S113458085E460E042E028E00E941E24D3C086E473
S113459060E042E028E00E941E24CCC081E460E098
S11345A042E028E00E941E24C5C083E460E043E0AA
S11345B028E00E941E24BEC085E460E043E020E1C0
S11345C00E941E24B7C086E460E043E020E10E941C
S11345D01E24B0C083E460E043E020E30E941E2474
S11345E0A9C085E460E043E020E10E941E24A2C04B
S11345F086E460E043E028E00E941E249BC085E43A
S113460060E043E028E00E941E2494C083E460E05C
S113461043E028E00E941E248DC081E460E042E073
S113462028E00E941E2486C084E460E043E020E188
S11346300E941E247FC088E00E9402247BC084E480
S113464060E043E028E00E941E2474C083E460E03C
S113465043E028E00E941E246DC081E460E042E053
S113466028E00E941E2466C086E460E042E028E060
S11346700E941E245FC087E460E042E028E00E94BC
S11346801E2458C081E460E042E020E10E941E2420
S113469051C087E460E042E020E10E941E244AC049
S11346A085E460E042E028E00E941E2443C086E4E2
S11346B060E042E028E00E941E243CC081E460E007
S11346C042E028E00E941E2435C083E460E043E019
S11346D028E00E941E242EC085E460E043E028E028
S11346E00E941E2427C084E460E043E028E00E9486
S11346F01E2420C083E460E043E028E00E941E24DE
S113470019C084E460E043E026E00E941E2412C045
S113471082E00E9402240EC084E460E043E02EE1C3
S11347200E941E2407C082E00E94022403C08FEF6F
S1134730809340010F900F900F900F90CF91DF91D5
S11347400895DF93CF9300D000D0CDB7DEB789832F
S11347506A838981282F30E03C832B838B819C8161
S11347608230910559F12B813C812330310554F479
S11347708B819C810097B1F02B813C8121303105E4
S1134780B9F034C08B819C818430910519F12B815F
S11347903C8124303105C4F08B819C8185309105A6
S11347A0F9F024C08A81882F90E00E94CE0F23C0A4
S11347B08A81882F90E00E948B131DC08A81882FE4
S11347C090E00E94C01617C08A81882F90E00E9452
S11347D0561E11C08A81882F90E00E94E01F0BC0F2
S11347E08A81882F90E00E94D72005C08A81882F73
S11347F090E00E94CE0F0F900F900F900F90CF91EA
S1134800DF910895DF93CF930F92CDB7DEB78983FD
S1134810A2E3B0E0E2E3F0E0808184608C93109244
S11348204701109246018981882F90E090934501B9
S1134830809344010F90CF91DF910895DF93CF933C
S1134840CDB7DEB768970FB6F894DEBF0FBECDBF05
S113485089836A834B832C83A2E3B0E0E2E3F0E034
S113486080818B7F8C9310924701109246018C813A
S1134870882F90E090934501809344018B81282FE9
S113488030E0388F2F8B8F89988D8430910509F40F
S113489093C22F89388D25303105ECF48F89988D9A
S11348A08130910509F4C6C02F89388D2230310535
S11348B02CF48F89988D009739F16CC52F89388D28
S11348C02230310509F44CC18F89988D83309105CC
S11348D009F4DCC15FC52F89388D2630310509F410
S11348E097C38F89988D863091050CF4FBC22F896C
S11348F0388D2730310509F421C48F89988D88308B
S1134900910509F4B1C446C58981282F30E03E8B56
S11349102D8B8D899E898434910509F451C02D898C
S11349203E892534310584F48D899E89823491052C
S113493079F12D893E8923343105DCF58D899E89F1
S113494081349105A1F02AC52D893E89263431058B
S113495009F458C08D899E89863491050CF441C0B0
S11349602D893E892734310509F453C017C58A813E
S1134970882339F0EAE4F0E08EEC92E191838083BD
S11349800DC5EAE4F0E080EC91E19183808306C5F3
S11349908A81882339F0EAE4F0E080EC90E19183A5
S11349A08083FCC4EAE4F0E080ED9FE0918380839F
S11349B0F5C4EAE4F0E08CED9DE191838083EEC4DC
S11349C08A81882339F0EAE4F0E080E39CE1918372
S11349D08083E4C4EAE4F0E08AE99AE19183808385
S11349E0DDC48A81882339F0EAE4F0E089E199E1C1
S11349F091838083D3C4EAE4F0E082EB97E191836E
S1134A008083CCC4EAE4F0E08DE596E19183808371
S1134A10C5C48A81882339F0EAE4F0E08DE195E1A8
S1134A2091838083BBC4EAE4F0E08DEE93E191834B
S1134A308083B4C48981282F30E03C8B2B8B8B89F5
S1134A409C898434910509F451C02B893C8925340F
S1134A50310584F48B899C898234910579F12B8901
S1134A603C8923343105DCF58B899C89813491059B
S1134A70A1F094C42B893C892634310509F458C02B
S1134A808B899C89863491050CF441C02B893C891F
S1134A902734310509F453C081C48A81882339F04D
S1134AA0EAE4F0E087E699E09183808377C4EAE45E
S1134AB0F0E08FED98E09183808370C48A8188232D
S1134AC039F0EAE4F0E080E698E09183808366C4FC
S1134AD0EAE4F0E087EE97E0918380835FC4EAE440
S1134AE0F0E08DEE9EE09183808358C48A81882310
S1134AF039F0EAE4F0E086E19EE0918380834EC4DD
S1134B00EAE4F0E08CE49DE09183808347C48A81E9
S1134B10882339F0EAE4F0E08DE89CE09183808317
S1134B203DC4EAE4F0E088ED9BE09183808336C4E1
S1134B30EAE4F0E08EE29BE0918380832FC48A81D3
S1134B40882339F0EAE4F0E08DE89AE091838083E9
S1134B5025C4EAE4F0E086EF99E0918380831EC4E3
S1134B608981282F30E03A8B298B89899A8984346A
S1134B70910509F451C029893A892534310584F411
S1134B8089899A898234910579F129893A8923346A
S1134B903105DCF589899A8981349105A1F0FEC338
S1134BA029893A892634310509F458C089899A89B2
S1134BB0863491050CF441C029893A89273431059A
S1134BC009F453C0EBC38A81882339F0EAE4F0E0A6
S1134BD082EB94E091838083E1C3EAE4F0E08FE622
S1134BE094E091838083DAC38A81882339F0EAE4EC
S1134BF0F0E08FE294E091838083D0C3EAE4F0E0B4
S1134C0083EF93E091838083C9C3EAE4F0E086E70D
S1134C1097E091838083C2C38A81882339F0EAE4D0
S1134C20F0E08AE097E091838083B8C3EAE4F0E09F
S1134C3085EA96E091838083B1C38A81882339F021
S1134C40EAE4F0E086E496E091838083A7C3EAE493
S1134C50F0E08BEE95E091838083A0C3EAE4F0E07A
S1134C6086E995E09183808399C38A81882339F00A
S1134C70EAE4F0E086E495E0918380838FC3EAE47C
S1134C80F0E08AEF94E09183808388C38981282FA0
S1134C9030E0388B2F878F8598898434910509F407
S1134CA051C02F8538892534310584F48F8598893E
S1134CB08234910579F12F85388923343105DCF567
S1134CC08F85988981349105A1F068C32F8538892F
S1134CD02634310509F458C08F85988986349105A6
S1134CE00CF441C02F8538892734310509F453C0A9
S1134CF055C38A81882339F0EAE4F0E088E592E03C
S1134D00918380834BC3EAE4F0E087E392E09183EC
S1134D10808344C38A81882339F0EAE4F0E087E1A0
S1134D2092E0918380833AC3EAE4F0E089EF91E072
S1134D309183808333C3EAE4F0E08AEB93E09183C8
S1134D4080832CC38A81882339F0EAE4F0E084E884
S1134D5093E09183808322C3EAE4F0E082E593E068
S1134D60918380831BC38A81882339F0EAE4F0E0CD
S1134D7082E293E09183808311C3EAE4F0E085EF5B
S1134D8092E0918380830AC3EAE4F0E08AEC92E043
S1134D909183808303C38A81882339F0EAE4F0E0B5
S1134DA082EA92E091838083F9C2EAE4F0E08CE73E
S1134DB092E091838083F2C28981282F30E03E877C
S1134DC02D878D859E858434910509F451C02D85E8
S1134DD03E852534310584F48D859E858234910584
S1134DE079F12D853E8523343105DCF58D859E854D
S1134DF081349105A1F0D2C22D853E85263431053A
S1134E0009F458C08D859E85863491050CF441C003
S1134E102D853E852734310509F453C0BFC28A81EC
S1134E20882339F0EAE4F0E08BE291E09183808317
S1134E30B5C2EAE4F0E08BE191E091838083AEC2F5
S1134E408A81882339F0EAE4F0E08BE091E09183F1
S1134E508083A4C2EAE4F0E08CEF90E09183808345
S1134E609DC2EAE4F0E08CED91E09183808396C2E8
S1134E708A81882339F0EAE4F0E081EC91E09183BF
S1134E8080838CC2EAE4F0E088EA91E09183808335
S1134E9085C28A81882339F0EAE4F0E080E991E070
S1134EA0918380837BC2EAE4F0E08AE791E0918316
S1134EB0808374C2EAE4F0E084E691E09183808325
S1134EC06DC28A81882339F0EAE4F0E080E591E05C
S1134ED09183808363C2EAE4F0E08DE391E09183FF
S1134EE080835CC28981282F30E03C872B878B85A7
S1134EF09C858434910509F451C02B853C85253467
S1134F00310584F48B859C858234910579F12B8558
S1134F103C8523343105DCF58B859C8581349105F2
S1134F20A1F03CC22B853C852634310509F458C0D8
S1134F308B859C85863491050CF441C02B853C857A
S1134F402734310509F453C029C28A81882339F0F2
S1134F50EAE4F0E085E990E0918380831FC2EAE40B
S1134F60F0E08DE890E09183808318C28A818823E1
S1134F7039F0EAE4F0E085E890E0918380830EC2A2
S1134F80EAE4F0E08DE790E09183808307C2EAE4ED
S1134F90F0E08DEE90E09183808300C28A818823C3
S1134FA039F0EAE4F0E080EE90E091838083F6C18A
S1134FB0EAE4F0E083ED90E091838083EFC18A819D
S1134FC0882339F0EAE4F0E087EC90E09183808371
S1134FD0E5C1EAE4F0E08CEB90E091838083DEC1EC
S1134FE0EAE4F0E081EB90E091838083D7C18A8189
S1134FF0882339F0EAE4F0E087EA90E09183808343
S1135000CDC1EAE4F0E08EE990E091838083C6C1EB
S11350108981282F30E03A87298789859A858434C5
S1135020910509F451C029853A852534310584F464
S113503089859A858234910579F129853A852334C5
S11350403105DCF589859A8581349105A1F0A6C1E5
S113505029853A852634310509F458C089859A850D
S1135060863491050CF441C029853A8527343105ED
S113507009F453C093C18A81882339F0EAE4F0E04B
S11350808AE490E09183808389C1EAE4F0E086E4D5
S113509090E09183808382C18A81882339F0EAE495
S11350A0F0E082E490E09183808378C1EAE4F0E068
S11350B08EE390E09183808371C1EAE4F0E086E7B7
S11350C090E0918380836AC18A81882339F0EAE47D
S11350D0F0E08FE690E09183808360C1EAE4F0E041
S11350E089E690E09183808359C18A81882339F0CD
S11350F0EAE4F0E083E690E0918380834FC1EAE440
S1135100F0E08DE590E09183808348C1EAE4F0E02B
S113511088E590E09183808341C18A81882339F0B6
S1135120EAE4F0E083E590E09183808337C1EAE428
S1135130F0E08EE490E09183808330C18981282F50
S113514030E038872F838F8198858434910509F462
S113515051C02F8138852534310584F48F81988599
S11351608234910579F12F81388523343105DCF5BA
S11351708F81988581349105A1F010C12F813885E4
S11351802634310509F458C08F81988586349105F9
S11351900CF441C02F8138852734310509F453C0FC
S11351A0FDC08A81882339F0EAE4F0E084E290E0EB
S11351B091838083F3C0EAE4F0E082E290E091839B
S11351C08083ECC08A81882339F0EAE4F0E080E24D
S11351D090E091838083E2C0EAE4F0E08EE190E025
S11351E091838083DBC0EAE4F0E08AE390E091837A
S11351F08083D4C08A81882339F0EAE4F0E087E32D
S113520090E091838083CAC0EAE4F0E084E390E014
S113521091838083C3C08A81882339F0EAE4F0E073
S113522081E390E091838083B9C0EAE4F0E08EE208
S113523090E091838083B2C0EAE4F0E08BE290E0F6
S113524091838083ABC08A81882339F0EAE4F0E05B
S113525089E290E091838083A1C0EAE4F0E086E2F1
S113526090E0918380839AC08981282F30E03E8327
S11352702D838D819E818434910509F451C02D8143
S11352803E812534310584F48D819E8182349105DB
S113529079F12D813E8123343105DCF58D819E81A8
S11352A081349105A1F07AC02D813E8126343105E7
S11352B009F458C08D819E81863491050CF441C057
S11352C02D813E812734310509F453C067C08A819A
S11352D0882339F0EAE4F0E08BE090E09183808366
S11352E05DC0EAE4F0E089E090E09183808356C0F9
S11352F08A81882339F0EAE4F0E087E090E0918342
S113530080834CC0EAE4F0E085E090E09183808300
S113531045C0EAE4F0E08CE190E0918380833EC0F4
S11353208A81882339F0EAE4F0E08BE190E091830C
S1135330808334C0EAE4F0E089E190E091838083E3
S11353402DC08A81882339F0EAE4F0E088E190E016
S11353509183808323C0EAE4F0E085E190E09183C7
S113536080831CC0EAE4F0E082E190E091838083D2
S113537015C08A81882339F0EAE4F0E080E190E006
S1135380918380830BC0EAE4F0E08DE090E09183A8
S1135390808304C0EAE4F0E01182108268960FB6BC
S11353A0F894DEBF0FBECDBFCF91DF910895DF9398
S11353B0CF93CDB7DEB710924001AEE4B0E0EEE497
S11353C0F0E080818C7F8C93A2E3B0E0E2E3F0E034
S11353D0808184608C93CF91DF910895DF93CF9384
S11353E0CDB7DEB710924001AEE4B0E0EEE4F0E0F9
S11353F0808183608C93A2E3B0E0E2E3F0E08081FB
S11354008B7F8C938091430190914001692F0E947E
S1135410A123CF91DF910895DF93CF93CDB7DEB76A
S1135420A7E5B0E0E7E5F0E0808180618C93EFE4EC
S1135430F0E01082AEE4B0E0EEE4F0E08081886059
S11354408C93EAE7F0E01082EAE4F0E081E390E094
S1135450918380830E94D7291092470110924601BC
S113546010924501109244011092400185E080930E
S11354704301CF91DF9108951F920F920FB60F92BF
S113548000905B000F9211242F933F934F935F93EF
S11354906F937F938F939F93AF93BF93EF93FF93F8
S11354A0DF93CF93CDB7DEB7A2E3B0E0E2E3F0E061
S11354B0908180E889278C9320914601309147019F
S11354C080914401909145012817390760F080913B
S11354D040018F5F8093400180914301909140018E
S11354E0692F0E94A123CF91DF91FF91EF91BF918A
S11354F0AF919F918F917F916F915F914F913F9168
S11355002F910F9000925B000F900FBE0F901F9091
S11355101895EF92FF920F931F937B018C0120E06B
S113552030E040E05FE40E94352E88238CF0C8010F
S1135530B70120E030E040E05FE40E94012C0E94CB
S1135540952E9B01AC01205030404040504806C08D
S1135550C801B7010E94952E9B01AC01B901CA0193
S11355601F910F91FF90EF900895A0E0B0E0EBEB56
S1135570FAE20C94F330DC012B01FA019C91923095
S113558008F439C1EB018881823008F433C19430C6
S113559069F4843009F02FC111969C911197898187
S11355A0981709F428C1A9E0B1E025C1843009F4B1
S11355B021C18230A9F4923009F01DC19A01AD01D4
S11355C088E0EA010990AE01E90109929E01815047
S11355D0C1F7E201898111969C918923818308C1D5
S11355E0923009F407C112962D903C901397EB0169
S11355F08A819B811496AD90BD90CD90DC901797D5
S1135600EC80FD800E811F819101281B390BB901AB
S113561037FF04C066277727621B730B603271055E
S11356200CF061C0121613066CF537014801062E02
S113563004C096948794779467940A94D2F721E0EF
S113564030E040E050E004C0220F331F441F551FD8
S11356506A95D2F721503040404050402E213F21DE
S113566040235123211531054105510521F021E045
S113567030E040E050E079018A01E628F728082963
S113568019293CC0232BD1F1260E371E35014601C2
S1135690062E04C096948794779467940A94D2F75C
S11356A021E030E040E050E004C0220F331F441FEB
S11356B0551F6A95D2F721503040404050402A216E
S11356C03B214C215D21211531054105510521F076
S11356D021E030E040E050E059016A01A628B728F3
S11356E0C828D9280BC0821593052CF01C01AA24C4
S11356F0BB24650103C0EE24FF24870111969C910D
S1135700D20111968C91981709F445C0992339F068
S1135710A80197012A193B094C095D0906C0A60195
S113572095012E193F09400B510B57FD08C01182FA
S11357303382228224833583468357831DC081E0CC
S113574081833382228288279927DC01821B930B71
S1135750A40BB50B84839583A683B7830DC0220F56
S1135760331F441F551F2483358346835783828107
S11357709381019793838283248135814681578164
S1135780DA01C9010197A109B1098F5F9F4FAF4F9A
S1135790BF4328F30BC0918333822282EA0CFB1CA3
S11357A00C1D1D1DE482F5820683178383E080832C
S11357B0248135814681578157FF1AC0C901AA2720
S11357C097FDA095BA2F81709070A070B070569517
S11357D0479537952795822B932BA42BB52B848340
S11357E09583A683B7838281938101969383828371
S11357F0DF0101C0D201CD01CDB7DEB7E2E10C94E7
S11358000F31A0E2B0E0E7E0FCE20C94FF306983E2
S11358107A838B839C832D833E834F835887E9E06F
S1135820EE2EF12CEC0EFD1ECE010196B7010E9466
S1135830BE2F8E010F5E1F4FCE010596B8010E9448
S1135840BE2F8A8991E089278A8BC701B801AE01EE
S1135850475E5F4F0E94B52A0E94E92EA096E6E0BB
S11358600C941B31A0E2B0E0E8E3FCE20C94FF30BE
S113587069837A838B839C832D833E834F835887EC
S1135880F9E0EF2EF12CEC0EFD1ECE010196B701CE
S11358900E94BE2F8E010F5E1F4FCE010596B801E8
S11358A00E94BE2FC701B801AE01475E5F4F0E9440
S11358B0B52A0E94E92EA096E6E00C941B31A0E2E2
S11358C0B0E0E5E6FCE20C94F33069837A838B83E1
S11358D09C832D833E834F835887CE010196BE015E
S11358E0675F7F4F0E94BE2FCE010596BE016F5E9B
S11358F07F4F0E94BE2F9985923088F0898982302B
S1135900C8F0943019F4823051F404C0843029F47E
S1135910923081F489E091E0C6C0923049F420E0ED
S11359209A858A89981321E02A87CE010996BBC0FB
S1135930823049F420E09A858A89981321E02A8BE1
S1135940CE014196B0C02D843E844F8458886D8822
S11359507E888F88988CEE24FF248701AA24BB2498
S1135960650140E050E060E070E0E0E0F0E0C1019B
S113597081709070892BE9F0E60CF71C081D191D45
S11359809A01AB012A0D3B1D4C1D5D1D80E090E08A
S1135990A0E0B0E0E614F7040805190520F481E05E
S11359A090E0A0E0B0E0BA01A901480F591F6A1FB6
S11359B07B1FAA0CBB1CCC1CDD1C97FE08C081E01D
S11359C090E0A0E0B0E0A82AB92ACA2ADB2A3196DE
S11359D0E032F10549F0660C771C881C991C56943A
S11359E0479437942794C3CFFA85EA892B893C8955
S11359F08B859C85280F391F2E5F3F4F17C0CA0126
S1135A0081709070892B61F016950795F794E7944F
S1135A1080E090E0A0E0B0E8E82AF92A0A2B1B2BEA
S1135A2076956795579547952F5F3F4F77FDE7CF5D
S1135A300CC0440F551F661F771F17FD4160EE0C05
S1135A40FF1C001F111F21503040403090E05907C7
S1135A5090E0690790E4790760F32B8F3C8FDB01BA
S1135A60CA018F779070A070B07080349105A10541
S1135A70B10561F447FD0AC0E114F1040105110503
S1135A8029F0405C5F4F6F4F7F4F40781A8EFE17AE
S1135A9011F081E08A8F4D8F5E8F6F8F78A383E042
S1135AA0898FCE0149960E94E92EA096E2E10C94DA
S1135AB00F31A8E1B0E0EFE5FDE20C94FB3069831F
S1135AC07A838B839C832D833E834F835887B9E0ED
S1135AD0EB2EF12CEC0EFD1ECE010196B7010E94B7
S1135AE0BE2F8E010F5E1F4FCE010596B8010E9496
S1135AF0BE2F2985223008F47EC03989323010F453
S1135B00B8017CC08A859A8989278A87243011F054
S1135B10223031F4231709F06EC069E071E06EC0E1
S1135B20343039F41D861E861F86188A1C861B860F
S1135B3004C0323021F484E08987B7015FC02B852B
S1135B403C858B899C89281B390B3C872B87ED84EA
S1135B50FE840F851889AD88BE88CF88D88CEA1456
S1135B60FB040C051D0540F4EE0CFF1C001F111F67
S1135B70215030403C872B8720E030E040E050E06B
S1135B8080E090E0A0E0B0E460E070E0EA14FB04A0
S1135B900C051D0540F0282B392B4A2B5B2BEA18EA
S1135BA0FB080C091D09B695A79597958795EE0CEA
S1135BB0FF1C001F111F6F5F7F4F6F31710531F79D
S1135BC0DA01C9018F779070A070B07080349105AC
S1135BD0A105B10561F427FD0AC0E114F104010532
S1135BE0110529F0205C3F4F4F4F5F4F20782D87E0
S1135BF03E874F87588BBE01675F7F4FCB010E9462
S1135C00E92E6896EAE00C941731A8E1B0E0EBE0E5
S1135C10FEE20C94FF3069837A838B839C832D830B
S1135C203E834F83588789E0E82EF12CEC0EFD1E4D
S1135C30CE010196B7010E94BE2F8E010F5E1F4F49
S1135C40CE010596B8010E94BE2F8985823040F0AE
S1135C508989823028F0C701B8010E94363001C01A
S1135C608FEF6896E6E00C941B31A8E1B0E0EBE31B
S1135C70FEE20C94FF3069837A838B839C832D83AB
S1135C803E834F83588789E0E82EF12CEC0EFD1EED
S1135C90CE010196B7010E94BE2F8E010F5E1F4FE9
S1135CA0CE010596B8010E94BE2F8985823040F04E
S1135CB08989823028F0C701B8010E94363001C0BA
S1135CC08FEF6896E6E00C941B31A8E1B0E0EBE6B8
S1135CD0FEE20C94FF3069837A838B839C832D834B
S1135CE03E834F83588789E0E82EF12CEC0EFD1E8D
