:100000000C9467020C9486020C9486020C9486026F
:100010000C9486020C9486020C9486020C94860240
:100020000C9486020C94C4030C9486020C948602F1
:100030000C940A190C9486020C9486020C94860285
:100040000C94EF050C9486020C9485030C948602A4
:100050000C9486020C9486020C9486020C94860200
:100060000C9486020C9486020C9486020C948602F0
:100070000C9486020C9486020C9486020C948602E0
:100080000C9486020C9486020C94860225102C1087
:1000900033101E10021009102510621017100210E4
:1000A000091010103A10411048104F10101009108C
:1000B00002102C10751083102C1033101E1002101B
:1000C00009102510621017100210091010103A10B4
:1000D000411048104F101010091002101E10171078
:1000E00002107C1056106E105610A110D210AF10D6
:1000F000B610A110A810BD10C410FA1001119A106A
:10010000E010E710F3109A10D910CB102B11181132
:100110002B1118112B1118114C1118114C113911E8
:1001200024115A1124116F11451132111811321175
:10013000181132111811531118115311391161117D
:100140006811181124117611451198168C16851610
:100150007916721666165F16581651164A163E160E
:100160003716301624161D1611160A16FE15F71529
:10017000EB15E415DD15D615CF15C315BC15B51552
:10018000AE15A7159B159415881581157A1573154D
:100190006715601554154D1541153A152E1527157F
:1001A0001B15141508150115FA14F314EC14E014BA
:1001B000D914D214CB14C414B814B114A5149E14B9
:1001C0009714901484147D1476146F1468145C14BE
:1001D0005514491442143B143414281421141A14CD
:1001E000131407140014F913F213EB13DF13D813CD
:1001F000CC13C513B913B213A6139F1393138C1307
:1002000085137E1377136B136413581351134A131A
:100210004313371330132913221316130F13031329
:10022000FC12F012E912DD12D612CA12C312B71272
:10023000B012A4129D1296128F1288127C1275129F
:100240006E1262125B124F1248123C1235122912C2
:1002500022121B12141208120112F511EE11E211F2
:10026000DB11CF11C811C111BA11B311A711A0111F
:1002700099118D11B616DE16AF16D716301729173D
:10028000AF16DE16C916BD167B17AF16B616D716F3
:10029000AF166617AF16E516B6160117C916BD16C6
:1002A000FA169017E5161B17581745171B17221734
:1002B000AF16B616D716AF169C17BD16DE16AF16BC
:1002C000E516B6160117C916BD165F1708171417DD
:1002D000D016EC16F316D0163E176D1774170817C4
:1002E0001417D016EC16F31689173717FA1682175B
:1002F0004C17CF17DD17C817F217BA17C117BA175F
:10030000C117F917CF17DD17C817F217D617B3178C
:10031000D617B31726185C181A1855181A18A218E9
:100320003418B3172D18B3174918E4179418BA17CF
:10033000861800187F1807188D184218EB17E41755
:100340006A180E18CF17DD17C817F217BA17C1179A
:10035000BA17C117F917CF176318EB17C817D617B5
:10036000B317D617B317261871183B18F917781852
:100370002D1800180718E417EB179B180E186E615C
:100380006E00696E66006364696E6F70737578588D
:100390005B65666745464700616E006E66696E691B
:1003A000747900CDCCCC3D0AD7233C17B7D1387730
:1003B000CC2B329595E6241FB14F0A000020410056
:1003C00000C84200401C4620BCBE4CCA1B0E5AAEA0
:1003D000C59D7400407A10F35A00A0724E180900AF
:1003E00010A5D4E80000E87648170000E40B54029A
:1003F0000000CA9A3B000000E1F5050000809698D5
:1004000000000040420F000000A086010000001024
:100410002700000000E80300000000640000000066
:10042000000A00000000000100000000002C76D847
:1004300088DC674F0823DFC1DFAE59E1B1B796E52D
:10044000E3E453C63AE651997696E8E6C28426EB91
:10045000898C9B62ED407C6FFCEFBC9C9F40F2BAA4
:10046000A56FA5F490055A2AF75C936B6CF9676D3C
:10047000C11BFCE0E40D47FEF520E6B500D0ED9091
:100480002E0300943577050080841E080000204E5E
:100490000A000000C80C333333330F986E128311F7
:1004A00041EF8D2114893BE65516CFFEE6DB18D1CE
:1004B000844B381BF77C1D901DA4BBE424203284A0
:1004C000725E228100C9F124ECA1E53D27001124D0
:1004D0001FBECFEFD0E1DEBFCDBF11E0A0E0B1E0A5
:1004E000ECE0FAE400E00BBF02C007900D92AE3AD8
:1004F000B107D9F712E0AEEAB1E001C01D92A43015
:10050000B107E1F70E9416040C9404250C94000036
:1005100080B7886080BF87B7816087BF83B78160FD
:1005200083BF089585B5896685BD13BC08958DB1D7
:1005300080658DB9709A08953E9A86B1876A86B9AA
:10054000369A08959093900089B988E98AB986E02F
:100550008093950008959C0168EE73E00E947D22CF
:10056000CB016AE070E00E947D22E82FC90164E6B9
:1005700070E00E947D22CB016AE070E00E947D2243
:10058000482FC9016AE070E00E947D22CB016AE039
:1005900070E00E947D22F82FC9016AE070E00E949D
:1005A0007D22982F8091B7018130E1F080918C01FC
:1005B000882361F4E093D9014093D8018FEF8093B1
:1005C000D701F093D6019093D5010895E093D90116
:1005D0004093D80182E08093D701F093D6019093A5
:1005E000D5010895EE2311F7442301F742E0E1E03D
:1005F000DDCF90E049B3FC01EE0FFF1FEB53FE4F40
:1006000020813181220F331F306E50E002C055959A
:1006100047958A95E2F741705070242B352B318332
:10062000208380E02050304F09F0089581E0089544
:10063000982F80919F01882369F088B3806688BBDA
:10064000C4989FB9779BFECF88B38F7888BB81E031
:1006500080939F010895EF92FF920F931F932CE3D5
:1006600030E040E050E00E94C62279018A01C901D1
:100670006CE370E00E947D22CB0168E170E00E9493
:100680007D2224E630E0A901849F9001859F300DF2
:10069000949F300D1124C7016CE370E00E947D220D
:1006A000280F391FC9011F910F91FF90EF900895F6
:1006B000EF92FF920F931F932CE330E040E050E065
:1006C0000E94C62279018A01C9016CE370E00E9490
:1006D0007D22CB016CE070E00E947D2224E630E0B8
:1006E000A901849F9001859F300D949F300D1124A6
:1006F000C7016CE370E00E947D22280F391FC901F9
:100700001F910F91FF90EF9008951F920F920FB6D7
:100710000F9211242F933F938F939F938091830186
:10072000882321F58CB18093B4018091B40120918C
:10073000F7013091F80190E0822B932B9093F80110
:100740008093F70181E0809383018091F70190917C
:10075000F8019093F3018093F2019F918F913F9163
:100760002F910F900FBE0F901F9018958CB1809312
:10077000B4012091B401922F80E09093F80180930E
:10078000F70110928301E9CF1F920F920FB60F92DB
:1007900011240F900FBE0F901F90189584EA80933C
:1007A00074008091740087FFFCCF80917100887F76
:1007B000883061F580E98093730084E88093740049
:1007C0008091740087FFFCCF80917100887F883111
:1007D000A9F41092730084E88093740080917400EF
:1007E00087FFFCCF80917100887F8832B9F484E95B
:1007F0008093740020E030E0C901089587E091E023
:100800000E941C0C21E030E0C901089580E091E0D5
:100810000E941C0C21E030E0C90108958EE091E0B7
:100820000E941C0C21E030E0C90108954F925F92B4
:100830006F927F928F929F92AF92BF92CF92DF92F0
:10084000EF92FF920F931F93DF93CF93CDB7DEB755
:10085000C054D0400FB6F894DEBF0FBECDBF0E948B
:10086000E9188FEF87BB81BB88E08093610081E04E
:100870008093620083E0809370008DB180658DB9B4
:10088000709A80B7886080BF87B7816087BF83B761
:10089000816083BF85B5896685BD13BC3E9A86B1EC
:1008A000876A86B9369A0E94940B1092900087E668
:1008B00089B988E98AB986E0809395007894109286
:1008C000FA011092F9011092B3011092B201109244
:1008D0000102109200028091AE019091AF013E01A1
:1008E0000894611C711C61E1462E512C4C0E5D1E5A
:1008F00051E2852E912C8C0E9D1E41E3C42ED12CED
:10090000CC0EDD1EEE24E394FF24FA9434E6A32EED
:10091000B12C70C08091840190918501A0918601D5
:10092000B0918701209188013091890140918A011D
:1009300050918B0182179307A407B50709F44AC1A8
:10094000803861E5960761E0A60760E0B60764F0CD
:1009500080589145A140B0408093840190938501D7
:10096000A0938601B0938701B7FD0BC1203881E5C4
:10097000380781E0480780E0580784F0DA01C901B0
:1009800080589145A140B04080938801909389019F
:10099000A0938A01B0938B019C01AD0157FDE4C087
:1009A000E091AE01F091AF01EB52FE4F80810E94C9
:1009B000E20AFABAFBBA2091AE012295207F98B3E1
:1009C000922B98BB98B39077922398BB8BBB809166
:1009D000BB01882309F06AC08091BC01882309F01B
:1009E0005EC08091AE019091AF0101969093AF01EE
:1009F0008093AE01059720F01092AF011092AE01E6
:100A00008091B501882321F48091B601882399F45F
:100A10008091B701813009F4C1C060918401709167
:100A2000850180918601909187010E942B030E948D
:100A3000AB028091B601882389F08091B7018130A3
:100A400009F4BBC0609188017091890180918A018D
:100A500090918B010E942B030E94AB028091B80100
:100A60008823B1F48091B901882309F053CF809194
:100A7000840190918501A0918601B0918701209118
:100A800088013091890140918A0150918B0158CFA2
:100A90008091EE019091EF010E94AB02E3CF0E94A2
:100AA000150B0E94450B1092BC019BCF8091FC015D
:100AB0009091FD0164E070E00E949122DC01CB0185
:100AC0008D01B3014AE050E00E94EA230A9DC00173
:100AD0000B9D900D1A9D900D112464E070E00E9412
:100AE0009122CB01B2014AE050E00E94EA238091BA
:100AF000F2019091F30164E070E00E949122DC0128
:100B0000CB018D01B4014AE050E00E94EA230A9D26
:100B1000C0010B9D900D1A9D900D112464E070E0B2
:100B20000E949122CB01B6014AE050E00E94EA23E4
:100B30000E94150B0E942D0BC3010E941C0C8EE21B
:100B40000E947B0BC2010E941C0C80E20E947B0B66
:100B5000C4010E941C0C8EE20E947B0BC6010E9405
:100B60001C0C1092BB0138CF20583E4A4E4F5F4FAD
:100B7000209388013093890140938A0150938B011F
:100B80000FCF80589E4AAE4FBF4F80938401909301
:100B90008501A0938601B0938701E8CE609184011E
:100BA0007091850180918601909187010E94580380
:100BB0000E94AB028091B6013ECF60918801709196
:100BC000890180918A0190918B010E9458030E94B3
:100BD000AB0244CF0E94DC18E092BA0148CF1F92CA
:100BE0000F920FB60F920BB60F9211248F929F9215
:100BF000AF92BF92CF92DF92EF92FF920F931F932B
:100C00002F933F934F935F936F937F938F939F9314
:100C1000AF93BF93EF93FF93DF93CF93CDB7DEB73F
:100C20002897DEBFCDBF93E0998321E02A831B8202
:100C300082E08C839D838E831F82288784B195B147
:100C4000A0E0B0E08093EE019093EF01A093F0015B
:100C5000B093F10188329105A105B10508F037C2C2
:100C600088E290E0A0E0B0E08093EE019093EF0185
:100C7000A093F001B093F1016091EE017091EF014A
:100C80008091F0019091F10163517140804090405A
:100C90006093EA017093EB018093EC019093ED0176
:100CA00023E030E040E050E00E94A422205B23BD1E
:100CB0008091B2019091B30101969093B30180931A
:100CC000B2018091B2019091B30183709070892B31
:100CD00049F48091000290910102019690930102E3
:100CE000809300028091B0019091B1018034910510
:100CF00009F4B4C38038910509F4C1C301969093F7
:100D0000B1018093B0014091B601442309F0DBC1E9
:100D10008091B501882309F0D6C11ABA8FEF8BBB39
:100D200088B3806588BBC59885E38A95F1F729B3B8
:100D30008091C5019091C601880F991F906E30E097
:100D400021703070822B932B9093C6018093C50144
:100D50008050904F09F44CC389B32091C701309162
:100D6000C801220F331F306E90E0959587958170F2
:100D70009070282B392B3093C8012093C701205045
:100D8000304F09F4FDC289B32091C9013091CA01E5
:100D9000220F331F306E90E0959587959595879536
:100DA00081709070282B392B3093CA012093C90190
:100DB0002050304F09F4D5C289B32091CB01309136
:100DC000CC01220F331F306E90E095958795959555
:100DD00087959595879581709070282B392B309346
:100DE000CC012093CB012050304F09F495C289B338
:100DF0002091CD013091CE01220F331F306E90E053
:100E000095958795959587959595879595958795CA
:100E100081709070282B392B3093CE012093CD0117
:100E20002050304F09F45EC289B32091D101309136
:100E3000D201220F331F306E90E0082E892F000C54
:100E4000881F990B000C881F991F81709070282BA8
:100E5000392B3093D2012093D1012050304F09F427
:100E600022C229B38091D3019091D401880F991F98
:100E7000906E30E0220F232F221F330B3195822BEF
:100E8000932B9093D4018093D3018050904F09F419
:100E9000B0C188B38F7888BBC098C09A9FEF9FB9C4
:100EA0008FB18093C0019FB9B3E0AB2EA822A0926E
:100EB000C401ACE0BA2EB822B694B694B092C20186
:100EC0008090C301A81409F41BC18981A81609F4F4
:100ED00058C340E08E010F5F1F4F4F5FE42EFF2489
:100EE000F3E0CF2ED12CCE20DF20F801EC0DFD1D3C
:100EF0008081A81691F7C701019764E070E00E9415
:100F00009122FC01E00FF11F8081881609F4F2C0E4
:100F100090909E018E010B5F1F4FC00ED11EF601F7
:100F20008081A81659F04F5FE42EFF24F701E3708B
:100F3000F070E00FF11F8081A816A9F7C701019793
:100F400064E070E00E949122080F191FD8018C9173
:100F5000881609F486C2C090C101BC1409F4D8C037
:100F6000242F30E0E3E0EE2EF12CE222F3228E017A
:100F70000F5F1F4F08C04F5F242F30E073E0E72E54
:100F8000F12CE222F322F801EE0DFF1D8081B8164C
:100F900091F7F9013197CF0164E070E00E9491224E
:100FA000080F191FD8018C91C81609F462C2D0909D
:100FB0009D018E010B5F1F4FE00EF11ED7018C913A
:100FC000B81669F04F5F242F30E0F901E370F0703C
:100FD000E00FF11F8081B816A9F7F9013197CF0111
:100FE00064E070E00E949122080F191FF8018081CF
:100FF000C81609F43AC2F7E09F1609F48FC021E041
:10100000921609F41DC187E0D81609F4BDC0A1E00D
:10101000DA1699F584E080939D018091B5018823CB
:10102000A1F08091840190918501A0918601B091F9
:10103000870180519E40A040B040809384019093EE
:101040008501A0938601B09387018091B601882322
:10105000A1F08091880190918901A0918A01B091BD
:101060008B0180519E40A040B040809388019093B6
:101070008901A0938A01B0938B01A092C301B09221
:10108000C1012896DEBFCDBFCF91DF91FF91EF91D7
:10109000BF91AF919F918F917F916F915F914F9190
:1010A0003F912F911F910F91FF90EF90DF90CF9084
:1010B000BF90AF909F908F900F900BBE0F900FBE80
:1010C0000F901F90189581E080938C0126CE835558
:1010D0009340A040B04008F4CFCD82E593E0A0E07B
:1010E000B0E08093EE019093EF01A093F001B093F4
:1010F000F101C2CD90909E019A9490929E010ACFE8
:1011000040E090909E01C090C101BC1409F028CF2E
:10111000D0909D01F7E09F1609F071CF84E0809395
:101120009E018091B501882399F08091840190916E
:101130008501A0918601B0918701CC96A11DB11DBA
:101140008093840190938501A0938601B0938701D9
:101150008091B601882309F456CF8091880190913F
:101160008901A0918A01B0918B01CC96A11DB11D7E
:101170008093880190938901A0938A01B0938B0199
:1011800087E0D81609F043CF84E080939D018091D9
:10119000B5018823A1F08091840190918501A091EF
:1011A0008601B0918701805F914FAF4FBF4F809311
:1011B000840190938501A0938601B093870180916B
:1011C000B601882309F459CF809188019091890153
:1011D000A0918A01B0918B01805F914FAF4FBF4FBB
:1011E0008093880190938901A0938A01B0938B0129
:1011F00044CF8091B7018823D1F01092B70190912C
:10120000BE019E7F9093BE0180919F01882309F4C7
:1012100040CE88B3806688BBC4989FB9779BFECFC9
:1012200088B38F7888BB81E080939F0132CE81E0C4
:101230008093B7019091BE0191609093BE01E4CF7D
:1012400084E080939E018091B501882399F080917C
:10125000840190918501A0918601B0918701CC977E
:10126000A109B1098093840190938501A09386011F
:10127000B09387018091B601882309F4C4CE809190
:10128000880190918901A0918A01B0918B01CC973E
:10129000A109B1098093880190938901A0938A01E3
:1012A000B0938B01B0CE8091B501882309F0D9CDE0
:1012B0008091B601882309F0D4CD8091B8018823AC
:1012C00009F053C181E08093B801AAEDB1E0EFE6E7
:1012D000F1E080E101900D928150E1F781E080938F
:1012E000BB01BFCD8091BA01882309F49DCD8091C7
:1012F000B901882309F498CD8AE08093BD01ADE857
:10130000B1E0E1E6F1E080E101900D928150E1F77A
:1013100081E08093BC0188CD8091B901882381F45C
:1013200081E08093B901ADE8B1E0E6E4F1E080E16D
:1013300001900D928150E1F781E08093BC0157CD7F
:101340001092B901ADE8B1E0E3E5F1E080E1019090
:101350000D928150E1F781E08093BC010E94D51885
:1013600046CD8091BF01882329F00E94D5181092A4
:10137000BF0122CD0E94DC1881E08093BF011CCD0B
:101380008091B601882309F0FECC8091B8018823B2
:1013900009F0F9CC8091B501882309F0D5C081E02E
:1013A0008093B5019091BE0190649093BE01AAED27
:1013B000B1E0E4E3F1E080E101900D928150E1F7CA
:1013C00081E08093BB0180919F01882309F4DBCCED
:1013D00010929F0188B3806688BBC4989FB9779BA1
:1013E000FECF88B38F7888BB81E080939F01CBCC00
:1013F0008091B501882309F0AFCC8091B801882392
:1014000009F0AACC442309F08EC081E08093B60194
:101410009091BE0190689093BE01AAEDB1E0E5E124
:10142000F1E080E101900D928150E1F781E080933D
:10143000BB0180919F01882309F48ECC10929F01FB
:1014400088B3806688BBC4989FB9779BFECF88B36A
:101450008F7888BB81E080939F017ECC10928C01B5
:101460004DCC939490929E0176CDD394D0929D01D1
:10147000C2CDD0909D01DA94D0929D019ACD0E9468
:1014800049199093FD018093FC012091FC0130915A
:10149000FD0180910202909103022817390759F04B
:1014A00081E08093BB018091FC019091FD019093BC
:1014B0000302809302022091F2013091F3018091A6
:1014C000F4019091F5012817390759F081E08093D4
:1014D000BB018091F2019091F3019093F50180930B
:1014E000F40111E010938C011092B1011092B0013F
:1014F0008091840190918501A0918601B09187012E
:101500000196A11DB11D8093840190938501A09344
:101510008601B09387018091BD01882309F03CC00A
:1015200080E090E0EBCB1092B6019091BE019F77E6
:101530009093BE01AAEDB1E0E7E2F1E080E1019015
:101540000D928150E1F772CF1092B5019091BE01DA
:101550009F7B9093BE01AAEDB1E0E7E2F1E080E16C
:1015600001900D928150E1F72BCF1092B801AAEDB6
:10157000B1E0E7E2F1E080E101900D928150E1F706
:10158000ADCE40E0EFEFFFEFEE24FF24CC24DD24CE
:101590008E010F5F1F4FB6CC0E94D5188091BD0100
:1015A00081508093BD01882341F48091B901882343
:1015B00021F00E94DC181093BA018091B001909143
:1015C000B1019CCB8823A1F08130A1F08230B1F031
:1015D0008330B1F0843081F08530B1F08630B1F0E5
:1015E0008730B1F0883071F08930A1F08FEF089525
:1015F00080EC089589EF089589E9089584EA0895B3
:1016000080EB089580E8089582E9089582E80895BE
:1016100088EF089580E90895E2E6F0E0808188602F
:1016200080838081877F80830895779BFECF1FB85A
:10163000779BFECF81E08FB9779BFECF80916200D0
:1016400088608093620080916200877F809362004F
:1016500080E49FE10197F1F70895779BFECF1FB8D3
:10166000779BFECF82E08FB9779BFECF809162009F
:1016700088608093620080916200877F809362001F
:1016800080E49FE10197F1F70895779BFECF1FB8A3
:10169000779BFECF80EC8FB9779BFECF8091620065
:1016A00088608093620080916200877F80936200EF
:1016B00080E49FE10197F1F70895779BFECF20E04A
:1016C00061E030E240E951E06FB9779BFECF3FB96E
:1016D000779BFECF8091620088608093620080914A
:1016E0006200877F80936200CA010197F1F72F5F44
:1016F000203151F70895982F779BFECF81E08FB965
:10170000779BFECF9FB9779BFECF80916200886068
:101710008093620080916200877F8093620080E9FD
:1017200091E00197F1F7089580E69AEE0197F1F7BD
:1017300020E030E340E65DE61FB8779BFECF3FB97F
:10174000779BFECF809162008860809362008091D9
:101750006200877F80936200CA010197F1F72F5FD3
:10176000233051F71FB8779BFECF88E38FB9779B63
:10177000FECF809162008860809362008091620059
:10178000877F8093620080E29EE40197F1F71FB8A3
:10179000779BFECF88E08FB9779BFECF8091620068
:1017A00088608093620080916200877F80936200EE
:1017B00080E29EE40197F1F71FB8779BFECF81E0AE
:1017C0008FB9779BFECF8091620088608093620022
:1017D00080916200877F8093620080E29EE401979F
:1017E000F1F71FB8779BFECF86E08FB9779BFECFCE
:1017F0008091620088608093620080916200877FA0
:101800008093620080E29EE40197F1F71FB8779B16
:10181000FECF8CE08FB9779BFECF8091620088600D
:101820008093620080916200877F8093620080E2F3
:101830009EE40197F1F70895AC01779BFECFDA01A2
:101840000D900020E9F7A41BB50B129720E0E0E013
:10185000F0E091E060E971E09FB9779BFECFE40F83
:10186000F51F80818FB9779BFECF809162008860E1
:101870008093620080916200877F80936200FB0109
:101880003197F1F72F5FE22FF0E0AE17BF0720F797
:101890000895929A109201021092000290E09093A3
:1018A000FF018093FE010895929810920102109218
:1018B000000230E03093FF012093FE01443009F430
:1018C000D0C0453078F0463009F487C0463008F47F
:1018D0003FC0473009F46AC0483009F450C01BBC0F
:1018E0001ABC0895413009F4A6C04130B0F48434E4
:1018F00009F428C2853408F41FC1863409F470C184
:10190000863408F465C1873461F7662309F48EC212
:101910008DE195E19BBD8ABD0895423009F474C004
:101920004330E9F6843409F4EDC1853408F426C166
:10193000863409F45AC1863408F442C1873489F6E2
:10194000662309F409C382EA92E09BBD8ABD08952B
:10195000843409F471C1853408F421C1863409F452
:1019600035C2863408F4FEC1873409F0BACF662345
:1019700009F461C287EA90E09BBD8ABD0895843472
:1019800009F445C1853408F4E8C0863409F43AC145
:10199000863408F42FC1873409F0A3CF662309F4F5
:1019A00017C380E190E09BBD8ABD0895843409F49B
:1019B0006AC1853408F4AFC0863409F426C286347F
:1019C00008F4C8C1873409F08CCF662309F483C2B8
:1019D00089E290E09BBD8ABD0895843409F4A2C1D8
:1019E000853408F487C0863409F4F5C1863408F4D8
:1019F000E0C1873409F075CF662309F47BC283E523
:101A000090E09BBD8ABD0895843409F483C1853478
:101A100008F45FC0863409F431C1863408F426C165
:101A2000873409F05ECF662309F428C286E495E086
:101A30009BBD8ABD0895843409F45CC18534C0F12E
:101A4000863409F4A4C1863408F499C1873409F0B6
:101A500048CF662309F4FEC18DE89AE09BBD8ABD9C
:101A60000895843409F466C1853488F0863409F415
:101A700034C1863408F429C1873409F032CF662393
:101A800009F424C280E591E09BBD8ABD08958234AB
:101A900009F4ABC1833408F0A3C1813409F021CF2C
:101AA000662309F431C28BE291E09BBD8ABD0895A3
:101AB000823409F4A2C1833408F05CC1813409F096
:101AC00010CF662309F42AC287E699E09BBD8ABD40
:101AD0000895823409F49EC1833408F072C18134C0
:101AE00009F0FFCE662309F4E7C182EB94E09BBDC9
:101AF0008ABD0895823409F4DBC0833408F0B1C094
:101B0000813409F0EECE662309F4BDC18AE490E089
:101B10009BBD8ABD0895823409F4C2C0833408F0A5
:101B2000BAC0813409F0DDCE662309F41FC284E215
:101B300090E09BBD8ABD0895823409F4D3C08334FC
:101B400008F0BEC0813409F0CCCE662309F409C286
:101B50008EEC92E19BBD8ABD0895823409F464C085
:101B6000833408F05CC0813409F0BBCE662309F4ED
:101B700011C28BE090E09BBD8ABD0895823409F4C8
:101B800010C1833408F008C1813409F0AACE66235D
:101B900009F46AC188E592E09BBD8ABD089582344C
:101BA00009F457C0833408F04FC0813409F099CE4E
:101BB000662309F4F9C185E990E09BBD8ABD0895CB
:101BC000662309F4FBC182E293E09BBD8ABD0895C0
:101BD000662309F4F8C189E199E19BBD8ABD0895A6
:101BE0008DE596E19BBD8ABD08958AEC92E09BBD90
:101BF0008ABD0895662309F4F0C188E190E09BBD99
:101C00008ABD089582E190E09BBD8ABD0895662358
:101C100009F4C5C18BE190E09BBD8ABD08958CE1BC
:101C200090E09BBD8ABD0895662309F4C2C187E098
:101C300090E09BBD8ABD0895662309F4A1C180EEA2
:101C400090E09BBD8ABD08958DEE90E09BBD8ABD5E
:101C50000895662309F41CC185E890E09BBD8ABD08
:101C6000089586E790E09BBD8ABD0895662309F438
:101C70008CC186E496E09BBD8ABD089586E995E017
:101C80009BBD8ABD0895662309F475C187E390E082
:101C90009BBD8ABD08958AE390E09BBD8ABD0895EF
:101CA000662309F4FAC080E290E09BBD8ABD0895E6
:101CB000662309F44CC182E490E09BBD8ABD08957F
:101CC0008CED9DE19BBD8ABD0895662309F43AC160
:101CD00080E991E09BBD8ABD089584E691E09BBDBB
:101CE0008ABD0895662309F41EC180EC90E19BBD76
:101CF0008ABD0895662309F4B2C086E19EE09BBDCB
:101D00008ABD0895662309F4DCC084E893E09BBD96
:101D10008ABD0895662309F4F2C08AE097E09BBD6E
:101D20008ABD0895662309F4F4C08FE690E09BBD58
:101D30008ABD0895662309F49CC081EC91E09BBDA7
:101D40008ABD0895662309F4CBC080E39CE19BBD66
:101D50008ABD0895662309F473C081E390E09BBDBA
:101D60008ABD0895662309F4E3C087EC90E09BBD2B
:101D70008ABD08958DEE9EE09BBD8ABD08956623C1
:101D800009F44FC08DE89CE09BBD8ABD08958EE2AA
:101D90009BE09BBD8ABD08958AEB93E09BBD8ABD05
:101DA0000895662309F47EC087E192E09BBD8ABD59
:101DB0000895662309F47BC083E690E09BBD8ABD4D
:101DC000089586E797E09BBD8ABD089581EB90E07A
:101DD0009BBD8ABD089588E590E09BBD8ABD0895AE
:101DE0008CED91E09BBD8ABD0895662309F4A5C0E2
:101DF0008BE091E09BBD8ABD0895662309F475C010
:101E000080E698E09BBD8ABD08958BE290E09BBD83
:101E10008ABD08956623C9F08FE294E09BBD8ABD18
:101E2000089588ED9BE09BBD8ABD08958DEE93E1FA
:101E30009BBD8ABD08958EE990E09BBD8ABD089543
:101E40008EE290E09BBD8ABD089583EF93E09BBD39
:101E50008ABD089586EF99E09BBD8ABD08958CE404
:101E60009DE09BBD8ABD089587E392E09BBD8ABD3E
:101E7000089588EA91E09BBD8ABD08958AEF94E0B9
:101E80009BBD8ABD089586E490E09BBD8ABD089500
:101E90008DE790E09BBD8ABD08958EE190E09BBDEB
:101EA0008ABD089589EF91E09BBD8ABD08958DE5B7
:101EB00090E09BBD8ABD08958FE694E09BBD8ABDEE
:101EC000089582E593E09BBD8ABD08958DE391E07E
:101ED0009BBD8ABD089586E290E09BBD8ABD0895B2
:101EE0008AE99AE19BBD8ABD089587EE97E09BBD84
:101EF0008ABD08958EE490E09BBD8ABD089585EA71
:101F000096E09BBD8ABD08958BE191E09BBD8ABDA3
:101F1000089589E690E09BBD8ABD08958FED98E015
:101F20009BBD8ABD089580ED9FE09BBD8ABD08954D
:101F30008CEB90E09BBD8ABD08958CEF90E09BBD3B
:101F40008ABD08958AE791E09BBD8ABD08958EE31E
:101F500090E09BBD8ABD08958CE792E09BBD8ABD51
:101F6000089580EC91E19BBD8ABD089582E290E0E6
:101F70009BBD8ABD089584E390E09BBD8ABD089512
:101F800083ED90E09BBD8ABD08958BEE95E09BBDEF
:101F90008ABD089589E090E09BBD8ABD089589E1DE
:101FA00090E09BBD8ABD08958DE890E09BBD8ABD01
:101FB000089585E090E09BBD8ABD089585EF92E08D
:101FC0009BBD8ABD089582EB97E19BBD8ABD0895B4
:101FD0008DE090E09BBD8ABD089585E190E09BBDBA
:101FE0008ABD0895FC018F32910520F08FEF809318
:101FF000F6010895EA5BFF4FEE0FFF1F0590F49185
:10200000E02D099483E460E043E028E00E94540C52
:10201000089581E460E042E028E00E94540C0895B5
:1020200086E460E042E028E00E94540C089584E4D5
:1020300060E043E028E00E94540C089585E460E0ED
:1020400043E028E00E94540C089584E460E043E0FB
:1020500020E10E94540C089585E460E043E020E113
:102060000E94540C089586E460E043E028E00E945A
:10207000540C089587E460E042E028E00E94540C8C
:10208000089581E460E042E020E10E94540C08954C
:1020900087E460E042E020E10E94540C089585E46A
:1020A00060E042E028E00E94540C0895929A109259
:1020B00001021092000282E090E09093FF01809371
:1020C000FE010895929A109201021092000288E097
:1020D00090E09093FF018093FE01089584E460E016
:1020E00043E02EE10E94540C089586E460E043E052
:1020F00020E10E94540C089584E460E043E026E06F
:102100000E94540C089583E460E043E020E30E94C1
:10211000540C0895FC018131910520F08FEF8093DC
:10212000F6010895EB58FF4FEE0FFF1F0590F49155
:10213000E02D099481E460E044E024E00E94540C26
:10214000089582E460E043E028E00E94540C089582
:1021500087E461E044E028E00E94540C089587E49D
:1021600061E044E02CE00E94540C089587E460E0B4
:1021700044E020E10E94540C089584E460E044E0CF
:1021800020E30E94540C089581E460E043E02CE0D9
:102190000E94540C089585E460E044E020E50E942C
:1021A000540C089585E460E044E02CE00E94540C57
:1021B000089581E461E044E024E00E94540C089515
:1021C00082E460E044E02AE00E94540C0895929A70
:1021D000109201021092000282E090E09093FF01C1
:1021E0008093FE01089582E460E044E02CE00E94C8
:1021F000540C089582E460E043E024E00E94540C13
:10220000089585E460E044E024E00E94540C0895C1
:10221000FC018F31910520F08FEF8093F601089536
:10222000EA57FF4FEE0FFF1F0590F491E02D099440
:10223000929A109201021092000281E090E0909335
:10224000FF018093FE01089585E460E045E024E00D
:102250000E94540C089585E460E044E027E00E9469
:10226000540C089585E461E044E027E00E94540C9A
:102270000895929A109201021092000285E090E077
:102280009093FF018093FE01089585E460E045E0AE
:1022900028E00E94540C089585E460E044E023E0C7
:1022A0000E94540C089585E461E044E023E00E941C
:1022B000540C089587E461E045E024E00E94540C4A
:1022C000089585E461E045E024E00E94540C0895FF
:1022D00085E460E045E023E00E94540C089587E423
:1022E00060E045E028E00E94540C089587E461E036
:1022F00045E028E00E94540C0895FC0185399105C1
:1023000020F08FEF8093F6010895EB55FF4FEE0F0D
:10231000FF1F0590F491E02D0994929A109201020A
:102320001092000288E090E09093FF018093FE01FC
:10233000089587E460E043E024E00E94540C08958F
:1023400081E460E043E022E00E94540C0895929AF8
:10235000109201021092000282E090E09093FF013F
:102360008093FE01089583E460E044E022E00E944F
:10237000540C089585E460E044E022E00E94540C8F
:10238000089584E460E044E024E00E94540C089541
:1023900083E460E044E022E00E94540C0895929AA5
:1023A000109201021092000282E090E09093FF01EF
:1023B0008093FE01089583E460E044E022E00E94FF
:1023C000540C0895929A109201021092000282E039
:1023D00090E09093FF018093FE01089583E460E014
:1023E00044E022E00E94540C0895929A1092010257
:1023F0001092000281E090E09093FF018093FE0133
:10240000089583E460E044E022E00E94540C0895C3
:10241000929A109201021092000280E190E0909353
:10242000FF018093FE01089585E460E044E022E02E
:102430000E94540C089584E460E044E022E00E948D
:10244000540C089583E460E044E022E00E94540CC0
:102450000895929A109201021092000282E090E098
:102460009093FF018093FE01089583E460E044E0CF
:1024700022E00E94540C0895929A10920102109248
:10248000000282E090E09093FF018093FE010895A6
:1024900083E460E044E022E00E94540C0895929AA4
:1024A000109201021092000281E090E09093FF01EF
:1024B0008093FE01089583E460E044E022E00E94FE
:1024C000540C0895929A109201021092000284E036
:1024D00090E09093FF018093FE01089587E460E00F
:1024E00043E024E00E94540C089581E460E043E05E
:1024F00022E00E94540C0895929A109201021092C8
:10250000000282E090E09093FF018093FE01089525
:1025100083E460E044E022E00E94540C089585E4E6
:1025200060E044E022E00E94540C089584E460E0FE
:1025300044E024E00E94540C089583E460E044E009
:1025400022E00E94540C0895929A10920102109277
:10255000000282E090E09093FF018093FE010895D5
:1025600083E460E044E022E00E94540C0895929AD3
:10257000109201021092000282E090E09093FF011D
:102580008093FE01089583E460E044E022E00E942D
:10259000540C0895929A109201021092000281E068
:1025A00090E09093FF018093FE01089583E460E042
:1025B00044E022E00E94540C0895929A1092010285
:1025C000109200028AE090E09093FF018093FE0158
:1025D000089583E460E044E024E00E94540C0895F0
:1025E000929A109201021092000284E090E090937F
:1025F000FF018093FE01089584E460E044E022E05E
:102600000E94540C0895929A1092010210920002B6
:1026100082E090E09093FF018093FE01089585E4AD
:1026200061E044E024E00E94540C0895929A1092D4
:1026300001021092000284E090E09093FF018093E9
:10264000FE01089584E460E044E022E00E94540C1E
:10265000089583E460E044E022E00E94540C089571
:1026600081E460E043E022E00E94540C0895929AD5
:10267000109201021092000282E090E09093FF011C
:102680008093FE01089583E460E044E022E00E942C
:10269000540C089581E460E043E022E00E94540C71
:1026A000089581E461E043E022E00E94540C089523
:1026B000929A109201021092000282E090E09093B0
:1026C000FF018093FE01089585E460E044E022E08C
:1026D0000E94540C0895929A1092010210920002E6
:1026E00082E090E09093FF018093FE01089585E4DD
:1026F00061E044E022E00E94540C089586E460E02A
:1027000044E022E00E94540C089587E461E044E034
:1027100022E00E94540C089587E460E044E022E047
:102720000E94540C0895929A109201021092000295
:1027300088E090E09093FF018093FE01089587E484
:1027400060E044E024E00E94540C0895929A1092B4
:1027500001021092000281E090E09093FF018093CB
:10276000FE01089587E460E044E021E00E94540CFB
:102770000895929A109201021092000282E090E075
:102780009093FF018093FE01089587E460E044E0A8
:1027900022E00E94540C0895929A10920102109225
:1027A000000282E090E09093FF018093FE01089583
:1027B00085E460E043E022E00E94540C0895929A80
:1027C000109201021092000282E090E09093FF01CB
:1027D0008093FE01089585E461E043E022E00E94D9
:1027E000540C089586E460E043E022E00E94540C1B
:1027F000089587E461E043E022E00E94540C0895CC
:1028000087E460E043E022E00E94540C0895929A2D
:10281000109201021092000284E090E09093FF0178
:102820008093FE01089584E460E044E022E00E9489
:10283000540C089583E460E044E022E00E94540CCC
:10284000089581E460E043E022E00E94540C089582
:10285000929A109201021092000282E090E090930E
:10286000FF018093FE01089583E460E044E022E0EC
:102870000E94540C089581E460E043E022E00E944D
:10288000540C089581E461E043E022E00E94540C7E
:102890000895929A109201021092000282E090E054
:1028A0009093FF018093FE01089585E460E044E089
:1028B00022E00E94540C0895929A10920102109204
:1028C000000282E090E09093FF018093FE01089562
:1028D00085E461E044E022E00E94540C089586E41F
:1028E00060E044E022E00E94540C089587E461E037
:1028F00044E022E00E94540C089587E460E044E044
:1029000022E00E94540C0895929A109201021092B3
:10291000000288E090E09093FF018093FE0108950B
:1029200082E460E043E022E00E94540C089584E4D5
:1029300060E044E022E00E94540C089583E460E0EB
:1029400044E022E00E94540C0895929A10920102F1
:102950001092000282E090E09093FF018093FE01CC
:10296000089585E460E044E022E00E94540C08955C
:10297000929A109201021092000282E090E09093ED
:10298000FF018093FE01089587E460E044E022E0C7
:102990000E94540C089586E460E044E022E00E9426
:1029A000540C089581E460E044E024E00E94540C5B
:1029B000089587E460E044E022E00E94540C08950A
:1029C000929A109201021092000281E090E090939E
:1029D000FF018093FE01089585E460E044E022E079
:1029E0000E94540C089587E460E043E023E00E94D5
:1029F000540C089581E460E043E024E00E94540C0C
:102A0000089582E461E043E022E00E94540C0895BE
:102A1000929A109201021092000282E090E090934C
:102A2000FF018093FE01089582E460E043E022E02C
:102A30000E94540C0895929A109201021092000282
:102A400082E090E09093FF018093FE01089581E47D
:102A500060E043E022E00E94540C0895929A1092A4
:102A600001021092000282E090E09093FF018093B7
:102A7000FE01089585E460E043E024E00E94540CE8
:102A80000895929A109201021092000283E090E061
:102A90009093FF018093FE01089587E460E043E096
:102AA00022E00E94540C0895929A10920102109212
:102AB000000282E090E09093FF018093FE01089570
:102AC00083E460E044E025E00E94540C0895929A6B
:102AD000109201021092000284E090E09093FF01B6
:102AE0008093FE01089582E460E043E022E00E94CA
:102AF000540C089584E460E044E022E00E94540C09
:102B0000089583E460E044E022E00E94540C0895BC
:102B1000929A109201021092000282E090E090934B
:102B2000FF018093FE01089585E460E044E022E027
:102B30000E94540C0895929A109201021092000281
:102B400082E090E09093FF018093FE01089587E476
:102B500060E044E022E00E94540C089586E460E0C6
:102B600044E022E00E94540C089581E460E044E0D7
:102B700024E00E94540C089587E460E044E022E0E1
:102B80000E94540C0895929A109201021092000231
:102B900081E090E09093FF018093FE01089585E429
:102BA00060E044E022E00E94540C089587E460E075
:102BB00043E023E00E94540C089581E460E043E088
:102BC00024E00E94540C089582E461E043E022E096
:102BD0000E94540C0895929A1092010210920002E1
:102BE00082E090E09093FF018093FE01089582E4DB
:102BF00060E043E022E00E94540C0895929A109203
:102C000001021092000282E090E09093FF01809315
:102C1000FE01089581E460E043E022E00E94540C4C
:102C20000895929A109201021092000282E090E0C0
:102C30009093FF018093FE01089585E460E043E0F6
:102C400024E00E94540C0895929A1092010210926E
:102C5000000284E090E09093FF018093FE010895CC
:102C600087E460E043E022E00E94540C089583E48E
:102C700060E044E025E00E94540C0895929A10927E
:102C800001021092000288E090E09093FF0180938F
:102C9000FE01089587E460E042E028E00E94540CC1
:102CA000089587E460E044E028E00E94540C089511
:102CB00085E460E044E024E00E94540C089583E43D
:102CC00060E044E022E00E94540C0895929A109231
:102CD00001021092000282E090E09093FF01809345
:102CE000FE01089585E460E044E022E00E94540C77
:102CF0000895929A109201021092000281E090E0F1
:102D00009093FF018093FE01089585E460E044E024
:102D100023E00E94540C0895929A1092010210929E
:102D2000000281E090E09093FF018093FE010895FE
:102D300085E460E044E021E00E94540C0895FC0129
:102D40008F33910520F08FEF8093F6010895E65CB4
:102D5000FE4FEE0FFF1F0590F491E02D099483E4E0
:102D600060E044E024E00E94540C089585E460E0B3
:102D700044E028E00E94540C0895929A10920102B7
:102D80001092000281E090E09093FF018093FE0199
:102D9000089581E460E043E027E00E94540C089528
:102DA00083E460E043E020E10E94540C089584E451
:102DB00060E044E024E00E94540C089582E460E066
:102DC00043E024E00E94540C089584E460E044E071
:102DD00028E00E94540C089584E460E043E020E180
:102DE0000E94540C089582E460E042E020E10E94D9
:102DF000540C089581E460E043E020E10E94540C0B
:102E0000089583E460E044E028E00E94540C0895B3
:102E1000929A109201021092000288E090E0909342
:102E2000FF018093FE01089585E460E043E020E126
:102E30000E94540C089586E460E044E024E00E947F
:102E4000540C089585E460E044E02CE00E94540CAA
:102E5000089584E460E044E022E00E94540C089568
:102E600085E460E044E022E00E94540C089585E48B
:102E700060E043E028E00E94540C089581E460E0A3
:102E800042E020E10E94540C089587E460E044E0B1
:102E900024E00E94540C0895929A1092010210921C
:102EA000000280E190E09093FF018093FE0108957D
:102EB00081E460E044E028E00E94540C089581E43D
:102EC00060E043E028E00E94540C089582E460E052
:102ED00043E02CE00E94540C089581E461E042E05C
:102EE00020E10E94540C089582E460E042E028E072
:102EF0000E94540C089581E460E043E024E00E94C5
:102F0000540C089581E461E043E020E10E94540CF8
:102F1000089583E460E043E028E00E94540C0895A3
:102F2000929A109201021092000284E090E0909335
:102F3000FF018093FE01089582E460E043E027E012
:102F40000E94540C0895FC018634910520F08FEF07
:102F50008093F6010895E758FE4FEE0FFF1F05908E
:102F6000F491E02D099481E460E044E022E00E94C5
:102F7000540C089581E460E044E026E00E94540C83
:102F8000089581E461E044E022E00E94540C089539
:102F900084E460E044E028E00E94540C089586E454
:102FA00060E044E028E00E94540C089582E461E06F
:102FB00044E026E00E94540C089585E460E044E07B
:102FC00028E00E94540C089581E460E044E028E089
:102FD0000E94540C089587E460E044E028E00E94D9
:102FE000540C089583E460E044E028E00E94540C0F
:102FF000089581E460E044E020E10E94540C0895CB
:1030000083E460E045E024E00E94540C089584E4E9
:1030100060E045E024E00E94540C0895929A1092DA
:1030200001021092000288E090E09093FF018093EB
:10303000FE010895929A109201021092000281E01E
:1030400090E09093FF018093FE01089582E461E097
:1030500044E020E10E94540C089582E461E044E0E1
:1030600028E00E94540C089587E460E044E026E0E4
:103070000E94540C089584E460E045E020E10E9441
:10308000540C089581E460E044E024E00E94540C74
:103090000895929A109201021092000282E090E04C
:1030A0009093FF018093FE01089587E460E044E07F
:1030B00027E00E94540C089587E460E044E023E098
:1030C0000E94540C089587E461E044E028E00E94E7
:1030D000540C089587E460E044E028E10E94540C19
:1030E000089584E460E044E020E10E94540C0895D7
:1030F00083E460E045E020E10E94540C089584E4FC
:1031000061E045E024E00E94540C089582E461E00F
:1031100044E022E00E94540C089582E460E044E020
:1031200028E00E94540C089581E461E044E024E02A
:103130000E94540C089586E460E044E028E10E9477
:10314000540C089587E461E044E024E00E94540CAC
:103150000895823029F1833048F08430E1F08430E2
:1031600070F4862F90E00E9408110895882349F09A
:10317000813039F4862F90E00E949F1608958530A3
:1031800029F0862F90E00E94A3170895862F90E0E3
:103190000E94F20F0895862F90E00E948A100895F1
:1031A000862F90E00E947D1108951092F6018EB551
:1031B0008C7F8EBD929A08951092F6018EB5836031
:1031C0008EBD92988091FB016091F6010E94A91832
:1031D000089587B7806187BF1FBC8EB588608EBD9C
:1031E00010927A0081E390E09BBD8ABD1092F601B7
:1031F0008EB58C7F8EBD929A1092010210920002C1
:103200001092FF011092FE011092F60185E080936A
:10321000FB0108951F920F920FB60F920BB60F92FB
:1032200011242F933F934F935F936F937F938F93CB
:103230009F93AF93BF93EF93FF9382B3805882BB6A
:1032400020910002309101028091FE019091FF01D6
:103250002817390758F08091F6018F5F8093F601A7
:103260008091FB016091F6010E94A918FF91EF91F6
:10327000BF91AF919F918F917F916F915F914F918E
:103280003F912F910F900BBE0F900FBE0F901F908C
:10329000189584EA809374008091740087FFFCCFB6
:1032A00080917100887F883021F080EA91E00E944F
:1032B0001C0C81E98093730084E8809374008091F2
:1032C000740087FFFCCF80917100887F803421F0EB
:1032D00087EA91E00E941C0C84EC8093740080913A
:1032E000740087FFFCCF409173008091710084ECE3
:1032F000809374008091740087FFFCCF90917300DD
:103300008091710084E980937400342F20E0290FAC
:10331000311D359527953595279535952795359503
:10332000279535952795C90108952F923F924F9281
:103330005F926F927F928F929F92AF92BF92CF9245
:10334000DF92EF92FF920F931F93DF93CF93CDB74E
:10335000DEB761970FB6F894DEBF0FBECDBF3C015C
:103360007F876E876A01FC0117821682838181FD47
:1033700003C06FEF7FEF71C39E012F5F3F4F398B0B
:10338000288BF3012381EE85FF8523FD859123FFA3
:103390008191FF87EE87882309F45CC3853251F45D
:1033A000EE85FF8523FD859123FF8191FF87EE87C1
:1033B000853229F490E0B3010E944D24E2CF982F8A
:1033C00010E0882499241032B0F49B3269F09C32CA
:1033D00028F4903251F0933271F40BC09D3239F0E1
:1033E000903349F4116028C01260146025C0186041
:1033F00023C0106121C017FD2AC0892F80538A3055
:1034000078F416FF06C0FAE09F9E902C1124980EC7
:1034100013C03AE0839E802C1124880E10620CC0E9
:103420009E3221F416FD16C3106406C09C3611F4BA
:10343000106802C0983659F4EE85FF8523FD9591FA
:1034400023FF9191FF87EE87992309F0BCCF892F45
:103450008554833020F4812F8061905E07C0892FCE
:103460008556833008F0A1C1812F8F7E86FD02C072
:1034700076E0972E6FE3F62EF822953619F4F0E4F5
:10348000FF2A07C0963619F420E8F22A02C09110EC
:103490009A94F7FE0BC03BE3391520F427E05CE378
:1034A000B52E0EC0B92CB39427E00AC047E04915E9
:1034B00028F427E0BB2447E0942E02C0292DBB242A
:1034C000C60104969D878C87F60160817181828197
:1034D0009381AE014F5F5F4F0B2D0E94E1226C0183
:1034E0000981202E332400FF04C003FD02C01DE229
:1034F00009C0F1FE02C01BE205C0F2FC02C010E0F0
:1035000001C010E2C1018C709070892BB9F11123B8
:1035100011F483E001C084E0881510F088240AC00B
:10352000881AF3FC07C080E290E0B3010E944D24AA
:103530008A94C9F7112329F0812F90E0B3010E94EA
:103540004D2423FE03C00EE713E00EC002E813E093
:103550000BC0E114F10409F0805290E0B3010E9425
:103560004D240F5F1F4F05C0EF2CFF24F0E1EF2229
:10357000FF24F8018491882361F714C1F7FE12C07B
:10358000BC0C24FE04C08A81813309F4BA941B1454
:103590001CF0BB24B3942DC0F8E0FB1550F538E0C7
:1035A000B32E27C0F6FC25C0892D90E08C159D0513
:1035B0004CF02CEFC2162FEFD20624F030E8F32A9D
:1035C00001C09A94992049F0E2E0F0E0EC0FFD1F71
:1035D000E90DF11D80818033A1F3F7FE0AC0B92CFB
:1035E000B394892D90E0C816D90614F0992401C02F
:1035F0009C18F7FC03C025E030E009C01C141D0432
:103600001CF021E030E003C096012F5F3F4F1123F3
:1036100011F02F5F3F4F992029F0892D90E00196FE
:10362000280F391F882D90E02817390714F08824B7
:1036300001C0821A4F2C5524C20189709070892BC9
:1036400039F008C080E290E0B3010E944D248A94D2
:103650008820C1F7112329F0812F90E0B3010E9447
:103660004D2443FE07C008C080E390E0B3010E94F0
:103670004D248A948820C1F7F7FE46C08601D7FE04
:1036800002C000E010E076010894E11CF11CE01A91
:10369000F10A41E050E04C0F5D1FE40EF51E2601DB
:1036A0004B185108892D90E0AA24BB24A81AB90A06
:1036B0005FEF0F3F150729F48EE290E0B3010E94FF
:1036C0004D24C016D10634F0401651061CF4F70103
:1036D000808101C080E3015010400894E11CF11C7E
:1036E0000A151B052CF090E0B3010E944D24E0CF99
:1036F0000C151D0539F49A81963318F4953311F49D
:1037000024FE81E390E04BC08A81813309F00F7E73
:1037100090E0B3010E944D249920A1F08EE290E048
:10372000B3010E944D2412E0E1E0F0E0EC0FFD1F38
:10373000E10FF11D1F5F808190E0B3010E944D24D5
:103740009A9491F744FC03C085E690E002C085E4BA
:1037500090E0B3010E944D24D7FC05C0C114D104F0
:1037600041F404FF06C0D094C194D108D3948DE2F3
:1037700001C08BE290E0B3010E944D2480E305C0BC
:103780008F5F26EF3FEFC20ED31E3AE0C316D1047F
:10379000BCF790E0B3010E944D24C601C096B3016E
:1037A0000E944D24CC84DD8452C1933631F093378E
:1037B00099F0933509F059C023C0F60180818983BF
:1037C0005E010894A11CB11C22E030E0C20ED31EA1
:1037D00021E0E22EF12C12C0F601A080B18016FD8E
:1037E00003C06FEF7FEF02C0692D70E022E030E090
:1037F000C20ED31EC5010E94DF237C011F7713C0B8
:10380000F601A080B18016FD03C06FEF7FEF02C00C
:10381000692D70E022E030E0C20ED31EC5010E9487
:10382000D4237C01106813FF07C01BC080E290E026
:10383000B3010E944D248A94882D90E0E816F90681
:10384000A8F30FC0F50117FD859117FF81915F0166
:1038500090E0B3010E944D2481108A940894E108FD
:10386000F108E114F10471F7F2C0943611F09936C1
:1038700089F517FF08C0F60120813181428153810B
:1038800084E090E00AC0F601808191819C01442788
:1038900037FD4095542F82E090E0C80ED91E9FE678
:1038A000F92EF12257FF09C050954095309521958A
:1038B0003F4F4F4F5F4F90E8F92ACA01B901AE015F
:1038C0004F5F5F4F2AE030E00E949324E82EE889A2
:1038D000EE1A41C0953721F41F7E2AE030E01CC06B
:1038E000197F9F3661F0903720F4983509F0B2C007
:1038F0000FC0903739F0983709F0ACC004C028E009
:1039000030E00AC0106114FD146020E130E004C012
:1039100014FD166020E132E017FF08C0F601608157
:1039200071818281938144E050E008C0F60180817A
:103930009181BC0180E090E042E050E0C40ED51ED1
:10394000AE014F5F5F4F0E949324E82E5889E51A1D
:103950008FE7F82EF122F6FE0BC08EEFF822E91465
:1039600038F4F4FE07C0F2FC05C09FEEF92202C055
:103970001E2D01C0192DF4FE0DC0FE01EE0DF11D2E
:103980008081803319F4E9EEFE2208C01F5FF2FE49
:1039900005C003C08F2D867809F01F5F0F2DF3FC43
:1039A00014C0F0FE0FC0181510F09E2C0BC09E2CFA
:1039B000980C911A182D06C080E290E0B3010E9485
:1039C0004D241F5F1815C0F304C0181510F4811A98
:1039D00001C0882404FF0FC080E390E0B3010E947F
:1039E0004D2402FF1DC001FD03C088E790E00EC01A
:1039F00088E590E00BC0802F867891F001FF02C02F
:103A00008BE201C080E2F7FC8DE290E0B3010E94FE
:103A10004D2406C080E390E0B3010E944D249A94A7
:103A2000E914C0F3EA94E1E0F0E0EC0FFD1FEE0DC5
:103A3000F11D808190E0B3010E944D24EE2091F7AA
:103A400006C080E290E0B3010E944D248A94882051
:103A5000C1F797CCF30166817781CB0161960FB6F0
:103A6000F894DEBF0FBECDBFCF91DF911F910F91B4
:103A7000FF90EF90DF90CF90BF90AF909F908F908E
:103A80007F906F905F904F903F902F900895FC0132
:103A900020FD08C023FD05C022FF02C0738362839E
:103AA000518340830895EF92FF920F931F9344FF39
:103AB00002C033E011C046FF02C034E00DC0DB019C
:103AC000FC01AA0FBB1FEE1FFF1F1094D1F76A0F56
:103AD0007B1F8E1F9F1F31E0660F771F881F991F66
:103AE0003150D1F77B018C01E20EF11C011D111D3B
:103AF000A8019701B701CA011F910F91FF90EF90A4
:103B000008950F931F93CF93DF938C01C8010E94F8
:103B10000B24EC0197FD08C00E94B923892BB1F753
:103B2000CE01B8010E947924CE01DF91CF911F917F
:103B30000F9108958F929F92AF92BF92DF92EF9272
:103B4000FF920F931F93CF93DF935C01EB014A0128
:103B5000122F0E940B24AC018B3219F08D3251F4DC
:103B60001068219709F46DC0C5010E940B24AC01B7
:103B700097FD67C06DEFD62ED1228D2D807301F594
:103B80004033F1F4219709F447C0C5010E940B248A
:103B9000AC0197FD41C082E0D82A483711F0483582
:103BA00059F480E4D82A2197B9F1C5010E940B2469
:103BB000AC0199232CF430C0D6FC02C080E1D82A95
:103BC000EE24FF248701242F2053283088F0D4FCD2
:103BD00009C02A3068F0D6FE05C02F7D822F8151A2
:103BE000863028F0CA01B5010E94792412C02750FE
:103BF000C801B7014D2D0E94531D7B018C0182E04D
:103C0000D82A219761F0C5010E940B24AC0197FFCF
:103C1000DACFD1FC04C015C0EE24FF248701D7FE03
:103C200008C010950095F094E094E11CF11C011D72
:103C3000111DC401B801A7012D2D0E94471D81E06F
:103C400001C080E0DF91CF911F910F91FF90EF9025
:103C5000DF90BF90AF909F908F9008956F927F926A
:103C60008F929F92AF92BF92CF92DF92EF92FF928C
:103C70000F931F93DF93CF93CDB7DEB7A0970FB607
:103C8000F894DEBF0FBECDBF5C016B018A017901E4
:103C9000FE01319680E2DF011D928A95E9F770E01E
:103CA00030E060E040E050E03F01A1E0B0E0F5012D
:103CB0008381F70183FD259183FF21917F012223D9
:103CC00009F481C02E3519F44115510569F1872F8A
:103CD00090E08417950744F42D3551F12D3221F4ED
:103CE000332329F431E021C0332309F4622F322F2A
:103CF000832F869586958695F301E80FF11D832F16
:103D000087704D0102C0880C991C8A95E2F72081CA
:103D100028292083361711F430E007C0361710F435
:103D20003F5FE6CF3150E4CF71E04F5F5F4FBFCFD1
:103D3000332319F08E8180628E83772359F0FE0140
:103D400031969E012F5D3F4F808180958193E217D0
:103D5000F307D1F7992493943E010894611C711CD8
:103D6000C5010E940B24AC0197FD25C08695869560
:103D70008695F301E80FF11D808190E09A0127708C
:103D8000307002C0959587952A95E2F780FD05C0B1
:103D9000CA01B5010E9479240EC00115110519F060
:103DA000D8014D938D010894C108D1089924C114FC
:103DB000D104B1F602C0992031F40115110529F0A2
:103DC000F801108202C0EE24FF24C701A0960FB6AE
:103DD000F894DEBF0FBECDBFCF91DF911F910F9141
:103DE000FF90EF90DF90CF90BF90AF909F908F901B
:103DF0007F906F9008952F923F925F926F927F9283
:103E00008F929F92AF92BF92CF92DF92EF92FF92EA
:103E10000F931F93CF93DF933C017B011A010E9404
:103E20000B24EC018B3239F08D3211F0552411C086
:103E3000B0E85B2E01C055240894E108F108E114B4
:103E4000F10409F418C1C3010E940B24EC0197FD91
:103E500012C1CE010E94C1238936910521F08E3610
:103E6000910599F51DC00BE913E01CC00894E10809
:103E7000F108E114F10471F0C3010E940B24EC017C
:103E800097FD08C00E94C123D81661F0CE01B3018E
:103E90000E94792423E00E39120709F0ECC008C013
:103EA00008E913E0F8010F5F1F4FD490DD20F1F611
:103EB0000B59134029F080E090E0A0E8BFE7CFC0A5
:103EC00080E090E0A0ECBFE7CAC0CC24DD248824C9
:103ED00099245401AE014053242F4A3038F552E062
:103EE000552A852D90E0AC014870507052FE06C0F6
:103EF000452B11F50894C11CD11C1EC0452B19F08F
:103F00000894C108D108C501B40140E20E94531DC4
:103F10004B015C0188E9881689E9980689E9A806B9
:103F200089E1B80648F094E0592A06C04E3F81F472
:103F300053FC0EC0E8E05E2A0894E108F108E114A1
:103F4000F10431F0C3010E940B24EC0197FFC2CFB2
:103F500051FE91C0C53619F0C53409F046C0089429
:103F6000E108F108E114F10409F485C0C3010E94DD
:103F70000B24EC0197FD7FC08B3221F08D3269F468
:103F8000F0E15F2A0894E108F108E114F10409F472
:103F900072C0C3010E940B24EC01CE01C0970A97A6
:103FA00008F069C000E010E0B801882777FD80952F
:103FB000982FAE014053242F40E20E94531D8B01E5
:103FC0000894E108F108E114F10439F0C3010E94FA
:103FD0000B24EC01C0970A9738F3B80154FE03C0D4
:103FE000709561957F4FC60ED71EEF2831F0D7FD33
:103FF00004C0CE01B3010E947924C501B4010E941E
:104000008C21D7FE0DC0A7EBEA2EA3E0FA2ED094A8
:10401000C194D108D394C0E2D0E000E010E00EC01B
:10402000FFECEF2EF3E0FF2EF6CFF701259135914F
:10403000459154910E94C921CC1ADD0ACC16DD06A7
:10404000A0F7D695C7950F5F1F4F0630110529F0D1
:10405000ECEFFFEFEE0EFF1EF1CFDC01CB0157FCC2
:10406000B0582114310429F0F10180839183A28397
:10407000B38381E001C080E0DF91CF911F910F9168
:10408000FF90EF90DF90CF90BF90AF909F908F9078
:104090007F906F905F903F902F9008955F926F9206
:1040A0007F928F929F92AF92BF92CF92DF92EF92C8
:1040B000FF920F931F93CF93DF934C015B013A0163
:1040C000FC0117821682552403C1812F90E00E94C3
:1040D000B923892B21F0C4010E94811DF9C015323A
:1040E00049F4F501F3FC6591F3FE61915F016532DE
:1040F00069F415E2C4010E940B2497FDF5C018175E
:1041000009F4E6C0B4010E947924F3C06A3219F0C0
:10411000162F00E006C0F3FC1591F3FE11915F012C
:1041200001E0CC24DD240EC00260B60180E090E006
:1041300040E20E94531D6B01F501F3FC1591F3FE63
:1041400011915F01212F20532A3070F301FD04C02B
:10415000CC24CA94DC2C04C0C114D10409F4C9C015
:10416000183621F01C3691F4F5010AC0F501F3FC74
:104170006591F3FE6191683611F0162F06C0086054
:104180000460F3FC1591F3FE11915F01112309F412
:10419000B0C086E893E0612F70E00E94C923892BAC
:1041A00009F4A7C0802F00FF03C0EE24FF2407C03E
:1041B000F301E080F18022E030E0620E731E1E36D3
:1041C00051F4F4014681578160E070E0C701202F6F
:1041D0000E94471D7DC01336B9F481FD03C011E074
:1041E000C12ED12CC4010E940B2497FD7DC0E11487
:1041F000F10419F0F70181937F010894C108D108F7
:10420000C114D10479F762C01B3559F4C401B60159
:10421000A70195010E942E1E5C01009709F056C06F
:1042200050C0C4010E94811D97FD5EC01F36D1F1B0
:10423000103738F41436A1F11936A9F11835D1F533
:104240002DC0133751F0143718F4103799F526C0E4
:10425000153731F1183771F521C0C4010E940B24C4
:10426000EC0197FD15C00E94B923892B29F0CE01DE
:10427000B4010E9479240CC0E114F10419F0F70193
:10428000C1937F010894C108D108C114D10429F752
:10429000E114F104D9F0F701108218C0006403C0E2
:1042A000006201C00061C401B601A701202F0E9475
:1042B0009A1D05C0C401B601A7010E94FB1E8823F8
:1042C00029F4F4018381807379F413C000FF5394BF
:1042D000F401F380F501F3FC1591F3FE11915F01F8
:1042E000112309F0F2CE05C0552019F42FEF3FEF4E
:1042F00002C0252D30E0C901DF91CF911F910F91B0
:10430000FF90EF90DF90CF90BF90AF909F908F90F5
:104310007F906F905F900895E89409C097FB3EF4FA
:1043200090958095709561957F4F8F4F9F4F992302
:10433000A9F0F92F96E9BB279395F6958795779580
:104340006795B795F111F8CFFAF4BB0F11F460FF40
:104350001BC06F5F7F4F8F4F9F4F16C0882311F098
:1043600096E911C0772321F09EE8872F762F05C0AC
:10437000662371F096E8862F70E060E02AF09A9547
:10438000660F771F881FDAF7880F9695879597F93C
:1043900008950BD078C069D028F06ED018F095231E
:1043A00009F05AC05FC01124A2C07ED0A0F3959F2F
:1043B000D1F3950F50E0551F629FF001729FBB270C
:1043C000F00DB11D639FAA27F00DB11DAA1F649FB8
:1043D0006627B00DA11D661F829F2227B00DA11D6B
:1043E000621F739FB00DA11D621F839FA00D611DF1
:1043F000221F749F3327A00D611D231F849F600D12
:10440000211D822F762F6A2F11249F5750408AF04A
:10441000E1F088234AF0EE0FFF1FBB1F661F771FD6
:10442000881F91505040A9F79E3F510570F014C06D
:104430005EC05F3FECF3983EDCF386957795679519
:10444000B795F795E7959F5FC1F7FE2B880F911DF4
:104450009695879597F9089597F99F6780E870E09A
:1044600060E008959FEF80EC089500240A941616EA
:10447000170618060906089500240A941216130652
:10448000140605060895092E0394000C11F48823E0
:1044900052F0BB0F40F4BF2B11F460FF04C06F5FFC
:1044A0007F4F8F4F9F4F089557FD9058440F551FD2
:1044B00059F05F3F71F04795880F97FB991F61F0A6
:1044C0009F3F79F087950895121613061406551F1D
:1044D000F2CF4695F1DF08C0161617061806991F89
:1044E000F1CF86957105610508940895E894BB277E
:1044F00066277727CB0197F90895AA1BBB1B51E1CB
:1045000007C0AA1FBB1FA617B70710F0A61BB70B43
:10451000881F991F5A95A9F780959095BC01CD01E8
:10452000089597FB092E07260AD077FD04D0E5DF12
:1045300006D000201AF4709561957F4F0895F6F724
:10454000909581959F4F0895A1E21A2EAA1BBB1B3F
:10455000FD010DC0AA1FBB1FEE1FFF1FA217B3074F
:10456000E407F50720F0A21BB30BE40BF50B661F65
:10457000771F881F991F1A9469F760957095809529
:1045800090959B01AC01BD01CF01089597FB092EC9
:1045900005260ED057FD04D0D7DF0AD0001C38F412
:1045A00050954095309521953F4F4F4F5F4F08955F
:1045B000F6F790958095709561957F4F8F4F9F4F3F
:1045C0000895283008F027E03327DA01990F311DCC
:1045D00087FD916000966105710539F432602E5FA8
:1045E0003D9330E32A95E1F708959F3F30F08038FE
:1045F0007105610509F03C5F3C5F3D93913008F027
:104600008068911DDF93CF931F930F93FF92EF92DA
:10461000192F987F9695E92F96959695E90FFF2784
:10462000E35DFB4F99273327EE24FF24A701E70121
:1046300005900894079428F4360FE71EF81E491FCA
:10464000511D660F771F881F991F0694A1F70590CB
:10465000079428F4E70EF81E491F561FC11D770F57
:10466000881F991F661F0694A1F70590079428F4E8
:10467000F80E491F561FC71FD11D880F991F661FAF
:10468000771F0694A1F70590079420F4490F561F51
:10469000C71FD81F990F661F771F881F0694A9F799
:1046A00084911095177041F0D695C7955795479509
:1046B000F794E7941A95C1F7E3EDF3E06894159049
:1046C000159135916591959105907FE27395E1186B
:1046D000F10A430B560BC90BD009C0F7E10CF11ED0
:1046E000431F561FC91FD01D7EF4703311F48A95E5
:1046F000E6CFE894015030F0080F0AF400270217C3
:1047000008F4202F2395022F7A3328F079E37D9344
:104710002A95E9F710C07D932A9589F60694979516
:104720006795379517951794E118F10A430B560BC7
:10473000C90BD00998F023957E9173957A3308F0D0
:1047400070E37C932013B8F77E9170617D9330F015
:10475000839571E37D9370E32A95E1F71124EF903F
:10476000FF900F911F91CF91DF91992787FD909531
:104770000895911136C1803219F089508550D0F7D3
:1047800008959111089581548A5108F4805E855AE4
:104790000895FC010590061621F00020D9F7C0010C
:1047A00008953197CF010895FC0105906150704044
:1047B0000110D8F7809590958E0F9F1F0895FC01EA
:1047C0006150704001900110D8F7809590958E0F40
:1047D0009F1F0895FB019F01E8944230C4F04532C9
:1047E000B4F44A3029F497FB1EF4909581959F4FBD
:1047F000642F77270E947D22805D8A330CF0895DCB
:104800008193CB010097A1F716F45DE251931082DA
:10481000C9010C94F424CF93DF93EC014B8140FF4A
:104820001AC046FF0AC04F7B4B838E819F81019641
:104830009F838E838A81282F2BC042FF13C0E8817B
:10484000F9818081282F332727FD309521153105E7
:1048500029F440624B832FEF3FEF1BC03196F98361
:10486000E88311C0EA85FB85CE0109959C0197FF7D
:104870000AC09B812F5F3F4F11F080E201C080E1B1
:10488000892B8B83E8CF8E819F8101969F838E83B6
:1048900030E0C901DF91CF9108950F931F93CF931B
:1048A000DF938C01EB018B8181FF1BC082FF0DC068
:1048B0002E813F818C819D812817390764F4E8811E
:1048C000F9810193F983E88306C0E885F985802F93
:1048D0000995892B31F48E819F8101969F838E8368
:1048E00002C00FEF1FEFC801DF91CF911F910F9111
:1048F00008959C01FB01838180FF11C086FD0FC0DC
:104900009FEF2F3F390759F0228380648F7D838387
:104910008681978101979783868330E002C02FEFCD
:104920003FEFC9010895FA01AA27283051F120313B
:1049300081F1E8946F936E7F6E5F7F4F8F4F9F4F33
:10494000AF4FB1E03ED0B4E03CD0670F781F891F75
:104950009A1FA11D680F791F8A1F911DA11D6A0F43
:10496000711D811D911DA11D20D009F468943F91F6
:104970002AE0269F11243019305D3193DEF6CF01F5
:104980000895462F4770405D4193B3E00FD0C9F7BB
:10499000F6CF462F4F70405D4A3318F0495D31FD28
:1049A0004052419302D0A9F7EACFB4E0A69597957B
:1049B000879577956795BA95C9F700976105710551
:1049C00008959B01AC010A2E06945795479537959B
:1049D0002795BA95C9F7620F731F841F951FA01DF5
:1049E0000895992788270895DC01FC01672F7191AC
:1049F0007723E1F7329704C07C916D9370836291C5
:0C4A0000AE17BF07C8F30895F894FFCF6D
:104A0C006572726F7231006572726F72320065720C
:104A1C00726F72330053657420616C61726D207417
:104A2C00696D652E2E2E004E6F726D616C206D6F50
:104A3C0064652E0053657420636C6F636B2074691E
:104A4C006D652E2E2E00416C61726D206973204FA6
:104A5C004E2E00416C61726D206973204F46462EBC
:104A6C0000536E6F6F7A65206973206F6E2E005342
:104A7C00686F77696E6720616463206F75747075F9
:104A8C0074000101060E0000100E0000015468694C
:104A9C0073206973206C696E652032000004040178
:0E4AAC004552524F5231004552524F52320085
:00000001FF
