:1000000019C033C032C031C030C02FC02EC02DC087
:100010002CC02BC02AC029C028C027C026C025C09C
:1000200024C023C022C021C021C01FC01EC01DC0CB
:100030001CC01BC011241FBECFEFD2E0DEBFCDBF5E
:1000400011E0A0E0B1E0E4EAF1E002C005900D9219
:10005000A230B107D9F711E0A2E0B1E001C01D92D2
:10006000A430B107E1F741D09BC0CACF1F920F92D5
:100070000FB60F9211248F939F9386B18823A9F412
:10008000419A809100018823B1F4809102019091FE
:1000900003018093C60081E0809300019F918F91BE
:1000A0000F900FBE0F901F90189588B118B88091CF
:1000B0000001882351F380910201909103019093F4
:1000C000C600109200019F918F910F900FBE0F906C
:1000D0001F9018959093C5008093C40088E5809385
:1000E000C10086E08093C2000895CF93DF93109201
:1000F000C50083E38093C40088E58093C10086E057
:100100008093C20082E084B987B978941092C600C7
:10011000C0E1D7E209C0299ACE010197F1F70AD0D0
:10012000909303018093020183B18823A1F385B1E9
:1001300015B8F2CF84EA8093BC008091BC0087FFA1
:10014000FCCF81E98093BB0084E88093BC00809160
:10015000BC0087FFFCCF84EC8093BC008091BC0086
:1001600087FFFCCF4091BB0084EC8093BC00809162
:10017000BC0087FFFCCF9091BB0084E98093BC005A
:10018000342F20E0290F311D35952795359527957A
:10019000359527953595279535952795C901089566
:0401A000F894FFCF01
:0201A400010058
:00000001FF
